:1000000070380020C522000097600000F522000033
:10001000F5220000F5220000F5220000000000009B
:10002000000000000000000000000000AD20000003
:10003000F522000000000000652000008160000043
:100040008522000085220000852200008522000014
:100050008522000085220000852200008522000004
:1000600085220000852200008522000085220000F4
:1000700085220000852200008522000085220000E4
:1000800085220000852200008522000085220000D4
:1000900085220000852200008522000085220000C4
:1000A00085220000852200008522000085220000B4
:1000B00085220000852200008522000085220000A4
:1000C0008522000085220000852200008522000094
:1000D0008522000085220000852200008522000084
:1000E0008522000085220000852200008522000074
:1000F0008522000085220000852200008522000064
:1001000053B94AB9002908BF00281CBF4FF0FF317E
:100110004FF0FF3000F06CB9ADF1080C6DE904CE82
:1001200000F006F8DDF804E0DDE9022304B07047D2
:100130002DE9F047089E0D4604468E46002B40F000
:1001400082808A42174646D9B2FA82F24AB1C2F197
:10015000200105FA02F320FA01F1974041EA030E6B
:1001600094404FEA1748230CBEFBF8FCB9B208FBD9
:100170001CEE43EA0E430CFB01F098420AD9FB182F
:100180000CF1FF3580F01681984240F21381ACF1FA
:10019000020C3B441B1AA4B2B3FBF8F008FB10336B
:1001A00044EA034400FB01F1A14209D93C1900F1E2
:1001B000FF3380F00181A14240F2FE8002383C44CE
:1001C000641A40EA0C4000211EB1D4400023C6E965
:1001D0000043BDE8F08702B9FFDEB2FA82F2002ADE
:1001E0004FD1CB1B4FEA174E1FFA87F80121B3FB03
:1001F000FEFC250C0EFB1C3345EA034508FB0CF303
:10020000AB4207D97D190CF1FF3002D2AB4200F2AC
:10021000E7808446ED1AA3B2B5FBFEF00EFB105545
:1002200043EA054408FB00F8A04507D93C1900F152
:10023000FF3302D2A04500F2D7801846A4EB080491
:1002400040EA0C40C0E78B4208D9002E00F0AF8096
:100250000021C6E900050846BDE8F087B3FA83F13E
:1002600000294BD1AB4202D3824200F2B780841AFC
:1002700065EB030301209E46002EAAD0C6E9004E7E
:10028000A7E7C2F1200C01FA02F3974020FA0CF024
:100290004FEA174E21FA0CFC1843BCFBFEF1050C8B
:1002A0000EFB11CC1FFA87F845EA0C4501FB08F359
:1002B000AB4204FA02F409D97D1901F1FF3C80F048
:1002C0008B80AB4240F2888002393D44EB1A85B204
:1002D000B3FBFEF00EFB103345EA034500FB08F3C9
:1002E000AB4207D97D1900F1FF3C71D2AB426FD907
:1002F00002383D44EB1A40EA014178E7C1F1200C95
:100300008B4022FA0CF71F4320FA0CF405FA01F394
:100310004FEA174E25FA0CF51C43230CB5FBFEF9EA
:100320001FFA87F80EFB195543EA054509FB08FA41
:10033000AA4502FA01F200FA01F308D97D1909F180
:10034000FF3047D2AA4545D9A9F102093D44A5EBA2
:100350000A05A4B2B5FBFEF00EFB105544EA0544B5
:1003600000FB08F8A04507D93C1900F1FF352DD254
:10037000A0452BD902383C4440EA0940A4EB0804CC
:10038000A0FB02894C45C6464D4619D316D05EB136
:10039000B3EB0E0264EB050404FA0CFCCA404CEA11
:1003A0000202CC40C6E900240021BDE8F0873146B6
:1003B00030460EE7AC46EDE6184601E74345E6D287
:1003C000B8EB020E69EB07050138E0E72846D3E7F2
:1003D00060468FE78146BAE7614677E708464BE714
:1003E000ACF1020C3D4415E702383C4426E700BF5F
:1003F000704700BF7FB52B4B2B4AC3F800262B4814
:10040000C3F804264921C3F80826C3F80C26C3F80C
:100410001026C3F81426C3F81826C3F81C2605F0C6
:10042000F9FA04F0EAF8224800F050F828B9204A16
:100430002048452105F0EEFAFEE701A800F026FC71
:100440001D4B1B68834204D01C48452105F0E2FA8D
:10045000FEE7039A1A48492105F0DCFA19484921B8
:1004600005F0D8FA9DF80800694600F03BF8009BBB
:10047000039C1C44019B1D8966194FF02002EFF379
:10048000118382F31188BFF36F8F05F0FBFD635971
:1004900083F30888736898470B48452105F0BAFA3A
:1004A000FEE700BF000001403546526E5C6F000061
:1004B000756F0000886F0000C4010020A76F000066
:1004C000CA6F0000F96F00001E70000010B5044CE8
:1004D000236813B903F05EF92060206810BD00BFE7
:1004E000C001002008B5024638B105480023452167
:1004F00005F090FA6FF0150008BD0860FCE700BF3A
:10050000417000002DE9F04FD9B0DDE96448DFF813
:10051000D891DDF888B1D9F8006038A817461D4693
:1005200000F0FCFFCDF80C903CB1B8F1000F04DDF9
:100530004246214638A805F0C7F97B89B7F80880FC
:100540009844FB684FF000099844C84549D838A939
:100550000CA805F0DFF9669B23B120220CA91846F0
:1005600005F0BCFD002300932A464FF6FF73394681
:1005700006A804F043F80446002840F0AB80DFF8FA
:100580006C9180464FF0FF370DF1120304AA05A9C4
:1005900006A804F07FF8041EC0F29C8040F08D8015
:1005A000BDF81230102B33D1BDF81080B8F1200FF8
:1005B00040F08E800599434638AA284605F04CFC49
:1005C0000446002840F08680424638A90CA804F072
:1005D00005F90446424B1B6883427BD14FF001086A
:1005E000D2E7639AA8EB09039A4228BF1A4613463A
:1005F000924649465A46284605F02EFC04460028F5
:1006000068D15246594638A805F05EF9D1449CE7B6
:10061000012B32D1BDF81030202B59D8059938AABA
:10062000284605F019FC0446002853D19DF810A077
:10063000BAF1200F03D94FF0FF342746A4E7D9F8C9
:100640000030284F0293029B9C42F4DA1CA800F071
:1006500065FF7B6857F8081B1A681CA805F034F979
:100660001CA914A805F056F9524638A914A805F09B
:1006700025FD0028E1D00134E5E7222B84D1002FAD
:1006800018DBD9F80030BB4214DDBDF81030802BE8
:100690001ED8059938AA284605F0DEFB0446C8B9DD
:1006A000FFB2BDF81030009738AA20210CA800F046
:1006B0001FF806464FF0FF3766E7B8F1000F0DD080
:1006C000074B1B68B34201D0039B1E68344601E010
:1006D0004FF0FF34204659B0BDE8F08F0124F9E710
:1006E000C4010020FC6B000000000020F86B00003B
:1006F0002DE9F04399B090461E469DF880203A4B74
:100700000F4653F83210039103EBC20381465B6836
:10071000186804AA0144302303A804F07EFA10B13B
:100720004FF0FF305DE0DDE903531D4405AA08AB3F
:10073000294603A804F099FA0028F1D1069A072A5D
:10074000EED12A49079805F0B9FC0028E8D1099AAA
:10075000082AE5D126490A9805F0B0FC0028DFD127
:1007600004AA294603A804F06CFA0028D8D1DDE9D0
:100770000343E2189542D3D1412BD1D12378042BE6
:10078000CED146440134302305AA314604A803944F
:10079000CDF8108004F041FA0028C1D1DDE904321F
:1007A00013449E42BCD3324604A908A803F0BDFFFF
:1007B0000028B5D1324604A910A803F0B6FF0028DE
:1007C000AED1202FACD1039C00F0BEFD08AB009051
:1007D0003A464946204604F010FF013818BF4FF052
:1007E000FF3019B0BDE8F083FC6B000067700000BB
:1007F0006F7000002DE9F04186B00123DFF87080B2
:10080000ADF800300D466F46002617F8010B01A920
:1008100001F026F90446D8B901988168102302AA8C
:10082000103905F019FB044628B1019805F013FBB7
:100830000EE00126E9E71022414602A805F03EFC41
:1008400050B1019805F007FB002EF2D04FF0FF34B5
:10085000204606B0BDE8F081019805F037FF04237B
:10086000A0F108012A46019805F0F6FA0446DCE7F3
:10087000206F000070B5324B88B001210446002083
:100880001D6803F0B1FE06A9C0B201F0E9F8002826
:100890004DD1012103F0A8FE07A9C0B204F12C0636
:1008A00001F0DEF800282DD0E16B11F0100136D1F7
:1008B0004FF480730193234B0093CDE90311069B02
:1008C000029132460846FFF71DFE05461E4BE26ABE
:1008D00006989A420CD1A28EA36BD1438B4207D8C3
:1008E000134482689A4203D9184B1B68AB421BD051
:1008F0008268002105F0F6FA154A1648452105F0F0
:1009000089F810E0079805F01CFB0546079805F0EC
:10091000A2FA04F12B0304F12F029A420AD106999C
:10092000204604F05AF80125069805F094FA284666
:1009300008B070BD13F8011FA942EED0B4E700BFA4
:1009400000000020480F00203DB8F396C4010020AD
:10095000787000008270000073B50D4604460021D7
:100960002846CDE9001103F0F7FFF0B1124E2268DE
:10097000B24203D101AA204603F066FFE36AB34204
:1009800004D16A460121204603F05EFFDDE9003212
:10099000934288BF0193019BAB602046019A294690
:1009A00000F016FB002002B070BD05F10801FFF752
:1009B00021FFAB680193F0E73DB8F3962DE9F84FBE
:1009C000DFF878B01B4C1C4D884691469A460026AD
:1009D0000B9B9E4201D300200FE00B9B174A9F1BED
:1009E000B7F5806F28BF4FF480673B4606EB0A01DE
:1009F000404605F031FA10B10120BDE8F88F0A99A0
:100A00003B465A467118484605F043FA0028F3D190
:100A1000C4F800563E44C4F80456C4F80856C4F856
:100A20000C56C4F81056C4F81456C4F81856C4F836
:100A30001C56CDE7000001403546526E480B0020A1
:100A40002DE9FF41874B602204460E460021D3F872
:100A5000008005F06EFB844B63620021834B2365AD
:100A6000084603F0C1FD04F12001C0B200F0F8FF18
:100A70000121002003F0B8FD04F14C01C0B200F0E8
:100A8000EFFF0546204603F03FFF024630B17848AD
:100A90008022572104F0BEFF012388E00146204652
:100AA00003F01AFF074618B1724800225721F1E7F8
:100AB000204600F0A5F90028EED0684603F043FF79
:100AC0006946204603F0DDFF18B16B483A465721CE
:100AD000E0E7684603F040FF80F001016A46C9B2D2
:100AE000204603F0F9FE02460028DDD1684603F0F7
:100AF00033FF074660BB69462046FFF72DFF9DF890
:100B0000073084F85830033B012B06D8384604F0F0
:100B100006F810B1FF2384F858309DF80730023BE7
:100B2000022B0BD8002003F0E8FF38B1FF2384F834
:100B300058305248452104F06DFFFEE794F85830D4
:100B4000FF2BF6D06A460021204603F0C5FEA3E73E
:100B50009DF80730012B20D1104602F075FD831E51
:100B6000022B07460AD82046FFF784FE444B1B6839
:100B7000984203D001280CBF0127052784F858703C
:100B800094F858308DF80730042B13D8012B17D860
:100B90002ED0FF2384F858302AE02046FFF76AFE63
:100BA000374B1B6898420CBF9DF80730052384F82B
:100BB0005830E5E7052BECD1002003F0B0FF12E040
:100BC00069462046FFF7C8FE94F85830DA1E012A1D
:100BD00005460BD8002003F0A2FF05460028D8D117
:100BE000002003F08AFF054610B1D2E7022BF7D0B0
:100BF00094F85830FF2B04D12048452104F00AFF17
:100C0000FEE7012B06D06A460021204603F064FE71
:100C1000054650B922681B4B9A4213D01A4800234C
:100C20002246452104F0F6FE0325E06C05F013F999
:100C3000206A05F010F9002D14BF2846404604B084
:100C4000BDE8F08110220021684605F072FA236A9F
:100C50005A7832715B68B360094B3460D3F8008016
:100C6000E3E700BF00000020280200202806002043
:100C7000AA700000EC7000001871000042710000C2
:100C8000C40100203DB8F3964E71000008B501463E
:100C90000148FFF7D5FE08BDC801002073B5164610
:100CA0001C4633B3436A5D686379012B15D101BBE0
:100CB0001F4B22681B689A4298BF0025002003F052
:100CC00093FC01A9C0B200F0CBFEF0B10125019860
:100CD00005F0C1F8284602B070BD022B09D1236887
:100CE000012B08D9124A1268934202D8B1FA81F155
:100CF00049090025E2E7FCD10029DFD00129F8D11C
:100D00002179023918BF0121F3E7294601982023F0
:100D1000324605F0A1F805460028D7D1002CD6D0E0
:100D2000356804482D1A18BF4FF0FF35CFE700BFD4
:100D3000040000203DB8F3962DE9F04F074685B03A
:100D40000C4601460020164603F04FFD051E51DB00
:100D50003846E46D03F052FD5FFA84F905F1FF387F
:100D600009FB08084FF0000A4FF0010B4FF0FF3469
:100D70009DB9BAF1010F03DD2048452104F04AFE78
:100D8000631C06D07F2C2ADC013440F2011334604E
:100D9000B380284605B0BDE8F08F6B1E00930DF1BF
:100DA0000F0201234146384605F056F8031E019311
:100DB00022DB01220DF10F01384605F098FC019B62
:100DC00040B19B4501D00AF1010A009DA8EB09083A
:100DD0009B46CDE7B4F1FF3F08BF2C46F5E7022361
:100DE000803C7371631004F00104013301343360FB
:100DF0003471CEE70725CCE70125CAE773710000FF
:100E000038B5826A446DA24208D0631C934205D073
:100E10001348572104F0FEFD002038BD802A1CD95C
:100E200010485721F6E7416A056D01EBC30105EB58
:100E3000C30549686D688D4202D00B485721E9E728
:100E40000133A342EFD19A4205D9426A02EBC303B0
:100E50005B689942F1D10120DFE700231946F0E7F2
:100E600096710000CE710000FD71000000B589B0E0
:100E700004A9012005F06EFC9DF81020012A41D044
:100E8000254B2649032A18BF0B469DF813200292D2
:100E90009DF8122001929DF81120214800924921CD
:100EA000204A04F0B7FD06A9022005F053FC9DF886
:100EB0001820012A28D0184B1849032A18BF0B46BE
:100EC0009DF81B2002929DF81A2001929DF819208E
:100ED00000921348144A492104F09CFD9DF81030FB
:100EE000012B13D19DF81230032B0FD19DF8183030
:100EF000012B0BD00D48492104F08CFD022009B0D4
:100F00005DF804FB0A4BC0E7094BD9E709484921C2
:100F100004F080FD0020F2E72E7200003472000021
:100F2000467200003872000087720000977200005D
:100F300029720000B672000070B5064618464B686C
:100F400014461D4A03F0FF23934286B00D462ED16E
:100F50000B68012B2BD104A905F0FCFB9DF8102098
:100F6000012A26D0154B1649032A18BF0B469DF8B7
:100F7000132002929DF8122001929DF811200092F8
:100F80001048114A492104F045FD9DF81030032B0B
:100F90000DD12146304603F020FD204605F0CAFB66
:100FA000A968204603F041FC204602F0EFFA06B0A3
:100FB00070BD064BDBE700BF000100042E7200008D
:100FC000347200004672000087720000297200002F
:100FD0002DE9F04F436A0C465E6889B00546012151
:100FE000002333449342084601F10101F9D3684FCD
:100FF0003860204603F0B0FCB846B8B1E86D03F0A5
:10100000EFFBAB6A0022013B3244904201D9013B25
:10101000FAE7D8F800209A4208D35E48572104F036
:10102000F9FC0123E37109B0BDE8F08F06A90120A6
:1010300000F016FD07A9022000F012FD0223079A16
:1010400021462846FFF778FF6379012B06D1D8F8AF
:101050000070D8F8003097B9012323600223637130
:1010600001270493D8F80030DDF818A09F4244D936
:10107000504604F0F0FE079804F0EDFED3E7216837
:1010800001335B1A9F4236D86A6ADDF818901368FC
:1010900052F8370002EBC702012952F8082CA0EBE6
:1010A000030AA2EB030B12D1E268079B022A0AD0C3
:1010B00049462846029303F090FC224649462846BA
:1010C00003F0C0FC029B1946284603F086FC32461A
:1010D0005146484603F07FFC5B464A464946CDE907
:1010E00000A62846FFF76AFC2146284603F041FC8B
:1010F000236801332360013FABE723689F4244D359
:101100006A6ADDF81CB052F837100391FB001168D1
:101110000291083B296DC8580968A0EB01092179A3
:10112000012930D1D158029B3246C91A5046059147
:1011300003F051FC059900914B46524659460196E1
:101140002846FFF73BFC2146284603F012FC049B8F
:10115000237132464946584603F03DFCDDE902233F
:1011600051469B1ACDE900965A462846FFF726FCC1
:101170002146284603F0FDFB2368013323604FF02E
:101180000103237101E00229E3D001376AE700BFC0
:1011900004000020CD720000024B0A461B680021AB
:1011A000184700BF08000020F0B5082289B00C469F
:1011B000064603F0A3FECB6A03930B6B04934B6BC1
:1011C00005938B6B0693CB6B0793002708236A4626
:1011D00069466846CDE90177009703F091FD082341
:1011E00005466A463146304603F08AFD236B039379
:1011F000636B0493A36B0593E36B0544CDE906375A
:101200006A4608236946684603F07AFD314605447C
:1012100008236A46304603F073FD236A0093636A2D
:101220000193A36A0293A36B0693E36B07930544B0
:1012300008236A463046CDE90477039703F060FD42
:10124000636A0093A36AA26B0193E36A0293049218
:10125000636BE26B0393CDE90523236A079305448F
:1012600008236A46304603F04BFDE36A0093236B84
:101270000193636B0293236A0693A36A0793054461
:1012800008236A463046CDE90477039703F06CFEE5
:10129000236B0093636B0193A36B0293E36B039344
:1012A000636A0693E36A07932D1A08236A46304659
:1012B000CDE9047703F058FE636B0093A36B0193B1
:1012C000E36B0293236A0393636A0493A36ACDE9F1
:1012D0000537236B07932D1A08236A46304603F01F
:1012E00043FEA36B0093E36BCDE90137636A03937D
:1012F000A36A0493E36ACDE90537636B07932D1A5C
:1013000008236A46304603F02FFE2D1A10D40D4CE8
:1013100035B908223146204603F0FCFD01280FD0E4
:10132000082322463146304603F01EFE2D1AEFE711
:10133000044A08233146304603F0E2FC2D18F8D465
:1013400009B0F0BD086C000000487047046C000054
:101350002DE9F04F9DB003680393436804938368BD
:101360000593C368069303690793436908938369E8
:101370000993C3690A939846DDE908CB059B01935D
:10138000DDE906E2049BDFF890A1039C0291009343
:101390000027029B019EDD590CAB2DBADD515AF896
:1013A000043B05EB03094FEAF22585EAB21585EA0D
:1013B00072654D442BEA020302EA0C0983EA090331
:1013C0002B44DDE9001543444D404FEA743888EA68
:1013D000B408254001EA060985EA090588EAB458F7
:1013E0000437A844402F03EB0E054344B646D846C5
:1013F00040F0818047490B914FF0100A51460AF1A5
:10140000010A1CAE0AF00F0706EB870701F00F096F
:1014100057F8406C02964FEAB64801F10E070931C1
:1014200088EAF61801F00F011CAE06EB890906EBFD
:10143000810107F00F0706EB870751F8401C59F8A8
:10144000406C57F8407C3144029E4FEAF74E88EAE0
:10145000D6088EEA774E8EEA972E414471440B9E51
:1014600049F8401C4FEAF52905EA020889EAB5194E
:101470002CEA050756F804EB0B9687EA080789EA79
:1014800075694F44009E77443944594404EA060E76
:1014900084EA060B4FEA7337019E87EAB3070BEA2B
:1014A000030B0E448BEA0E0B87EAB3575F44B0463A
:1014B000BAF1400F009E01963944E34623D1039EC2
:1014C0000E44049906601944059B41602344009929
:1014D0008360069B0B44C360079B43440361089BE6
:1014E0002B444361099B134483610A9B6344C3619A
:1014F0001DB0BDE8F08F0099E346CDE90041944668
:101500001C462A4645E7944600942A461C46454612
:101510000B4673E7F46C0000B46C000010B5044691
:10152000C8B17022002104F053FA0B4B0B4A0C494E
:101530000C48C4E900230C4BC4E902130B4BC4E96B
:1015400004030B4BA36103F17453A3F52303A3F628
:101550009243E361012010BD85AE67BB67E6096A6F
:1015600072F36E3C7F520E513AF54FA58C68059B85
:10157000ABD9831F0B6801330B60014B1B68184705
:101580000C000020014B1860704700BF0C000020C9
:1015900007B50B46002102460191034801A900F05E
:1015A000E5F803B05DF804FB751500002DE9F84F70
:1015B000B0F8189019F00808044693460DD0012998
:1015C0000CBF49F0100949F02009A0F818908BF3DE
:1015D0001188BFF36F8FBDE8F88F09F00709022962
:1015E00007D1204604F023FA0028F0D00128238BED
:1015F0004ED16769218B002F15DA256821F007018C
:10160000C4E9008841F0010121830026218B01F00B
:10161000070ACA4502D0A368002B5AD10DB9002E83
:1016200071D0002356E001F007035A1F012A1ED88B
:1016300021F00701062B256889B2C4E900880AD188
:101640003DB1638B2A46126801339BB2002AFAD15E
:10165000638341F002012183204604F0E8F9064645
:101660000028D3D0238B43F020032383CDE7042B22
:101670000CD121F0070189B22183204604F0D7F96B
:1016800005460028C1D041F0200121830025BCE798
:10169000032809D1226923F00703166843F00603E3
:1016A000238300252F46B1E7042806D1226923F0C1
:1016B0000703566843F00403F2E7052806D12269C0
:1016C00023F00703966843F00503E9E700252E465B
:1016D000E8E7012341F0080121838BF31188BFF370
:1016E0006F8FFBB985BB16B11F492046B0474FF03D
:1016F0002003EFF3118B83F31188BFF36F8F238BDC
:1017000023F008032383238BDA0625D523F0100367
:1017100023830121B4F8189009F0070900297FF408
:101720005EAF54E7A1680029DCD0D1F80090D1F871
:1017300004B03B4652462046D847B9F1000FD1D0FD
:101740004946D9F80090F2E729463B4652462046E2
:101750002D6804F088F9C5E713F020011EBF23F0BF
:10176000200323830221D5E7935A00002DE9F04F8F
:101770008DB0002406468B469A460B9402F1FF3941
:101780004FF0FF3527464FF000080AE0B8F1000F90
:101790000FD1252800F03B815946B0470B9A013202
:1017A0000B9219F8010F0028F0D10B980DB0BDE88D
:1017B000F08F7A280AD8622812D8302853D047D818
:1017C000252800F01E812D2800F02881594625206B
:1017D000B0470B9A99F8000001320B92594611E17B
:1017E000A0F16302172AF1D801A353F822F000BF39
:1017F000F3190000A5180000CD170000CD17000058
:10180000CD17000087180000A5180000CD170000B4
:10181000CD17000087180000CD170000CD1700007D
:10182000CD1700002F190000CD170000CD170000C4
:10183000CD190000CD170000A5180000CD1700003D
:10184000CD1700002F190000CD17000087180000E9
:1018500039280DD95828B9D16C2C40F0AB805AF8F2
:10186000042B002392E0002D02DA002F00F0D88034
:1018700025EAE5750A2202FB0505002FA5F13005D2
:1018800008BF02278DE7682803D1682C06D14824B9
:1018900087E76C2802D16C2C00F0C480002C95D115
:1018A00004467EE77A2C06D1D04658F8042BD3178D
:1018B000752828D111E06C2CF6D04C2C06D10AF1F9
:1018C000070323F00708F8E80223F1E77528DAF8A0
:1018D00000200AF1040815D10023F81E18BF0120CA
:1018E000012F0CBF30212021CDE901010DF12C0E7B
:1018F0000A200090CDE9035E5946304604F028FAEC
:10190000C24640E7D317002A73F10001E5DA5946D1
:101910002D20CDE90623B047DDE906230B9852427E
:1019200000F101000B9063EB4303013DD5E7702804
:1019300092D15AF8048B3C4B3C4AB8F1000F18BFC7
:10194000134613F8010B069359460993B0470B98B9
:10195000069B01300B9018780028F2D1B8F1000FE7
:1019600011D16A1F032F7FF40EAF9046B8F1000F1C
:101970007FF709AF59462020B0470B9A01320B92EE
:1019800008F1FF38F2E742460346023DF81E18BF51
:101990000120012F0CBF30212021CDE901010DF1E3
:1019A0002C0E10200090CDE9035E5946304604F01D
:1019B000CFF9E8E64C2C7FF452AF0AF1070323F08D
:1019C00007039A465B685AF8082BDFE75AF8048B3E
:1019D00043469C4613F8010B18B9ACEB0802AA1A4F
:1019E000C0E759460693B0470B98069B01300B9011
:1019F000EFE75AF8040B5946B0470B9B01330B93A2
:101A0000C1E65946B0470B9A01320B92BBE64446F9
:101A100047464FF0FF354FF00108C2E60327C0E606
:101A20000127BEE64C24BCE6577300005D7300003E
:101A3000094B30B51D68094B02461C6800239D42C6
:101A400001DC002030BD190104EB0310615C914200
:101A5000F8D00133F3E700BF086E0000100000204B
:101A6000084B1B6810B50C462BB1FFF7E1FF28B1FE
:101A70002060002010BD6FF00C00FBE76FF001004C
:101A8000F8E700BF1000002030B589B00C461546BD
:101A90000190FFF7CDFFB8B14368029383682268D5
:101AA000C068CDE903350023CDE90623059304F092
:101AB000B2F960B1074901AA04F042FC079808B9DD
:101AC000059B236009B030BD6FF01500FAE76FF099
:101AD0001200F7E71B5E00000A2838B5064D0446E1
:101AE00003D128680D2104F035FA2868E1B204F02A
:101AF00031FA204638BD00BF280A002010B507483B
:101B0000074C01F047FE074B1860204600F08EFEA0
:101B10002046FFF737FD002010BD00BF66730000B0
:101B2000D91A0000280A002070B504460D48231A6F
:101B30009A100D4B5343DBB20C255D4305F1400376
:101B40000E461844402104F011FA011E04DB074B35
:101B50002B445B689847002120463346BDE870401F
:101B6000184700BF3C0A0020B76DDBB6206E0000AE
:101B70002DE9F0410F4C104D031B9B105D43EBB260
:101B80000C255D43074605F140000E4620444021E8
:101B900004F005FA011E08DB084B2C44C4E90E369C
:101BA000074B5B59BDE8F041184738463346BDE85E
:101BB000F04118473C0A0020B76DDBB60160000019
:101BC000206E0000002270B501210446104600F08E
:101BD0009BFA002000F07AFA0F4801F0B5FB0F4B9A
:101BE000984215D104F01DFDE6680D49304603F01A
:101BF0006DFF00280BDB01253564E468084904F11A
:101C00001C0003F063FF002801DBE564002070BDC9
:101C10006FF00400FBE700BF591C00000000AD0B93
:101C2000386E000001460C2309484B4370B5C418B8
:101C3000D4E90E5600224033A263184404F0CDF9D3
:101C40002DB132462B460348BDE87040184770BDA1
:101C50003C0A00205000002010B1012804D0704739
:101C6000034B1B6C5B0701D1FFF7DCBF704700BF64
:101C70003C0A002008B54FF02003EFF3118183F3F5
:101C80001188BFF36F8F124A136843F0020013F0FC
:101C9000010310600CD04FF08042D2F80C34D2F81F
:101CA0000C2413F0010303D00A4804F096F9012331
:101CB00081F31188BFF36F8F23B1BDE80840002086
:101CC000FFF7B0BFBDE80840012001F04DBB00BFE9
:101CD0008C0A00207C0A0020094BBFF35B8F53E87D
:101CE000002F22F0020143E800100028F7D1BFF3D3
:101CF0005B8FD30702D4012001F068BB704700BF9F
:101D00008C0A00201FB500220123CDE90223094AD5
:101D1000CDF800D06B46CDF804D004F097F9002838
:101D200005DB4FF480420023684602F0FBF905B062
:101D30005DF804FB1F6000002DE9F8433A49BFF34A
:101D40005B8F0646012251E8003F41E80020002851
:101D5000F9D1BFF35B8F33B9344935484B60CB6061
:101D60008A6003F0C6FE731E012B32D8012E07D104
:101D70004FF08043D3F81C3403F00303012B28D029
:101D800004F0C6FD044618B92A4B1B78002B44D139
:101D90004FF02003EFF3118583F31188BFF36F8FAA
:101DA0000124254FDFF89480DFF894904FF08042B3
:101DB000D2F81834D2F81824D2030CD503F0030358
:101DC000012B01D0012E06D10CB385F31188BFF38E
:101DD0006F8FBDE8F883ACB1284600F0F5F94FF0FD
:101DE0008042D2F81835002BE0D139680029DDD0C7
:101DF0003B603B680123C2F81835C8F88031C9F848
:101E00000030D3E70021212002F044F9E7E74FF04A
:101E100080430222C3F80423DBE74FF08043022211
:101E2000C3F808230546BCE7900A00202C0A0020CE
:101E3000580A00206A1000200401004000E100E080
:101E400008000040044A1368C81A20F07F40034489
:101E5000136002F031BB00BFA00A00202DE9F0475B
:101E6000860006F1804600F1500406F58836A4008D
:101E7000DFF87C80D6F84035A4B204F180444FF4FA
:101E8000803721F07F4504F588348740C146D8F873
:101E900004A5A3EB0A0323F07F432AF07F42012B22
:101EA000C6F8402502D1132004F038FD0AF10202E1
:101EB000AB1A23F07F43B3F5000F88BF154600230C
:101EC00023602368C9F8447325F07F43C6F8403582
:101ED000D9F804359A4506D0EB1A023B23F07F432C
:101EE000B3F5000F01D8BDE8F0872B46CFE700BF60
:101EF00000100140F8B5104E104F0025104B002087
:101F00001C681A4605B1F8BDD6F80413C903FAD502
:101F100039680029F7D03D6039684FF48031C6F840
:101F20004813D6F8401501251CB15A681860A0471F
:101F3000E4E71460E7E700BF0010014040110140F2
:101F4000940A002038B5104D00244FF48033C5F8B2
:101F50000845C5F804330D4B4FF40032C3F8802117
:101F600001212246112000F0CFF8112000F0AEF838
:101F7000074A01231360074A2B6002201360FFF712
:101F8000DBFE204638BD00BF0010014000E100E04C
:101F9000081001409C0A0020134BB0F1FF3F08BF1E
:101FA0001846013800281CDD9842A8BF18460F4B80
:101FB000D3F804250E4B1968521A12F4000F22F0C0
:101FC0007F4318BF00200B4A013303440A481060C6
:101FD00000205060044A934294BFC9188918FFF743
:101FE0003DBF0020E3E700BFFFFF7F00001001407E
:101FF000A00A0020940A0020451E00004FF0200295
:10200000EFF3118382F31188BFF36F8F064AD2F882
:102010000405064A1268801A20F07F4083F3118875
:10202000BFF36F8F704700BF00100140A00A00206F
:10203000094A0A4993680968D967094998674B684A
:1020400043F080534B60002383F31188BFF36F8FFD
:102050009368D86F704700BF040B0020446F0000E6
:1020600000ED00E00F498A684FF038001044EFF3AC
:10207000098C80E8F01F202080F31188BFF36F8F58
:10208000094F4FF000668A6A8A603E60906F0023B5
:10209000936780F3118802F1380090E8F01F8CF309
:1020A00009887047040B002004ED00E01EF0040FC7
:1020B0000CBFEFF30880EFF30980816911F8021C6F
:1020C0000229FFD001B503F0E2FF01BD43B2002BAE
:1020D00008DB012200F01F0002FA00F05B09024A4F
:1020E00042F82300704700BF00E100E0054B4209C1
:1020F00000F01F0053F82220012303FA00F01040E3
:10210000704700BF00E100E043B2002BA8BF03F11D
:10211000604301F10101B8BF064B4FEA4111ACBF6A
:1021200003F5614300F00F00C9B2B4BF195483F83E
:102130000013704714ED00E042F8203C009B42F889
:102140001C3C0A49019B42F8183C029B42F8143C93
:1021500021F001014FF0807342F8043C42F8081C62
:102160000023203A82658367704700BF855B0000CB
:1021700008B506460D46144600F0B6FA074B9E60B9
:10218000204685F30988002163B681F31188BFF3E7
:102190006F8F0022002303F0F5FC00BF040B00202A
:1021A000014910220A60704710ED00E072B640400D
:1021B00080F31188BFF36F8FBFF34F8F30BF62B6CC
:1021C000BFF36F8F704700BF72B6494081F311882B
:1021D00020BF80F3118862B6704700BF37B505464F
:1021E0000C46C9B18B680093D1E900230E48452104
:1021F00003F010FC63690093D4E903230B484521E5
:1022000003F008FCE2690A48452103F003FCA269D7
:102210000848452103F0FEFB2146284603B0BDE8EF
:10222000304001F0EBBA00BF97730000CB730000A1
:10223000FF7300001374000030BFFFF7FDBF00BF45
:102240000E4A08B50E4B22F07F029A60BFF34F8F03
:10225000BFF36F8FD3F8882022F47002C3F8882070
:10226000EFF3148323F0040383F3148801F042FB9B
:1022700002F030F800F00AFA01F060FB0000000004
:1022800000ED00E001B572B60B4A506A00281EBF8F
:102290000021516204F089FA62B6EFF30580A0F1E3
:1022A00010004FEAC0000549014409C99847BDE83C
:1022B0000140034908470000040B0020246A000085
:1022C0007126000003F05BFF202080F3118808488E
:1022D0004FF40061401880F30988EFF31480022165
:1022E000084380F31488BFF36F8FFFF7A9FF000046
:1022F000B0390020EFF30880EFF3098101B5724691
:1023000000F0FEF801BD00BF70B5224C06460D4638
:102310002148452103F07EFBA26AD00603D51F4861
:10232000452103F077FBA36A190703D51C48452113
:1023300003F070FB174CA36A9A0710D51948452182
:1023400003F068FB626BA36A1B0608D5164845219B
:1023500003F060FB1EB1A36A23F08003A3620D4C5F
:10236000A26AD00703D51148452103F053FBA36AA5
:10237000990603D50E48452103F04CFB054B9A6A9C
:10238000D20658BF9A6A9A6A002042F0FF029A6207
:10239000287070BD00ED00E046740000617400001C
:1023A00099740000B1740000CE740000E97400005C
:1023B0000D75000070B5234C06460D462248452198
:1023C00003F028FBA26AD10403D52048452103F07D
:1023D00021FBA36A1A0503D51D48452103F01AFB0A
:1023E000184CA36A9B0510D51A48452103F012FB2F
:1023F000A26BA36A180408D51748452103F00AFB0D
:102400001EB1A36A23F40043A3620E4CA36A5905CC
:1024100003D51248452103F0FDFAA36ADA050BD56E
:102420000F48452103F0F6FA064A936A002043F468
:102430007F439362287070BDA36A9B04F4D509485A
:102440004521EFE700ED00E0417500005C750000FC
:10245000997400007275000090750000AA75000064
:10246000CA7500000D75000010B51D4C1D484521B2
:1024700003F0D0FAA26A930103D51B48452103F06B
:10248000C9FAA36ADC0103D51848452103F0C2FA52
:10249000134CA26A100303D51548452103F0BAFA7C
:1024A000A36A590303D51348452103F0B3FA0C4C32
:1024B000A26A920303D51048452103F0ABFAA36A40
:1024C000DB0303D50D48452103F0A4FA044A936ABF
:1024D0006FEA03436FEA13439362002010BD00BF0D
:1024E00000ED00E0E7750000047600001C760000B7
:1024F0003B7600005E76000088760000A77600003C
:102500002DE9F0434A4BD3F804908BB00F46C9F342
:102510000808002585F31188BFF36F8F02F07F4311
:10252000B3F17F4F07D102F00C03082B05D14148CE
:10253000452103F06FFA2F4603E0120701D4074646
:1025400001250022A8F103068DF807201446092E64
:102550005BD8DFE806F0054F53335A5A5A5A5A5798
:102560003548452103F056FA314B8DF80740DC6AB7
:1025700014F0020405D03148452103F04BFA002441
:102580001FE0DB6A5B001CD52D48452103F042FAB1
:102590002C4B1B782BB10DF107010120FFF7B4FE86
:1025A0000EE0294B1B782BB10DF107010120FFF73D
:1025B00001FF05E0254B1B889BB213B1FFF754FFC9
:1025C00004469DF8073093B92022394602A803F04B
:1025D00085FD099B35B3C3F3080222B96FEA532383
:1025E0006FEA4323099302A92046FFF7F7FD0BB0DA
:1025F000BDE8F0830DF107010020CFE70DF10701E1
:102600000020D4E712484521B7E71249124A13487F
:1026100019F4F87F08BF0A46A8F11003452103F01A
:10262000F9F9ACE723F4FF7323F00103DAE700BF05
:1026300000ED00E0057700003577000051770000DD
:102640007777000028ED00E029ED00E02AED00E0BA
:102650009B770000D7760000EC760000D67700006C
:10266000024A536943F010035361704700ED00E0E4
:10267000044B9968986A884203D003494FF080520E
:102680000A607047040B002004ED00E004480023BA
:102690002021C2180133302B82F80013F9D1704782
:1026A00000E100E008B50E4B9B68834207D1EFF3D1
:1026B000058393B10B4A536843F08053536001F094
:1026C00081FB4FF02003EFF3118083F31188BFF3F8
:1026D0006F8FBDE8084004F06AB801F0DBFD00BF71
:1026E000040B002000ED00E0024B034A03480121E7
:1026F00000F092B80000042000000020446E0000AA
:10270000F8B5224F154600228A420EDA4468002CA2
:1027100039D093B104F1FF3C14EA0C0F07D01C48E8
:10272000452103F077F96FF015052846F8BD1F2CF9
:10273000F5D906681CEA060FF1D1202C0668D0F8FE
:1027400008C0EDB210D9B4F1004F0FD8013CB4FA73
:1027500084F4C4F11F046400072D4CEA040407D973
:102760000C482A464521DCE70824F5E73E24F3E738
:1027700026F01F062E4346F0100644F00104BD600B
:10278000FE6001353C6101320C30BDE790ED00E0A8
:10279000F27700001A780000034B05225A60BFF35D
:1027A0004F8FBFF36F8F704790ED00E0BFF35F8FE7
:1027B000014B00225A60704790ED00E01349086811
:1027C000082810B51ED8FFF7F1FF114C4968002208
:1027D000904201F10C0105D10E4B1870FFF7DCFFA0
:1027E000002010BDA26051F80C3C23F01F031343DE
:1027F00043F01003E36051F8043C43F0010323610C
:102800000132E5E74FF0FF30EBE700BF506E00000C
:1028100090ED00E04810002010B5034C0123227811
:10282000FFF76EFF207010BD48100020014B1860AC
:10283000704700BF140000204FF02003EFF3118217
:1028400083F31188BFF36F8F06490123C1F8403528
:102850004FF08041C1F8783582F31188BFF36F8F54
:102860000020704700E0014020B1034B800143F09D
:1028700001031847704700BFF06B000038B50C48E3
:1028800000F088FF054680B1094800F083FF044648
:1028900058B141F201621821284603F072FC41F65A
:1028A00001221921204603F06CFC002038BD00BF36
:1028B0005878000008B5094B1A786AB901211970D7
:1028C00006200521FFF720FC0620FFF7FFFB044B45
:1028D0004FF00042C3F80423002008BD4910002037
:1028E000006000402B4BF0B544682B4813408342F6
:1028F00041D00DD8062B15D005D89BB1022B3CD06A
:102900006FF0150036E0B3F5801FF9D1012309E01F
:102910002248834233D0B3F5A00F32D0B3F5800FF5
:10292000EED10223D00654BFC2F34016032682F430
:1029300080759705C2F34020C5F3002507D512F432
:10294000006F67681FD001228A40C7F80825227AE5
:10295000134C012A01F01F0140EA450218BF4FF055
:10296000A04442EA032301F5E07143EA860344F8F8
:1029700021300020F0BD0723D4E70423D2E705234C
:10298000D0E70323CEE7520542BF01228A40C7F8B1
:102990000C25DCE70600F0000600100002004000F5
:1029A0000003005000F01F024009084B012818BF27
:1029B0004FF0A04303EB8203D3F8002722F4403208
:1029C00042EA0142C3F80027704700BF00030050ED
:1029D000F8B50D464168C768087A05F01F06B2F5DC
:1029E000A03F46EA401610D17009012806F01F01E9
:1029F0006B4801F5E07118BF4FF0A04050F821106E
:102A0000CC0707D56FF02200BDE0B2F5005FF96892
:102A100000F0AA80F8680121A94001437869F960B3
:102A20000121A940B2F5A03FBA690CBF0843884311
:102A3000B3F5C02F0CBF0A438A43BA613A69786183
:102A4000B3F5802F0CBF114322EA0101554A3961C9
:102A5000D2F804130023C9B203F5A27052F8200083
:102A6000C0F30520864240F0848021FA03F0C007BD
:102A70007FD5012199404C48BFF35B8FCC4350E890
:102A800000CF0CEA040C40E800CEBEF1000FF6D1F6
:102A9000BFF35B8F9B0003F1804303F5C043D3F882
:102AA000100520F00100C3F81005C2F8081300213A
:102AB0003046FFF777FFFB68EB4013F0010351D07E
:102AC0007B69EB4013F001045ED0BB69EB40DB0790
:102AD0005FBF396921FA05F505F00105C5F1020569
:102AE000314954BFEDB203250022012707FA02F451
:102AF000BFF35B8F51E8000F40EA040341E8003C5C
:102B0000BCF1000FF6D1BFF35B8FD04010F0010392
:102B100034D1910001F1804101F5C0414032D1F83A
:102B2000100520F44F3020F440709200C1F81005D9
:102B3000360292B2D1F8100506F47C5602F18042BA
:102B400002F5C04246EA05460643C1F81065136027
:102B50001268D1F8102542F00102C1F81025114A7F
:102B6000C2F8044318460EE00120A84021EA000103
:102B700054E70133082B7FF46FAF98E70132082A3E
:102B8000B4D16FF01200F8BD3969E94001F00101DC
:102B9000C1F103013046C9B2FFF704FF2046F2E756
:102BA0000003005000600040DC0A0020F7B500265A
:102BB000CDE90066264D2C684CB1264803F05CFB3D
:102BC0000090254803F058FB01902E602B68234DA0
:102BD000002201269446D5F8043306FA02F1194280
:102BE0001BD0910001F1804101F5C2410B68A3B1F6
:102BF00002F5A27302AF55F82330C1F800C0C3F349
:102C0000403007EB8000C3F3042350F8087C06FA39
:102C100003F33B4340F8083C0B680132082ADAD141
:102C2000009A1AB10B490E4803F0C3FA019A1AB17F
:102C300009490C4803F0BDFA44B1064803F045FBCE
:102C4000054803B0BDE8F04003F03FBB03B0F0BD62
:102C50007C61004080000020900000200060004067
:102C6000A80A0020C40A0020024B0B600123136055
:102C7000704700BFE00A002000487047C46E0000A3
:102C800070B50D462846194616461C4603F045FB0E
:102C900040B9094823462A46452102F0BBFE6FF0A1
:102CA000150070BD34B122462946304603F016FAAD
:102CB0000020F6E72046F4E766780000F8B50E46F7
:102CC000144603F0BEFC21460546304603F025FBC2
:102CD000374648B3B6FBF5F305FB136323B9B4FBE2
:102CE000F5F005FB104040B112482346324645211D
:102CF00002F090FE6FF0150015E0A54213D84FF0DA
:102D0000FF324FF0FF330C4801F00CFA03F099FC4E
:102D10000546384600F0D4FB641B2F44F9D1064821
:102D200001F0E0F92046F8BD04482346324645212B
:102D3000DEE700BF88780000E80A0020667800001F
:102D400010B5012211460648064C03F0D5FD03F0EC
:102D50007CFC206003F075FC6060002010BD00BFAB
:102D6000E80A0020E00A0020F8B50E463046194671
:102D700017461C4603F0D1FA40B91948234632469B
:102D8000452102F047FE6FF01500F8BD44EA060544
:102D900015F0030504D01348234632464521F0E7D9
:102DA000DCB111484FF0FF324FF0FF3301F0BAF9B8
:102DB00024F00304A54205EB060009D10B4AD2F822
:102DC0000034DB07FBD5084801F08CF90020DCE774
:102DD000795900F095FB0435ECE72046D5E700BFB4
:102DE00066780000AC780000E80A002000E00140AE
:102DF000F0B54B79012B29D0032B24D110268B79E8
:102E0000032B20D1CC7924B1012C1CD143681B7930
:102E1000CBB10A7912B1022A15D10E220B6845688E
:102E2000B3F5164F2D6865D02DD8B3F5165F64D075
:102E300016D8B3F5966F62D00AD8B3F5967F61D0F5
:102E4000B3F5167F61D06FF0220052E00026D6E77E
:102E5000B3F5166F5CD0B3F5965FF4D1374B3CE019
:102E6000B3F5E14F57D007D8B3F5615F55D0B3F54F
:102E7000964FE8D1324B30E047F61227BB42E2D101
:102E80004FF4000329E0B3F5613F48D013D8B3F500
:102E9000963F47D009D84DF6C027BB4244D0B3F582
:102EA000614FD0D14FF46B0317E0B3F5E13FCAD1C6
:102EB0004FF0EB7311E0B3F5612F38D008D8214FF4
:102EC000BB4237D0B3F5E12FBDD14FF0E86304E04A
:102ED0001D4FBB42B7D14FF08053C5F82435C368AE
:102EE00003C9344322430433C5F86C2583E8030047
:102EF0000020F0BD4FF41D03EFE7144BEDE74FF456
:102F00009E23EAE74FF4A033E7E74FF41C33E4E7EE
:102F10004FF41D23E1E70E4BDFE70E4BDDE74FF0EB
:102F20006C73DAE70C4BD8E74FF46503D5E74FF045
:102F30007063D2E74FF08063CFE700BF00B01300AB
:102F400000A04E0090D0030040420F000050270028
:102F500000C0750000F03A0000903A012DE9F04100
:102F6000C7680646884603F0D3FCB8B9284B1B78DF
:102F700083F001037268156893B14FF02003EFF3FB
:102F8000118483F31188BFF36F8F304603F052FA38
:102F900038BB84F31188BFF36F8FEEE70123E9E7B5
:102FA0006424304603F046FA70B9012003F037FB81
:102FB000013CF6D10021212001F06CF8F0E784F308
:102FC0001188BFF36F8FF5E74FF02003EFF3118403
:102FD00083F31188BFF36F8F304603F02BFA00287C
:102FE000EDD007F8148F01230022C5F84475C5F809
:102FF0004835C5F82021D5F82011C5F85821D5F855
:103000005821AB6084F31188BFF36F8FBDE8F08166
:103010006A10002000F01F0140090128044B4FF006
:10302000010218BF4FF0A0438A40C3F8082570473B
:103030000003005000F01F0240090128044B02F574
:10304000E07218BF4FF0A043032143F822107047ED
:1030500000030050F8B50022054601210220FFF7C9
:1030600053F80220FFF732F86B68EE681C680027FF
:10307000C4F8007506203560FFF7CCFF0620FFF787
:10308000D9FF4FF0A043E968C3F820770623C4F8BE
:103090000C350823C4F814354FF0FF33C4F8083555
:1030A0000431C4F810352846FFF7A2FE074678B968
:1030B0006B689B790BB306F1160000F033FA1F4BD7
:1030C000984207D01E48452102F0A4FC6FF0040787
:1030D0003846F8BDB07DC30003F1804303F5F833F3
:1030E00004F10C0204F59071C3F81015C3F814250F
:1030F000144A01238340C2F804350823C4F800357C
:103100000023C4F81031D4F8103106F11503C4F8C7
:1031100034350123C4F8383523606B689B791BB9BB
:103120004FF48073C4F8043300231436C4F84465A4
:10313000C4F848350123A360E360C9E70000AD0B84
:10314000D978000000F00140064B1B68082B06D11F
:10315000054B1B68052B02D8044AD05C7047002041
:10316000704700BF30010010340100100D790000DD
:10317000064B1B68082B06D1054B1B68052B02D894
:10318000044AD05C70470020704700BF3001001037
:103190003401001013790000024AD2F80034002BE9
:1031A000FBD0704700E0014010B5FFF7CDFF40B104
:1031B0004FF080430022C3F80C21C3F81021C3F85C
:1031C0003825FFF7C1FF002846D04FF08052524B00
:1031D000D2F80414C3F82015D2F80814C3F8241543
:1031E000D2F80C14C3F82815D2F81014C3F82C1513
:1031F000D2F81414C3F83015D2F81814C3F83415E3
:10320000D2F81C14C3F84015D2F82014C3F84415A2
:10321000D2F82414C3F84815D2F82814C3F84C1572
:10322000D2F82C14C3F85015D2F83014C3F8541542
:10323000D2F83414C3F86015D2F83814C3F8641502
:10324000D2F83C14C3F86815D2F84014C3F86C15D2
:10325000D2F84424C3F87025FFF78AFF10B12F4B32
:103260002F4A1A60FFF784FF18B12E4BFB22C3F8D8
:103270001825FFF77DFF48B12B492C4B0A681B68C6
:1032800022F00F0203F00F0313430B60FFF770FFF0
:1032900018B1274B4FF400721A60FFF755FF48B181
:1032A0004FF08043D3F80024D20744BF6FF00102EF
:1032B000C3F800244FF01023D3F80022002A03DBC8
:1032C000D3F80432002B22DA1A490123C1F804355D
:1032D000FFF762FF4FF010201224C0F80042FFF702
:1032E0005BFFC0F80442FFF757FF0023C1F8043525
:1032F000FFF752FFBFF34F8F0F49104BCA6802F41C
:10330000E0621343CB60BFF34F8F00BFFDE70C4B70
:103310000C4A1A6010BD00BF00C000408C5600402F
:103320004881030000F00040E40E00405802001005
:103330004096024000E0014000ED00E00400FA0584
:10334000440000200090D003044B1A7922B90122D6
:1033500018609A800248704702487047F80A0020B7
:103360000000AD0B0C00AD0B10B1012820D0704750
:103370004FF08043D3F81824D3F8181411F4803F89
:10338000194611D002F00302012A0DD1C3F8182505
:103390000C4B00221A601B684FF080430222C3F8D6
:1033A000042301229A6070470023C1F81835EFE723
:1033B000054B00221A601B684FF08043C3F80403DA
:1033C00018607047040100400001004038B510B19A
:1033D000012818D038BD4FF080430222C3F80823DB
:1033E000184A10601268184A0121116042F21075E3
:1033F0001C46D4F81834DB03ECD5012003F00FF998
:10340000013DF6D1E6E7114B4FF080440022C4F8AD
:1034100008031A601B680E4B42F210751860D4F84E
:103420000C34D4F80C24D20303F0010305D523B1E6
:10343000012003F0F4F8013DF1D1064B00225A714E
:10344000C8E700BF040100400C000040000100403C
:1034500004000040F80A0020164B1A6810B56AB143
:1034600000221A601B684FF080430122C3F8082332
:10347000114B587910B95A711B6898470F4B1A684D
:1034800072B100221A601B684FF08043D3F81824F1
:10349000D3F81814920704D10122C3F818259A60B2
:1034A00010BD0222C3F80823034BBDE810401B687F
:1034B0000120184700010040F80A002004010040E4
:1034C0004FF080531A69B0FBF2F302FB130373B998
:1034D000084B0222C3F80425C3F80805D3F80024DA
:1034E000D207FBD500220448C3F8042570470348DF
:1034F000704700BF00E001400000AD0B0A00AD0BBB
:10350000074B0122C3F80425D3F80024D207FBD5CA
:103510000160BFF35F8F0022C3F80425704700BF2E
:1035200000E001402DE9F041144A154E154F0546C3
:10353000154800244FF0010E5FFA84FC4FF0200381
:10354000EFF3118883F31188BFF36F8F0EFA0CF33A
:10355000134207D031680B4201BF1943316085F82F
:1035600000C0384688F31188BFF36F8FB84203D08C
:103570009A4304F10104DFD1BDE8F081FFFF0F00A1
:10358000000B00200000AD0B0200AD0B8168054A66
:1035900008B51039102302F07CFC003818BF012058
:1035A00008BD00BF206F000030B50C46816887B0B1
:1035B000102302AA1039054602F04EFC002811DB48
:1035C000102202A9284603F044F868B103232370AF
:1035D000A96801230DF107022839284602F03CFCB6
:1035E00000280BDA01202AE01649102202A802F076
:1035F00065FD002814BF02230123E8E79DF807308A
:1036000003F00F021B096270237101220DF1070103
:10361000284603F01EF810B96378042B03D9012360
:10362000637000232371AA68A11C203A284603F086
:1036300064F80028D6D1E11C284603F087F807B0CB
:1036400030BD00BF206F00002DE9F04385B0694612
:10365000012003F07FF818B1FF2005B0BDE8F0832A
:1036600002A9022003F076F802460028F4D19DF862
:1036700000509DF808609DF803709DF80B809DF840
:1036800002901E4C2078294603F023F800B360789E
:10369000314603F01EF8D8B1A378042B01D0BB4209
:1036A00016D1E378042B01D0434511D12379042BA3
:1036B0000CD16379022B16D1114A1248492102F02C
:1036C000A9F96079831E022BC7D9C5E74B45F0D015
:1036D0000132032A04F10604D4D10B48492102F037
:1036E00099F90120B9E7032B05D0084A0849042BB2
:1036F00018BF0A46E1E7074ADFE700BF6479000028
:10370000207900003C7900004F7900001979000011
:103710002A79000025790000F8B5104B104F53F8B6
:103720002050013053F82060AE4200D8F8BDD5E9F2
:1037300000342046984770B16CB1E41B2411610934
:10374000084A04F01F0452F82100012303FA04F48C
:10375000044342F821400835E6E700BF306F00001F
:1037600050000020B0000020084BC01A0011084B88
:10377000420900F01F0053F82220012303FA00F051
:1037800010420CBF18460020704700BF50000020B8
:10379000B0000020114970B5114C05460E468C4210
:1037A00004D10F4CB4420AD1002414E02046FFF7A4
:1037B000DBFF10B12368AB420DD01034EFE7204699
:1037C000FFF7D2FF08B91034ECE72168284602F071
:1037D00069FC0028F7D1204670BD00BFB000002072
:1037E0005000002010B545210446034802F012F9AC
:1037F000204602F0D1FF00BF76790000F7B50546FC
:103800000E464FF02003EFF3118783F31188BFF3C7
:103810006F8F00F061FC042D96BF184B184B53F8C6
:10382000253000220446009216482A46452102F01F
:10383000F1F83EB1F369C3F308031BB11248452107
:1038400002F0E8F834B1204603F06CF8034608B102
:10385000027802B90D4B0E482246452102F0DAF8F3
:1038600031462846FFF7BEFF87F31188BFF36F8FFD
:10387000204603B0BDE8F040FEF714BF486F0000DB
:103880008A790000A0790000CD79000098790000C5
:10389000F3790000F8B5164E054600274FF02002D8
:1038A000EFF3118382F31188BFF36F8F286988B11A
:1038B0002F6183F31188BFF36F8F00F083FA4FF00D
:1038C0002003EFF3118083F31188BFF36F8F02F0B1
:1038D0006EFFE3E703F03EF8012102280446D8BF5B
:1038E000084603F047F87462FEF760FCD6E700BFB5
:1038F000040B00200248034A0021121A02F019BCEE
:10390000B80000206C10002008B50A4B01220220EC
:103910001A70FFF701FF00F0D1FC0320FFF7FCFE57
:1039200000F05AFCFCF766FD034A137B23F0010309
:10393000137308BD6A100020380100202DE980486B
:10394000DFF8F490A7B089F30888334D334E6B69E4
:10395000DFF8E8A0324F43F4007300246B61E023EA
:1039600085F82230EC772C766C76AC766B6A43F473
:10397000E0236B62FEF774FEFEF712FC4FF0FF339C
:10398000AB62EB62274D40F20113ADF8243006AB79
:10399000AB602046CDE92044FFF7BEFE0120FFF7D3
:1039A000BBFE4FF0010B00F01DFB1F4BAE621F4929
:1039B00005934FF420525346CDE9034BCDE9014422
:1039C0000094304600F0D8FB737B804623F004035C
:1039D0003046737302F013FF0F23CDE902431449FD
:1039E000144B4FF4A072CDE904B4CDE9005438462D
:1039F00000F0C2FB7B7BEF6023F004037B7305F1D7
:103A00001C03C5E907332C76C5F80490524641469D
:103A10003046FEF7ADFB00BF00ED00E038010020AE
:103A2000B8000020040B00205A7A0000701000201B
:103A30007038002095380000B0410020093900009E
:103A400010B5084C23685BB1FEF7D8FA034620682E
:103A5000054A0344BDE810405361002102F08ABFCB
:103A600010BD00BF400B0020040B0020F8B5054638
:103A70000C464FF02003EFF3118683F31188BFF358
:103A80006F8F0D4B00224FF4004740F2E7300021CA
:103A90005A61E7FB05014FF47A720023FCF730FB13
:103AA000064B1860064B1C60FFF7CAFF86F31188AF
:103AB000BFF36F8FF8BD00BF040B0020400B002048
:103AC0003C0B002049B9EFF3058030B9054B9A6AE9
:103AD0009B689A4201D0FEF7ABBA81F31188BFF31D
:103AE0006F8F7047040B00204FF02003EFF311811C
:103AF00083F31188BFF36F8F044B9A68D37B013B2C
:103B0000D37381F31188BFF36F8F7047040B0020CC
:103B1000094B03F12C02824205D19B688B4202D1F2
:103B20004B7BDB0606D1D1E9003213605A600023DB
:103B3000C1E90033704700BF040B002038B5124CB8
:103B40002369A26801460BB1E5680CE004F12C0082
:103B500002F04FFE537B0546980644BF43F008032E
:103B60005373002DF0D049B9537BDB0606D1AB6906
:103B700023B9D3897F2B01D9A26238BD954201D0E8
:103B8000FFF75EFFA562F8E7040B002010B54FF0C9
:103B90002003EFF3118483F31188BFF36F8F084B79
:103BA0009A68D37B0133D3730020FFF7C7FF84F3F8
:103BB0001188BFF36F8FBDE8104002F004BE00BF54
:103BC000040B002070B490F90D20437B002A29DB00
:103BD000DB0627D183692BBB134AD2E90B3402F1F0
:103BE0002C018B4218D0BBB190F90E5093F90E60A6
:103BF000AE420CDD5A68C0E9003210605860437B69
:103C000063F07F03437370BC0020FFF797BF9C42B3
:103C100002D01B68002BE9D1C0E90014136B1860B7
:103C20001063ECE770BC7047040B002010B54FF038
:103C30002002EFF3118482F31188BFF36F8F427B70
:103C4000510704D484F31188BFF36F8F10BD22F0A5
:103C500004024273FFF7B6FF21460248BDE8104058
:103C6000FFF730BF6B10002070B590F90D30002BBE
:103C7000014602DA1648FFF74BFF164AD2E90B3429
:103C800002F12C0083421CD0DBB191F90E5093F964
:103C90000E60AE4210DD5868C1E900300160596025
:103CA0004B7B906863F07F034B73431A5842BDE827
:103CB00070405841FFF742BF9C4202D01B68002B66
:103CC000E5D1C1E90004136B19601163E8E700BF97
:103CD000300B0020040B002070B501464FF020038C
:103CE000EFF3118483F31188BFF36F8F164B174ADC
:103CF00098681568A8421D4606D1FFF7A1FE84F317
:103D00001188BFF36F8F70BD00261660104A1268CD
:103D1000BAB1C2897F2A14D8427BD20611D10D4A8A
:103D200090F90E60126896420BDB0B4A904208D065
:103D30005A698A4202DCFFF797FFDEE7521A5A619E
:103D4000DDE700236B61DAE7040B0020380B00206D
:103D5000400B00203C0B0020B800002070B504464A
:103D6000183002F0E1FD4FF02003EFF3118683F3EA
:103D70001188BFF36F8F94F90D30002B07DA0F48CD
:103D80002146FFF7C5FE637B03F07F0363730C4D91
:103D9000637BA86843F010036373031B58425841C8
:103DA000FFF7CCFE86F31188BFF36F8FAB68A34299
:103DB00003D1BDE8704002F006BD70BD300B00209D
:103DC000040B00202DE9F04104464FF02003EFF3EF
:103DD000118283F31188BFF36F8F437B13F0280F99
:103DE00005D082F31188BFF36F8FBDE8F08143F0F7
:103DF0002003437382F31188BFF36F8F183002F0F2
:103E000093FD4FF02003EFF3118683F31188BFF386
:103E10006F8F637BD80616D1A269A2B9190607D5A0
:103E200026482146FFF774FE637B03F07F0363732C
:103E3000234B9868021B50425041FFF77FFE04F16C
:103E4000300800271DE09B07F9D5A0682146FFF741
:103E50005FFE637B23F0020363730023A360EEE73E
:103E600005F1180002F060FDA8682946FFF750FE32
:103E70006B7BAF6023F002036B73EF672846FFF79D
:103E8000A1FE256B454501D0002DE9D10C4B9A6868
:103E90000C4B9A4202D10120FFF750FE637B43F0A6
:103EA00008036373236E86F31188BFF36F8F002BB3
:103EB0009BD02046BDE8F041184700BF300B0020E2
:103EC000040B0020B800002008B590F90D30002B3D
:103ED000014606DA0748FFF71BFE4B7B03F07F0322
:103EE0004B73054B9868431A58425841BDE8084047
:103EF000FFF724BE300B0020040B00202DE9F04119
:103F0000064614461D464FF02003EFF3118783F356
:103F10001188BFF36F8F02F0A2FC87F31188BFF303
:103F20006F8F6B1C08BFB4F1FF3F08D022462B46B1
:103F300006F118000349BDE8F04100F035BABDE8CC
:103F4000F08100BF1F68000010B5074B9868074B51
:103F50000C4618601146DDE90223FFF7CFFF20462B
:103F6000BDE81040FEF764B8040B0020380B0020B9
:103F70002DE9F04105460F4602F016FD04464FF0CC
:103F80002003EFF3118883F31188BFF36F8F124E74
:103F9000124BB0681860FFF797FFB06810492A46C7
:103FA0003B46183000F000FAB268537B43F0100330
:103FB00053734046FEF73CF802F0F6FC2C44241AFA
:103FC0004FF0000565F10005002C75F10003B8BF46
:103FD00000242046BDE8F081040B0020380B0020AF
:103FE0001F680000044B002103F12C02C3E90B22DF
:103FF0000846FFF73BBD00BF040B0020F8B5234C7B
:10400000234BA2689A4228D04FF02003EFF311858A
:1040100083F31188BFF36F8F04F12C00A168FFF7C1
:1040200077FDE26AA368824228D03AB3266B93F9FF
:104030000E1092F90E708F421BDD5168C3E900210A
:104040000B6053605A7B62F07F025A730120FFF7C6
:1040500075FD85F31188BFF36F8F4FF02003EFF3E9
:10406000118083F31188BFF36F8FBDE8F840FDF72F
:10407000DFBF964202D01268002ADAD1226B5A6062
:10408000226B186013602363DCE700BF040B002081
:10409000B8000020B1F1FF3F08BFB0F1FF3F08B505
:1040A00002460B4606D10B4B9868FFF757FE4FF0C0
:1040B000FF3008BD13430AD1FFF7A0FF00204FF4E3
:1040C0007A7380FB0323D00B40EA4340F1E7FFF70C
:1040D0004FFFF4E7040B0020014B9868704700BFC6
:1040E000040B002038B504464FF02003EFF3118590
:1040F00083F31188BFF36F8F02F0D9FB48B1002220
:10410000C26702F07CFB29460548BDE83840FFF74E
:10411000D9BCD4E902329A4218BF0133A360F2E756
:104120006B10002037B514461D464FF02003EFF307
:10413000118183F31188BFF36F8F836843B1013B13
:10414000836081F31188BFF36F8F002003B030BD0F
:1041500054EA050306D181F31188BFF36F8F6FF026
:104160000F00F3E70246CDE900450248FFF7ECFEF9
:10417000ECE700BF6B1000202DE9FF4100F1300596
:10418000C0E90C550E9D057304254573D61D0D9D84
:1041900085730C9A002526F00706C0E90655C0E98C
:1041A0001A16C573056702920B9A019201EB060875
:1041B0000A9A009242460446FDF7BEFF054B9B68F3
:1041C000C4E9175503B15B6F6367404604B0BDE8AF
:1041D000F08100BF040B00202DE9F0472A4E2B4D43
:1041E00086B0B046B54205F1300410D3FFF77CFC31
:1041F000264CDFF89CA04FF4004940F2E736002738
:10420000444521D306B0BDE8F047FFF7BFBC54F8E2
:10421000043C059354F8103C049354F8143C039365
:1042200054F8183C029354F81C3C019354F8203C79
:10423000009354E90A2354E90C01FFF79DFF54F859
:10424000303CDD652546CDE7636A5A1C0DD023EA74
:10425000E37330463946C9FB0301B94208BFB04297
:10426000256804D12846FFF7E1FC3034C8E74FF455
:104270007A720023FBF744FF02460B4605F1180053
:10428000514600F091F8F0E7B4000020B40000209F
:104290001F68000008B54FF02003EFF3118483F38B
:1042A0001188BFF36F8F044B98681861FFF756FDB4
:1042B0002046FDF7BDFE00BF040B0020024A034963
:1042C000034801F0A7BB00BFF2790000627A00004A
:1042D000837A000008B50648064A0749121A01F019
:1042E000FDFEBDE80840054A0549064801F0F6BE56
:1042F00000000020B4000020AC7A000000000000A4
:10430000AC7A000000000020034B1B680BB9FDF7DE
:1043100075BE0020704700BF440B002030B5036815
:1043200068B10A4A5268904209D043B1D3E90421E6
:10433000D0E90445121945EB0101C3E904214268A3
:1043400013605A600023C0E9003330BD48000020EC
:1043500038B5134B1C689C4208BF0024FFF7D4FFFC
:104360000546BCB1D4E90401401B61EBE5710128AD
:1043700071F1000311DB6FF000420023824273EB06
:10438000010400DA1046074B5B6913B19842A8BFDD
:10439000184638BD6FF00040F5E70020F3E700BF96
:1043A00048000020040B00202DE9F74F0191194629
:1043B0004B1C08BFB2F1FF3F82466CD0541C6FF01B
:1043C000010341F100054FF0FF3BB3EB04086BEB39
:1043D0000509B8F1000F79F100030FDBFFF794FF37
:1043E000334AD2E9001C6FF001035B1A6BEB0C023D
:1043F0001E1B62EB0507341A67EBE075019BCAF8D8
:1044000008304FF02003EFF3118683F31188BFF3D8
:104410006F8FFFF779FF012C75F10003254BB8BFB3
:1044200001241A68B8BF0025241845EBE0759A42AC
:10443000CAE9044501D05F6852B95A68CAF8042035
:104440005A68CAF80030C2F800A0C3F804A014E00B
:10445000D2E90489DAE90445444575EB09011DDA1E
:10446000B8EB040069EB0501C2E904015168CAE92F
:104470000021C1F800A0C2F804A01A689A4206D030
:10448000924504D1FFF764FF0021FDF785FD86F317
:104490001188BFF36F8F03B0BDE8F08FB4EB080055
:1044A00065EB0901BA42CAE90401C6D01268C3E744
:1044B000B8010020480000202DE9F74F0646FFF71D
:1044C0000BFC4FF02003EFF3118483F31188BFF34B
:1044D0006F8F2C4DDFF8B0A0DFF8B0B02E605146E2
:1044E000D5F800C0DBF800006246D3175845DAE97A
:1044F0000089CDE900230DD060B1D0E90467B4454F
:10450000BB411EDA009BB6EB030C019B67EB030675
:10451000C0E904C6009B13EB0802019B4FF00006A4
:1045200043EB0903C1E900232E60FFF711FF314679
:10453000FDF732FD84F31188BFF36F8F03B0BDE840
:10454000F08F18EB06084FF000024FF0000349EB24
:10455000E679C0E90423ACEB0606CAE900892E60BF
:10456000FFF7DCFE84F31188BFF36F8F83689847F1
:104570004FF02003EFF3118483F31188BFF36F8FA3
:104580000149ADE7440B0020B8010020480000209D
:1045900010B54FF02003EFF3118483F31188BFF3BC
:1045A0006F8FFDF72BFD064BD3E90023121843F163
:1045B000000384F31188BFF36F8F1046194610BDB6
:1045C000B801002038B5064C064DAC4201D300209E
:1045D00038BDD4E90112204602F0EAF91434F4E7B8
:1045E000B4000020B400002029B1012914BF6FF0ED
:1045F0001500022070470120704770472DE9F743EE
:104600000E4617469946044628B94FF0FF384046F3
:1046100003B0BDE8F0830029F7D0002AF5D0CB68BD
:104620000D891D4404230DEB03022946384601F091
:1046300013FC80460028E8D1BDF80410738946F6C3
:104640000812914223D1BDF806109942DDD104230E
:104650000DEB03022944384601F0FEFB0028D4D1BB
:10466000BDF8042046F607139A42CED19DF82830B3
:10467000A3727389BDF80620A4F808902B44E36068
:1046800004351344C4E9006763612561BFE7002B6B
:10469000E6D0BAE72DE9F7430F4690461E4604469A
:1046A00020B94FF0FF3003B0BDE8F0830368002B62
:1046B000F7D04368002BF4D04FF6FF79D4E90423F8
:1046C0009A4216D223685B8923B1E368934204BF00
:1046D000043323610423216960680DEB030201F0B8
:1046E000BBFB0028DDD1A37A256923B1E368AB4287
:1046F00001D80120D7E72189BDF80630494503F1EB
:10470000040203D0BDF804C08C450BD116B1BDF82E
:104710000410318004353D60A8F80030236913444B
:104720002361C0E715442561C8E773B50C4606460A
:104730001146022301AA204600F06FFA0546E8B9A7
:10474000019A1F2A0ED92368A2F1200119442022C0
:10475000304601F0C3FC2368019A134423602846C5
:1047600002B070BD0146C2F12002304601F0E1FC0A
:10477000019A2168C2F120003044EAE76FF0020597
:10478000EDE72DE9F74306460F4690461D4601F03A
:10479000CFFB082804461ED8304601F0D2FBAC42BD
:1047A00038BF2C468146E4B22A464146684601F0AD
:1047B00095FC621B49460DEB050001F0BAFC23464F
:1047C0006A463946304601F064FB003818BF0120C4
:1047D00003B0BDE8F0834FF0FF30F9E701F06EBCA5
:1047E0004FF4C0735843303070470B78013B012BB6
:1047F0008CBF4FF0FF304FF4C070704710B50446C7
:1048000001F096FBA3684FF4C072303B02FB1030FE
:1048100010BD07B58168012301AA20398DF8043045
:10482000FFF7AFFF03B05DF804FB13B50446019139
:1048300001F04CFF0423A0F108010DEB0302204618
:10484000FFF79FFF02B010BDF7B5054600200C46EC
:104850001746FFF7C9FE6946C0B2FDF701F930B14E
:104860000125009801F0F7FA284603B0F0BD2C218D
:1048700001FB045400982189E368CE1804230DEB52
:104880000302314601F0E8FA05460028E8D1BDF8F8
:104890000420648946F608139A421AD1BDF80630FE
:1048A0009C4201D00325DCE7042300980DEB0302B2
:1048B000A11901F0D1FA0028D2D1BDF8042046F6A2
:1048C00007139A42EED1BDF80610214431443960F5
:1048D000C7E7002CF1D0E5E7F8B513460F461646BA
:1048E000002102460546FCF7D9F9044650B9334683
:1048F00005F12C0201212846FCF7D0F910B1002F58
:1049000018BF04462046F8BD37B5426A04468025E4
:1049100001A901200195FDF7B7F848B9019B226D67
:10492000A36201A902200195FDF7AEF8054608B182
:10493000012505E0019B206A636501F0F9FAE06555
:10494000284603B030BD0123036003F10123436017
:104950000023C0E9023370474379012B07D1036874
:10496000012B04D10079431E584258417047002062
:1049700070477FB506460D46012001A9FDF770F886
:1049800038BB0198FFF73AFFF16D0446284600F066
:10499000E4F80444019801F0CBFA0646019801F0CE
:1049A000D0FA082201460DEB020001F0C2FB2B7980
:1049B0008DF8083021460198334602AA01F069FAC1
:1049C000041E18BF0124019801F045FA204604B0E6
:1049D00070BD0124F7E701F085BA2DE9F8430E46D2
:1049E000002107460846FFF7FFFD0121044600208D
:1049F000FFF7FAFD33789C4220D0984220D1012461
:104A00002C2303FB0474F86DA56AFFF7E9FE013D52
:104A100080460027636A03EBC50253F83510D2F8CD
:104A200004901B684A46C91A30464F44FFF7D3FF2B
:104A3000B84505F1FF35EDD8BDE8F8830024DFE780
:104A40000120F9E737B515460C460220694601F00A
:104A500081FEE979012903D00022204601F08EFE73
:104A60009DF80330012B02D1204601F063FEA968B6
:104A70002046FFF7DAFE2046FEF788FD002003B04F
:104A800030BD73B50D460646FCF7F0F90446E86004
:104A900038B102282FD101A90120FCF7E1FF18B19C
:104AA0000124204602B070BD01982A463146FCF729
:104AB00043F90446D8B9019801F008FE01230146E4
:104AC0000DF10302019801F0C7F904460028E7D16F
:104AD000019801220DF1030101F009FE10B101233B
:104AE0008DF803309DF8033003F00F03EB7101984C
:104AF00001F0B1F9D5E70724D3E713B5012001A9E7
:104B0000FCF7AEFF48B90198FFF783FE0446019811
:104B100001F0A1F9204602B010BD0124FAE71FB54B
:104B2000012001A9FCF79CFFA8B9019802A9FEF792
:104B30003BFD044668B99DF80B30032B03D1019867
:104B400001F0F8FD0446019801F085F9204604B013
:104B500010BD0124F7E70124F8E730B54379046874
:104B6000012B08BF0122037918BF022201FB02F2C8
:104B700004F1FF3403F1FF3302FB04F214BFCD0153
:104B8000002501FB0321481930BD036870B5CD1A1B
:104B9000002D0DDD93F900601C78002E0BDB5C1CF2
:104BA00004601B7813600368C91A13688B4232D9FA
:104BB0006FF05F0070BD04F07F04013C032C27D828
:104BC000DFE804F00209121E012DF1D05C781460B8
:104BD00002330360E7E7022DEADDB3F8014064BA6F
:104BE000A4B214600333F4E7032DE1DD9C785D7813
:104BF000240244EA0544DD782C4314600433E8E7DA
:104C0000042DD5DDD3F8014024BA14600533E0E764
:104C10006FF06300CEE70020CCE770B404680E1B91
:104C2000002E07DD26789E4208D10134046070BC56
:104C3000FFF7ABBF6FF05F0070BC70476FF06100B3
:104C4000FAE738B5032304461546FFF7E6FF58B9DF
:104C500013685A1E012B2A6004D923685A1C22604B
:104C60001B780BB16FF0670038BD2DE9F743904614
:104C70001F4601AA302305468946FFF7CEFF0446AA
:104C8000F8B92E68A9EB0609B9F1000F35DD0199D5
:104C9000337842460E4442F8043B31460623284608
:104CA000FFF7BBFF044660B92A68D8F80410C8F8BB
:104CB00008205318B3422B6007D10C213846FCF76B
:104CC0006BFA204603B0BDE8F083515C3A460133ED
:104CD00042F8041B28462B603146FFF756FF044676
:104CE0000028EED12B687A68BB601344B3422B6076
:104CF0000CBF04466FF06504E3E76FF05F04E0E784
:104D0000F0B500240646204665B2AB4200DCF0BD9B
:104D100051F8247052F824503D440544AF428CBFF2
:104D20000127002746F8245018BF38460134EBE726
:104D300000EB81010023884200D3704751F8042D15
:104D400043EA52030B60D307F5E7036870B513F02D
:104D500001060546144605D013460A460146FFF7EC
:104D6000CFFF064621462846FFF7E2FF46B104F191
:104D70008042013A55F8223043F0004345F8223092
:104D800070BD2DE9F04F002587B0CDE900122C460B
:104D90002A464FFA85F8434516DC4FF0FF3505EB00
:104DA000430502954FF0000A029E53FA8AFE4FFA1D
:104DB0008EFEB6455FFA8AF52DDB00EBC30040F8A6
:104DC000042C07B0BDE8F08F019E4FF0000C06EBFD
:104DD0008509E646CDE90224009959F8047951F88D
:104DE0002C60DDE90212A7FB06AB1AEB01060CF101
:104DF000010C5BEB02074FFA8CFA2CBF0122002258
:104E0000C24596443C463246E4DD40F825603A46C9
:104E100001357446BDE701350099019E4FFA85FCC6
:104E2000AEEB0C0B01EB8C0506EB8B0B2146002443
:104E30009C4505DB40F82E200AF1010A0A46B3E73B
:104E4000CDE9042155F8047B5BF80469DDE904121F
:104E5000A7FB066716EB010857EB02092CBF0122DE
:104E600000220CF1010C1444494642464FFA8CFCD6
:104E7000DEE7002310B51C465AB2914200DC10BD9B
:104E800040F823400133F7E710B500231A465CB21F
:104E9000A14203DCB2FA82F0400910BD50F8234071
:104EA00001332243F3E74A11012350F8220001F0B5
:104EB0001F0103FA01F10840704701394BB2024665
:104EC00000EB8301002B03DA013358B238B9704785
:104ED00051F804090028F7D1013B5BB2F2E700F179
:104EE0008043013B52F82320002322B9013803EB11
:104EF000401000B2704752080133F6E710B50023A6
:104F00005CB2A24200DC10BD51F8234040F82340BF
:104F10000133F5E730B5013A53B29A00002B01DABC
:104F2000002030BD85588C58A54205D8A2F1040256
:104F300004D3013B5BB2F1E70120F2E74FF0FF3011
:104F4000EFE7013A53B270B59A000024002B03DA60
:104F5000201E18BF012070BD85588E58013B75403A
:104F60002C435BB2043AF1E7F0B5002406469C46B8
:104F7000204665B2AC4500DCF0BD51F8247052F813
:104F800024303D1AED1AAF4234BF0127002746F8FE
:104F9000245018BF38460134EBE770B59DF9106016
:104FA0001D4633460446FFF7ABFE30B93246214674
:104FB0002846FFF7AFFF012807D033462A4621468F
:104FC0002046BDE87040FFF7CFBF70BD70B59DF9BA
:104FD00010601D4633460446FFF7C6FF38B133461E
:104FE0002A4621462046BDE87040FFF789BE70BDC5
:104FF0002DE9F04FA5B01D4614ABCDE90231804636
:10500000294610461646FFF758FFC0EB851424B218
:10501000002C2146B8BF04F11F01634241F3471140
:1050200003F01F0304A804F01F0758BF5F42FFF7F7
:1050300020FF002F08B22BDD04AB002203EB800120
:10504000C7F1200E13469D4217D86B00019304ABA5
:1050500003EB85096F1E24AB012603EB8707002CA9
:1050600054DA24AB03EB86062A4656F8881C4046E1
:10507000FFF744FF25B0BDE8F08F56F823C00CFAC7
:1050800007F0024341F8042B01332CFA0EF2DAE761
:1050900004AB2A46314603EB8000FFF72FFFD4E72D
:1050A0000FFA82FE5AF8883C53F82EB024AB03EB7B
:1050B0008202013052F8803C0B44BBEB030334BF47
:1050C000012200229B4518BF11465CF8882C42F84B
:1050D0002E30019B42B29A42E2DB731A5E422946AD
:1050E00004A85E41FFF724FE24AB03EB85032946A9
:1050F00053F8802C57F8803C484643EAC273013C81
:1051000047F8803C24B2FFF713FEA8E724AB002049
:10511000C6F1010C014603EB860A03EB8C0CD8E7C1
:1051200030B591B004461D4668469DF95030FFF7F2
:1051300028FE2A4669462046FFF75AFF11B030BDC7
:1051400030B51C4691B0054693F900306846FFF72C
:1051500018FED4F8AC3069462846984711B030BDE7
:1051600013460A46FFF7ECBF2DE9F04793F90060BC
:1051700092B0044689461046314615461F46FFF751
:1051800083FE002840F091803A46494602A8FFF786
:10519000E7FF3B4602AA21460AA8FFF7D1FF02A972
:1051A00008463A46FFF7DCFF3B462A464946484652
:1051B000FFF7C6FF07F104083A4629462846FFF7DD
:1051C000CFFF43462A46214620460096FFF7E5FEDC
:1051D00043462A46294628460096FFF7DEFE434608
:1051E0002A46214628460096FFF7F0FE3B462A460F
:1051F00021462046FFF7A4FF434622462146284683
:105200000096FFF7CAFE434600962A4621462046EE
:10521000FFF7C3FE2368DB074AD5334642462146E3
:105220002046FFF76DFD314682462046FFF780FDA0
:1052300006F18043013B54F8232042EACA7244F845
:1052400023203A4621462846FFF78AFF43460AAA0A
:10525000294628460096FFF7B9FE43460AAA294682
:1052600028460096FFF7B2FE0AA9084643462A469A
:105270000096FFF7ABFE3B460AAA21462046FFF701
:105280005FFF02AA4346104621460096FFF79EFEA6
:10529000324629462046FFF731FE49462846FFF7A9
:1052A0002DFE02A94846FFF729FE12B0BDE8F0879F
:1052B00031462046FFF73CFDC3E72DE9F041154696
:1052C0008AB004460E461C22002103A800F031FFDC
:1052D0002F1D95F9008003232A463146204602936C
:1052E000FFF73EFF3B4602AA21462046CDF800804C
:1052F000FFF76CFE2B46324621462046FFF720FF83
:10530000CDF800803B4605F1840221462046FFF798
:1053100044FE0AB0BDE8F081F0B50F46A1B00646E4
:105320001946384615461C46FFF7AEFD20B13046FB
:10533000FFF79FFD21B0F0BD224639466846FFF7D2
:10534000DDFD294608A8FFF7D9FD10A82146FFF783
:1053500090FD012318A81093FFF78BFD224608A9A2
:105360006846FFF7D7FD28B9224610A93046FFF757
:10537000C5FDDFE7009BDA0709D421466846FFF741
:10538000D7FC2246294610A8FFF7DFFCE6E7089B7A
:10539000DB0707D4214608A8FFF7CAFC22462946A6
:1053A00018A8F1E7002823461CDD08AA69466846CC
:1053B000FFF7DAFD21466846FFF7BAFC224618A936
:1053C00010A8FFF7A7FD002805DA10A923462A46F2
:1053D0000846FFF795FC10A9234618AA0846FFF7D0
:1053E000C3FDCEE708A96A460846FFF7BDFD214682
:1053F00008A8FFF79DFC224610A918A8FFF78AFD10
:10540000002805DA18A923462A460846FFF778FC43
:1054100018A9234610AA0846FFF7A6FDBEE7F0B577
:10542000154689B01C4607460E461A462946684668
:10543000FFF796FE23466A4639463846FFF780FE58
:1054400023462A4669466846FFF77AFE23466A469F
:1054500031463046FFF774FE09B0F0BD2DE9F04744
:105460008AB01446DDF848A055461F4615F9046B6E
:105470000096804689462B460246214602A8FFF741
:10548000A5FD02A952460846FFF76AFE534602AA46
:1054900041464046FFF754FE534602AA21462046A5
:1054A000FFF74EFE2B464A46394638460096FFF730
:1054B0008DFD5246394602A8FFF752FE02A92B463F
:1054C000424608460096FFF781FD02A92B46224678
:1054D00008460096FFF77AFD2B46424621462046B5
:1054E0000096FFF773FD5346224649464846FFF7AC
:1054F00027FE2B4602AA414620460096FFF766FD8E
:105500005346224639463846FFF71AFE2B464A468E
:10551000394638460096FFF759FD324602A9204623
:10552000FFF7ECFC0AB0BDE8F087F8B50E46D11CD9
:1055300048BF911D41F387011446FFF79AFC0025EF
:10554000671E6AB2A24205F1010500DBF8BDBB1A75
:1055500023F00301B25C03F00303DB0002FA03F360
:1055600042581A434250ECE72DE9F0479846B3F908
:105570000230894613F11F0148BF03F13E01DD1DD2
:1055800048BF03F10E05EC104E11944275B228BFCE
:10559000144607462946FFF76CFC22464946384622
:1055A000FFF7C3FFB8F90230B3EBC40F4FEAC402F0
:1055B00021D2D21A07EB86010020C2F120068F42C9
:1055C00010D308F124082A4639464046FFF7A2FCCA
:1055D000012810D02B46424639463846BDE8F047F0
:1055E000FFF7C2BC51F8044D24FA02F303430B60E9
:1055F00004FA06F0E3E7BDE8F0872DE9F04FFDB0CF
:105600001D46869E0591B6F9023096F900409146F6
:1056100013F11F0248BF03F13E0242F3471B0BF197
:10562000FF3824AA002342F828307CAA02EB880223
:10563000014642F8C03C42F8A03C074696F90120DA
:105640006CA8FFF772FFA30096F9012007936CABDB
:1056500003EB840AB9185046FFF767FF96F901205B
:1056600029464CA8FFF761FF96F9012054A8A91814
:10567000FFF75BFF21464CA8FFF706FC18B100209E
:105680007DB0BDE8F08F214654A8FFF7FDFB0490E4
:105690000028F4D106F124035A464CA91846039376
:1056A000FFF738FC0128EAD103985A4654A9FFF7BE
:1056B00031FC01280690E2D11CAD0CAF039A5B4689
:1056C00054A92846FFF728FE049B47F828304A468D
:1056D000384605993346FFF747FF39463846039B5E
:1056E000CDF800B02A46FFF71BFD0DF5B878039BF7
:1056F000CDF800B02A464CA914A8FFF711FD40468A
:1057000022466CA9FFF7FAFBA30008EB03095146F8
:10571000484606F1440A2246FFF7F0FB514622466E
:1057200034A8FFF7EBFBA3000AEB030122463CA8D9
:10573000FFF7E4FB331D414634AA28460094059345
:10574000FFF744FC4B4642463CA934A80096FFF7BD
:1057500085FE2346321D29462846FFF7DDFD2A46F1
:10576000494640463346FFF75AFE049B5946CDE969
:10577000083A38466CABCDE90A38FFF79EFB59462C
:10578000804614A8FFF799FB8045B8BF80460FFA02
:1057900088F808F1FF3A0FFA8AFA51463846FFF7BF
:1057A00082FB5146071E14A818BF0127FFF77BFB99
:1057B000002814BF022000200DF1200907432246D3
:1057C00059F8277024A83946FFF798FB0DF1B00A65
:1057D000A300F91822465046FFF790FB21462846C1
:1057E000FFF747FBA8F10208069B2B600FFA88F829
:1057F0000DF19009B8F1000F21DA059A23462946E8
:105800002846FFF789FD33462A4651464846FFF7AA
:1058100006FE03985A464946FFF77CFB012805D04F
:10582000039A5B4649464846FFF79EFB22464CA931
:105830004846FFF786FBB0FA80F0400920E7334680
:105840002A46D6F8A47051464846B84741460CA8A7
:10585000FFF729FB4146071E14A818BF0127FFF7D1
:1058600022FB002814BF02200020074308AB53F896
:10587000277027B32246394634A8FFF73FFB079B22
:105880002246F9183CA8FFF739FB33462A463CA9C3
:1058900034A8FFF7C4FD059B009434AA494644A8E8
:1058A000FFF794FB53464A463CA934A80096FFF7FD
:1058B000D5FD334644AA29462846FFF741FC08F1A6
:1058C000FF380FFA88F895E7F8B50C4610B1F9B132
:1058D0000AB90120F8BD8D1800F128070026A5425D
:1058E000F7D0836E5A1C8266034414F8011B83F8B8
:1058F00028103F2AF3D93946FBF72AFDD0E90832B0
:1059000013F5007342F10002C0E908328666E6E74B
:105910000846DFE770B50C460546002855D000293B
:1059200054D0896ED4E90823C800121843F100034B
:10593000481C2144C4E9082338284FF08003A0669E
:1059400004F1280681F828300BD9C0F1400200216B
:10595000304400F03DF831462046FBF7F9FC0023C7
:10596000A366A06E0021C0F13802304400F030F888
:10597000236A1ABA636A62661A0A84F8633084F882
:1059800062201A0C1B0E84F860303146204684F8E1
:105990006120FBF7DDFC261F2B1D05F1240056F8C6
:1059A000042F03F8012C110E03F8041C110C03F84A
:1059B000031C110A03F8021C04338342EFD1204672
:1059C0007022002100F004F8012070BD0846FCE7B9
:1059D00000F0AFBB034658B1426802F00302012A4F
:1059E00003D0032A04D1026812B1002098607047E6
:1059F0006FF0150070474268816002F00302032ACD
:105A00004FF0000203460CBF006810465A60704712
:105A1000002070470FB407B504A951F8040B019199
:105A2000FBF7B6FD03B05DF804EB04B07047038BE1
:105A300013F0070305D10368002B0CBF00200320DF
:105A40007047022B05D1438B002B14BF002004208C
:105A50007047012B05D10368002B0CBF00200520E7
:105A60007047002070472DE9F0410D460746194662
:105A7000281D90461E46FFF7BEFF044638B1334648
:105A8000424629463846A446BDE8F0416047BDE895
:105A9000F08110B44FF02004EFF3118284F31188E9
:105AA000BFF36F8F416110BC0121FBF77FBD10B5C3
:105AB0000C4640B139B1081DFFF78CFF28B9A36827
:105AC00033F0030301D06FF0150010BD38B50C465C
:105AD000054658B151B10B6843B14B6833B11C2234
