:100000006057002081330000B19600005533000096
:100010005533000055330000553300000000000048
:10002000000000000000000000000000813000001F
:1000300055330000000000002D300000839B0000BD
:100040003131000031310000313100003131000028
:100050003131000031310000313100003131000018
:100060003131000031310000313100003131000008
:1000700031310000313100003131000031310000F8
:1000800031310000313100003131000031310000E8
:1000900031310000313100003131000031310000D8
:1000A00031310000313100003131000031310000C8
:1000B00031310000313100003131000031310000B8
:1000C00031310000313100003131000031310000A8
:1000D0003131000031310000313100003131000098
:1000E0003131000031310000313100003131000088
:1000F0003131000031310000313100003131000078
:1001000053B94AB9002908BF00281CBF4FF0FF317E
:100110004FF0FF3000F074B9ADF1080C6DE904CE7A
:1001200000F006F8DDF804E0DDE9022304B07047D2
:100130002DE9F047089E0D4604468846002B4DD118
:100140008A42944668D9B2FA82F252B101FA02F3B5
:10015000C2F1200120FA01F10CFA02FC41EA030885
:1001600094404FEA1C45210CB8FBF5FE1FFA8CF7B2
:1001700005FB1E8341EA03430EFB07F199420BD9AD
:100180001CEB03030EF1FF3080F01E81994240F218
:100190001B81AEF1020E63445B1AA4B2B3FBF5F00F
:1001A00005FB103344EA034400FB07F7A7420AD9D2
:1001B0001CEB040400F1FF3380F00881A74240F2F9
:1001C000058164440238E41B40EA0E4000211EB160
:1001D000D4400023C6E90043BDE8F0878B4208D92C
:1001E000002E00F0EE800021C6E900050846BDE8BB
:1001F000F087B3FA83F100294AD1AB4202D382429D
:1002000000F2F980841A65EB030301209846002E62
:10021000E2D0C6E90048DFE702B9FFDEB2FA82F2B7
:10022000002A40F09180A1EB0C054FEA1C471FFA11
:100230008CFE0121B5FBF7F307FB1350250C45EAB3
:1002400000450EFB03F0A84208D91CEB050503F19D
:10025000FF3802D2A84200F2CB8043462D1AA4B246
:10026000B5FBF7F007FB105544EA05440EFB00FE12
:10027000A64508D91CEB040400F1FF3502D2A645BF
:1002800000F2BB802846A4EB0E0440EA03409EE740
:10029000C1F120078B4022FA07FC4CEA030C20FA3C
:1002A00007F405FA01F31C43FD404FEA1C4900FA2C
:1002B00001F3B5FBF9F8200C1FFA8CFE09FB185569
:1002C00040EA054508FB0EF0A84202FA01F20BD9FC
:1002D0001CEB050508F1FF3A80F08880A84240F247
:1002E0008580A8F1020865442D1AA4B2B5FBF9F087
:1002F00009FB105544EA054500FB0EFEAE4508D942
:100300001CEB050500F1FF346CD2AE456AD902380A
:10031000654440EA0840A0FB0294A5EB0E05A54207
:10032000C846A64656D353D05EB1B3EB080265EB80
:100330000E0505FA07F722FA01F3CD401F43C6E97F
:1003400000750021BDE8F087C2F1200320FA03F117
:100350000CFA02FC25FA03F395400D434FEA1C47C3
:100360001FFA8CFEB3FBF7F107FB11302B0C43EAAD
:10037000004301FB0EF0984204FA02F408D91CEB8A
:10038000030301F1FF382FD298422DD9023963447B
:100390001B1AADB2B3FBF7F007FB103345EA034578
:1003A00000FB0EF3AB4208D91CEB050500F1FF384A
:1003B00016D2AB4214D902386544ED1A40EA014125
:1003C00038E73146304607E78646E5E61846FAE65E
:1003D0004B45A9D2B9EB020864EB0C0E0138A3E738
:1003E0004046EAE7204694E74146D1E7D0467BE71E
:1003F000023B654432E7084609E76444023842E7B5
:10040000704700BF7FB5414B414AC3F800264148C1
:10041000C3F804264921C3F80826C3F80C26C3F8FC
:100420001026C3F81426C3F81826C3F81C2608F0B3
:100430002CFF07F08DF9384800F084F828B9364AC7
:100440003648452108F021FFFEE7354805F01EFF3C
:10045000044602698168136823F4006313600B6823
:100460004FF488720B219847A36801A95B68204666
:10047000984748B9019B1B0506D401F0B7FF78B136
:100480002848452108F001FF01A800F05FFC264B39
:100490001B68834211D02548452108F0F6FEFEE78F
:1004A0002348492108F0F1FE4FF0FF304FF0FF31B3
:1004B00002F04AFC1F484921E4E7039A1E484921FB
:1004C00008F0E3FE1D48492108F0DFFE69469DF86B
:1004D000080000F043F8009B039C1C44019B1D890D
:1004E00009F050FB66194FF02002EFF3118382F3FD
:1004F0001288BFF36F8F635983F308887368984736
:100500000F48452108F0C1FEFEE700BF0000014092
:100510003546526EE0AE0000F9AE00000CAF0000B0
:100520002BAF000032AF0000A406002081AF000016
:1005300049AF000062AF0000A4AF0000D3AF0000DD
:10054000F8AF000010B5044C236813B905F09EFE07
:100550002060206810BD00BFA006002008B502463C
:1005600038B105480023452108F08FFE6FF01500D3
:1005700008BD0860FCE700BF1BB000002DE9F04F8C
:10058000D9B0DDE96448DFF8C8A138A8DAF800601E
:1005900017461D4601F032F83CB1B8F1000F04DDFA
:1005A0004246214638A808F0FEF97B89B7F8088052
:1005B0009844FB684FF000099844C84549D838A9C9
:1005C0000CA808F016FA669B23B120220CA9184645
:1005D00009F099F8002300932A464FF6FF73394635
:1005E00006A807F0B6F80446002840F0AB80DFF814
:1005F000649180464FF0FF370DF1120304AA05A95C
:1006000006A807F0F2F8041EC0F29C8040F08D802E
:10061000BDF81230102B33D1BDF81080B8F1200F87
:1006200040F08E800599434638AA284608F0B4FE6B
:100630000446002840F08680424638A90CA807F0FE
:100640004BF90446444B1B6883427BD14FF00108B1
:10065000D2E7DDF88CB1629AA8EB09039B4528BF6D
:100660009B465B464946284608F096FE044600280D
:1006700068D162995A4638A808F095F9D9449CE7A0
:10068000012B32D1BDF81030202B59D8059938AA4A
:10069000284608F081FE0446002853D19DF810B08A
:1006A000BBF1200F03D94FF0FF342746A4E7D9F858
:1006B00000302A4F0393039B9C42F4DA1CA800F0FD
:1006C0009DFF7A6857F8081B12681CA808F06BF9A0
:1006D0001CA914A808F08DF95A4638A914A809F0E5
:1006E00001F80028E1D00134E5E7222B84D1002F66
:1006F00018DBD9F80030BB4214DDBDF81030802B78
:100700001ED8059938AA284608F046FE0446C8B9FE
:10071000FFB2BDF81030009738AA20210CA800F0D5
:100720001FF806464FF0FF3766E7B8F1000F0DD00F
:10073000094B1B68B34201D0DAF80060344601E08F
:100740004FF0FF34204659B0BDE8F08F0124F9E79F
:100750000000002068AB0000A40600206CAB000085
:100760002DE9F04198B017461D469DF87820394B89
:100770000E4653F83210039103EBC20380465B68C8
:10078000186804AA0144302303A807F0B9FA10B18D
:100790004FF0FF305AE0DDE903431C4405AA08ABE3
:1007A000214603A807F0D4FA0028F1D1069A072AB7
:1007B000EED12949079808F095FF0028E8D1099A59
:1007C000082AE5D125490A9808F08CFF0028DFD1D6
:1007D00004AA214603A807F0A7FA0028D8D1DDE92A
:1007E000033213449C42D3D1412AD1D13D4430231A
:1007F00005AA294604A8049707F082FA0028C7D161
:10080000DDE9043213449D42C2D32A4604A908A854
:1008100007F036F80028BBD12A4604A910A807F033
:100820002FF80028B4D1202EB2D1039C2378042BBA
:10083000AED100F0F7FD08AB009032464146601C97
:1008400007F046FF013818BF4FF0FF3018B0BDE881
:10085000F08100BF6CAB000041B0000049B0000067
:100860002DE9F04186B00123DFF87080ADF800304B
:100870000D466F46002617F8010B01A902F0A8FAF1
:100880000446D8B901988168102302AA103908F0EB
:1008900083FD044628B1019808F07DFD0EE0012695
:1008A000E9E71022414602A808F01CFF50B1019868
:1008B00008F071FD002EF2D04FF0FF34204606B054
:1008C000BDE8F081019809F089FA0423A0F108013C
:1008D0002A46019808F060FD0446DCE794AE00006B
:1008E0002DE9F041384B88B0064600200D461C68C3
:1008F00006F025FF06A9C0B202F06AFA002857D117
:10090000294606F01CFF2C2407A9C0B204FB05648D
:1009100002F05EFA002836D04FF02C0808FB05F8EC
:1009200006EB0807396911F0100137D14FF48073D5
:100930000193264B00932246CDE90311069B0291B9
:100940000846FFF71BFE0446214B56F80820069880
:100950009A420CD13A89FB68D1438B4207D81344A1
:100960008268934203D21B4B1B68A3421DD045B340
:100970008268002108F05FFD174A1848452108F0F9
:1009800084FC012411E0079808F090FD07460798C1
:1009900008F001FD631EE21C93420DD1002DF0D042
:1009A0000699304607F08CF82C46069808F0F3FCC0
:1009B000204608B0BDE8F08113F8011FB942EBD022
:1009C000AAE7074AD9E700BF00000020082A002054
:1009D0003DB8F396A406002052B0000064B00000B9
:1009E0005CB0000073B50D46044600212846CDE9F1
:1009F000001107F024F830B3164E2368B34203D138
:100A000001AA204606F0AFFFE36AB34204D16A466A
:100A10000121204606F0A7FFDDE90032934288BF9E
:100A20000193019BAB60019A2946204600F034FBFC
:100A3000094B1A68002A03DD0848572108F025FCF5
:100A4000002002B070BD05F10801FFF709FFAB6897
:100A50000193E8E73DB8F396081B00208CB0000036
:100A60002DE9F84FDFF870B01C4C1D4D88469146BB
:100A70009A4600260B9B9E4201D300200FE00B9B61
:100A8000154A9F1BB7F5806F28BF4FF480673B4620
:100A900006EB0A01404608F07FFC10B10120BDE8DA
:100AA000F88F0A993B465A467118484608F090FC60
:100AB0000028F3D1C4F800563E44C4F80456C4F8E4
:100AC0000856C4F80C56C4F81056C4F81456C4F8A6
:100AD0001856C4F81C56CDE7080700200000014056
:100AE0003546526E2DE9F043904B85B004466022A6
:100AF0000F4600211E6808F011FE8D4B6362002135
:100B00008C4B2365084606F01AFE04F12001C0B2A2
:100B100002F05EF90121002006F011FE04F14C0103
:100B2000C0B202F055F90546204606F05DFF80464A
:100B300068B900221146204606F0FDFE804608B343
:100B40007D480022572108F0A0FB012392E07B485A
:100B50004FF48072572108F098FB0123984584F8E0
:100B60005830E6D194F858308DF80730042B00F255
:100B70008480012B00F2888000F09F80FF2384F89E
:100B800058309AE0204600F09DF90028DDD06846F4
:100B900006F04CFF6946204606F0E7FF18B16848AA
:100BA00042465721CFE7684606F049FF80F0010131
:100BB0006A46C9B2204606F0BEFE02460028BFD1F2
:100BC000684606F03CFF804660BB69462046FFF75A
:100BD00009FF9DF8073084F85830033B012B06D8F5
:100BE000404607F010F810B1FF2384F858309DF804
:100BF0000730023B022B0BD8002006F0F2FF38B181
:100C0000FF2384F858304F48452108F03EFBFEE7AB
:100C100094F85830FF2BF6D06A460021204606F0A3
:100C20008AFE92E79DF80790B9F1010F17D110469F
:100C300005F08CFA831E022B80460DD849462046CB
:100C4000FFF74EFE404B1B68984205D001280CBFB1
:100C50004FF001084FF0050884F8588082E7012121
:100C60002046FFF73DFE384B1B6898420CBF9DF8AD
:100C70000730052384F8583074E7052B7FF47EAFE6
:100C8000002006F0C0FF13E069462046FFF7AAFEE9
:100C900094F85830DA1E012A05460CD8002006F0D8
:100CA000B2FF054600287FF469AF002006F099FFE7
:100CB000054610B162E7022BF7D094F85830FF2BAD
:100CC00004D12048452108F0E0FAFEE7012B06D0C8
:100CD0006A460021204606F02EFE0546C0B90021D6
:100CE0002046FFF7FDFD0646DFF85C80D8F80030AF
:100CF00098420DD110220021684608F00FFD236AAA
:100D0000D8F800605A783A715B68BB603C60002597
:100D1000E06C08F040FB206A08F03DFB002D14BF9A
:100D20002846304605B0BDE8F08300BF0000002033
:100D3000080B002008130020FDB00000BBB000002D
:100D400029B1000053B10000A406002008B50146F7
:100D50000148FFF7C7FE08BDA806002073B5164678
:100D60001C4633B3436A5D686379012B15D101BB1F
:100D70001F4B22681B689A4298BF0025002006F08E
:100D8000DEFC01A9C0B202F023F8F0B10125019800
:100D900008F001FB284602B070BD022B09D1236880
:100DA000012B08D9124A1268934202D8B1FA81F194
:100DB00049090025E2E7FCD10029DFD00129F8D15B
:100DC0002179023918BF0121F3E729460198202330
:100DD000324608F0E1FA05460028D7D1002CD6D0DB
:100DE000356804482D1A18BF4FF0FF35CFE700BF14
:100DF000040000203DB8F3962DE9F04F074685B07A
:100E00000C4601460020164606F06DFD051E52DB1D
:100E10003846E46D06F070FD5FFA84F905F1FF389D
:100E200009FB08084FF0000A4FF0010B4FF0FF34A8
:100E30009DB9BAF1010F03DD2148452108F025FADB
:100E4000631C06D0FF2C2ADC013440F2011334600D
:100E5000B380284605B0BDE8F08F6B1E00930DF1FE
:100E60000F0201234146384608F096FA031E01930B
:100E700023DB01220DF10F01384608F0C0FF019B72
:100E800040B15B4501D00AF1010A009DA8EB0908B9
:100E90009B46CDE7B4F1FF3F08BF2C46F5E70223A0
:100EA000A4F580747371631004F0010401330134FC
:100EB00033603471CDE70725CBE70125C9E700BFD3
:100EC0005FB10000816A426D8A4238B508D0531C78
:100ED0008B4205D01448572108F0D7F9002038BDBF
:100EE000B1F5807F1CD911485721F5E7446A056D9B
:100EF00004EBC30405EBC30564686D68AC4202D023
:100F00000B485721E8E701339A42EFD1914205D9C6
:100F1000436A03EBC2025368A342F1D10120DEE72A
:100F200000231C46F0E700BF82B10000BAB1000008
:100F3000E9B1000000B589B004A9012008F0C2FFA2
:100F40009DF81020012A41D0254B2649032A18BFBD
:100F50000B469DF8132002929DF8122001929DF8F5
:100F60001120214800924921204A08F08EF906A953
:100F7000022008F0A7FF9DF81820012A28D0184B5E
:100F80001849032A18BF0B469DF81B2002929DF8B2
:100F90001A2001929DF8192000921348144A492101
:100FA00008F073F99DF81030012B13D19DF8123021
:100FB000032B0FD19DF81830012B0BD00D48492180
:100FC00008F063F9022009B05DF804FB0A4BC0E7A2
:100FD000094BD9E70948492108F057F90020F2E701
:100FE0001AB2000020B2000032B2000024B20000A9
:100FF00073B2000083B2000015B20000A2B200007C
:1010000070B54B6814461E4A03F0FF23934286B026
:1010100006460D462FD10B68012B2CD104A9204682
:1010200005F044F89DF81020012A26D0154B1649EA
:10103000032A18BF0B469DF8132002929DF8122038
:1010400001929DF8112000921048114A492108F0A0
:101050001CF99DF81030032B0DD12146304606F0C7
:101060002FFD204608F025FFA968204606F054FC15
:10107000204605F00DF806B070BD064BDBE700BF5B
:10108000000100041AB2000020B2000032B20000D9
:1010900073B2000015B200002DE9F04F436A0C4610
:1010A0005E6889B005460121002333449A42084610
:1010B00001F10101F9D8724B1860204606F0BFFC1F
:1010C000B8B1E86D06F00AFCAB6A0022013B32447D
:1010D000904201D9013BFAE7694A12689A4208D363
:1010E0006848572108F0D1F80123E37109B0BDE841
:1010F000F08F06A9012001F06BFE07A9022001F084
:1011000067FE079A21462846FFF77AFF6379012B8D
:1011100008D15B4BDFF870B11F68594B1B68A7B94A
:10112000012323604FF00203DFF85C816371012724
:10113000534BDDF818901B689F424AD9484608F087
:101140002AF9079808F027F9D0E7226801339B1A9B
:101150009F423CD86B6ADDF81880196853F8370055
:1011600003EBC703012A53F8083CA0EB0109A3EBEA
:10117000010A12D1E268079B022A0AD0414628469A
:10118000039306F09DFC22464146284606F0CEFC1D
:10119000039B1946284606F093FC324649464046D2
:1011A00006F08CFC534642464146CDE9009628465F
:1011B000FFF756FC2146284606F04EFC2368013313
:1011C000236020B1DBF800300133CBF80030013F61
:1011D000A3E723689F4251D36A6ADDF81CA052F846
:1011E00037100491FB0011680391083B296DC85822
:1011F0000968A0EB010B217901293DD1D158039B4E
:101200003246C91A4846059106F058FC05990091E6
:101210005B464A46514601962846FFF721FC214687
:10122000284606F019FC4FF00203237120B1D8F8CC
:1012300000300133C8F8003032465946504606F0B7
:101240003DFCDDE9032349469B1ACDE900B6524631
:101250002846FFF705FC2146284606F0FDFB2368DB
:10126000013323604FF00103237138B1D8F8003007
:101270000133C8F8003001E00229DDD0013757E71B
:1012800004000020B9B20000081B0020024B0A46EF
:101290001B680021184700BF08000020F0B5082295
:1012A00089B006F093FECB6A03930B6B04934B6BF0
:1012B00005938B6B0693CB6B079313466A460C46DC
:1012C0000646002711461046CDE90177009706F043
:1012D0008AFD31460546304606F085FD216B0391B7
:1012E000616B0491A16B0591E16B0544CDE9061793
:1012F0001046114606F077FD31460544304606F0AB
:1013000072FD0544206A0090606A0190A06A029014
:10131000A06B0690E06B07903046CDE90477039709
:1013200006F061FD0544606A0090A06AD4F838C0F8
:101330000190E06A0290CDF810C0606BD4F83CC018
:101340000390CDE905C0206A0790304606F04BFDBA
:101350000544E06A0090206B0190606B0290206A67
:101360000690A06A07903046CDE90477039706F00F
:1013700063FE236B0093636B0193A36B0293E36B98
:101380000393636A0693E36A07932D1A0823304692
:10139000CDE9047706F050FE636B0093A36B0193D5
:1013A000E36B0293236A0393636A0493A36ACDE910
:1013B0000537236B07932D1A0823304606F03CFEB1
:1013C000A36B0093E36BCDE90137636A0393A36AD0
:1013D0000493E36ACDE90537636B07932D1A08235D
:1013E000304606F029FE2D1A10D40D4C35B90822CE
:1013F0003146204606F0F6FD01280FD0082322468C
:101400003146304606F018FE2D1AEFE7044A08234D
:101410003146304606F0E7FC2D18F8D409B0F0BD8F
:1014200078AB00000048704774AB00002DE9F04F26
:101430009DB0036802934368039383680493C36871
:101440000593036906934369079383690893C36906
:101450000993DDE907CBDDE905E2DDE902469846BF
:10146000DFF890A1049B00930027CD590CAB2DBA57
:10147000DD515AF8043B05EB03094FEAF22585EAF2
:10148000B21585EA72654D442BEA020302EA0C09A3
:1014900083EA09032B44009DDDF800904344754026
:1014A0004FEA743888EAB408254006EA090985EA53
:1014B000090588EAB4580437A844402F03EB0E0509
:1014C0004344DDF800E0D84640F085804A490A915F
:1014D0004FF0100A51460AF1010A0DF1700E0AF0A0
:1014E0000F070EEB870701F00F0957F8407C0197B3
:1014F0004FEAB74888EAF71801F10E0707F00F071F
:101500000EEB8707093157F8407C4FEAF74E8EEA19
:10151000774ECDF82CE001F00F010DF1700E0EEBBF
:1015200089090EEB810159F840EC51F8401C7144D7
:10153000DDF804E088EADE08DDF82CE041448EEABC
:10154000972E0A9F714449F8401C57F804EB0A97FC
:101550004FEAF52905EA020889EAB5192CEA0507D8
:1015600087EA080789EA75694F4477443944594442
:101570004FEA733784EA060B0BEA030B87EAB307DB
:1015800004EA060EDDF8008000968BEA0E0E87EA6C
:10159000B3577744BAF1400F8844E346394421D128
:1015A000029F0F44039907601944049B4160234440
:1015B0008360059B3344C360069B43440361079BE0
:1015C0002B444361089B13448361099B6344C361BB
:1015D0001DB0BDE8F08FE3460096944626462A46A5
:1015E0001C4642E7944626462A461C4645460B467C
:1015F00070E700BF24AC000064AC000010B50446E6
:10160000C8B17022002107F053FA0B4B0B4A0C496A
:101610000C48C4E900230C4BC4E902130B4BC4E98A
:1016200004030B4BA36103F17453A3F52303A3F647
:101630009243E361012010BD85AE67BB67E6096A8E
:1016400072F36E3C7F520E513AF54FA58C68059BA4
:10165000ABD9831F0B6801330B60014B1B68184724
:101660000C00002007B50B460021024601910348FB
:1016700001A900F0E5F803B05DF804FB5516000081
:101680002DE9F84FB0F8189019F008080446934671
:101690000DD001290CBF49F0100949F02009A0F82C
:1016A00018908BF31188BFF36F8FBDE8F88F09F0A6
:1016B0000709022907D1204607F045FA0028F0D093
:1016C0000128238B4ED16769218B002F15DA2568FD
:1016D00021F00701C4E9008841F0010121830026BF
:1016E000218B01F0070ACA4502D0A368002B5AD10A
:1016F0000DB9002E71D0002356E001F007035A1FE8
:10170000012A1ED821F00701062B256889B2C4E9F9
:1017100000880AD13DB1638B2A46126801339BB21F
:10172000002AFAD1638341F002012183204607F0A9
:101730000AFA06460028D3D0238B43F020032383E4
:10174000CDE7042B0CD121F0070189B2218320467B
:1017500007F0F9F905460028C1D041F020012183A6
:101760000025BCE7032809D1226923F00703166886
:1017700043F00603238300252F46B1E7042806D152
:10178000226923F00703566843F00403F2E70528B3
:1017900006D1226923F00703966843F00503E9E7C1
:1017A00000252E46E8E7012341F0080121838BF351
:1017B0001188BFF36F8FFBB985BB16B11F49204657
:1017C000B0474FF02003EFF3118B83F31288BFF380
:1017D0006F8F238B23F008032383238BDA0625D511
:1017E00023F0100323830121B4F8189009F00709AE
:1017F00000297FF45EAF54E7A1680029DCD0D1F85E
:101800000090D1F804B03B4652462046D847B9F183
:10181000000FD1D04946D9F80090F2E729463B465F
:10182000524620462D6807F0AAF9C5E713F02001BB
:101830001EBF23F0200323830221D5E7AB8B0000DA
:101840002DE9F04F8FB01E46531E01908A46029339
:101850004FF00009029B5878252803F1010421D19B
:1018600018464FF0000C4FF0FF3702306346CDF8BA
:101870000CC03C460A2502780290392A00F101008A
:1018800058D81F2A18D8002A00F0FE81019B514623
:1018900025209847029B51461878019B984709F1EB
:1018A0000209D7E7002800F0EF81019B51469847D5
:1018B00009F101090294CDE7A2F120011929E5D827
:1018C0000FF2040E5EF821F0311900008D180000AF
:1018D0008D180000311900008D180000B5190000A6
:1018E0008D1800008D1800008D1800008D18000064
:1018F000F7190000311900008D180000091A0000C6
:10190000C31900008D180000CF190000EB1900006A
:10191000EB190000EB190000EB190000EB190000B7
:10192000EB190000EB190000EB190000EB190000A7
:101930009446A0E7582A00F01781A2F163015FFAEC
:1019400081FEBEF1170FA1D817299FD80FF2040E00
:101950005EF821F0C71B00002F1A00008D18000050
:101960008D1800008D1800000F1A00002F1A0000BB
:101970008D1800008D1800000F1A00008D1800004F
:101980008D1800008D180000151B00008D18000038
:101990008D180000A91B00008D1800002F1A0000F0
:1019A0008D1800008D180000151B00008D18000018
:1019B0000F1A0000019B51462520984709F10109A3
:1019C00048E7039A02F0FE020392002753E7002C37
:1019D0000BDA002F0BDA0399002900F04D8124EA7D
:1019E000E47405FB0424303C45E7002FF7DB05FBDE
:1019F0000727303F3FE7002F56F8042B80F23E8147
:101A0000002A80F23D8154420222039233E7682A81
:101A100003D1682B06D148232DE76C2A02D16C2B09
:101A200000F03081002B7FF431AF134623E77A2B8F
:101A300006D1752A56F8045B61D14FF000080DE01D
:101A40006C2BF6D04C2BF4D1073626F007031E463C
:101A5000752AF6E8020107D1D3E90058BCF1200F3E
:101A600050D18B4B013C09E005468846B8F1000F88
:101A7000F4DA6D42874B68EB4808013C00930DABEC
:101A800004934FF0000B284641460A220023CDF86C
:101A900014B0FEF735FB049B303203F801292846C9
:101AA0000493414600230A22CDE90658FEF728FB9D
:101AB000069B0A2B079B73F100030BF1FF3B0546C6
:101AC0008846E0D2059BC3F1010B38330DEB0305CB
:101AD000002FA5F1040504DA039B13F0010F18BFD2
:101AE0002746039BA7EB0B08B8F1000FD4BFA4EB6C
:101AF0000B04E41B980700F18380274673E04FEA4C
:101B0000E578B3E7BCF12B0F0ABF634B634B04F1DD
:101B1000FF34B3E7702A27D156F8041B00230029AD
:101B200059D05F480090023C02F06002A2F13908EF
:101B30000DF1340E002501F00F02092A88BF42443E
:101B400030320EF8012910294FEA111242EA0372CD
:101B50004FEA131073F1000305F1FF3C20D2C5F1E9
:101B6000010B05F13803B1E76C2B03D156F8041BC8
:101B7000002308E04C2BF9D1073626F007031E4658
:101B80005B6856F8081BBCF1230F06D1454D44484D
:101B900012F0200F08BF2846C4E740480090C3E772
:101BA000654611460346C6E756F8045B284607F02B
:101BB00086FD002F834602DBB842A8BFBB46374BE9
:101BC000009300278DE756F8043B8DF820304FF046
:101BD000010B08ADF3E7344D4FF0050BEFE7019B28
:101BE000514620209847013FF9D5631E591CACBFD0
:101BF00022460022C4F10004B8BF002491441C44D2
:101C0000009FA9EB070304E000935146019B98470E
:101C1000009B03EB070917F8010B0028F4D1474696
:101C2000013F19D508F1FF330133B8BF4FF0000869
:101C30005F46013F15D50BF1FF330133B8BF4FF0BD
:101C4000000BD8442546013D11D5631E0133B8BFB2
:101C50000024A044C144FDE5019B51463020984733
:101C6000DEE715F8010B019B51469847E1E7019B20
:101C7000514620209847E6E70122C6E61746FAE5D6
:101C80001446F8E54C23F6E548460FB0BDE8F08F62
:101C900045B3000043B3000047B300005EB100004D
:101CA0004CB3000049B300004FB300004306F0B549
:101CB00019D00E4A0E4B0F499B1A9B104B43002420
:101CC0009C4201D10020F0BD156A177F0021043D20
:101CD000CEB2B74202D801342432F1E7013115F80F
:101CE00031608642F4D10120EDE700BFD40300202B
:101CF0001C040020398EE338F0B5104B104C114D08
:101D00001B1B9B106B43104DD5F824C000259D4232
:101D100002D16FF08500F0BD676867450AD3266978
:101D200046B197F802E00779BE4503D13346BDE8D6
:101D3000F040184701352434E9E700BF1C040020B7
:101D4000D4030020398EE3380C1B00202DE9F04726
:101D5000174D184C184BDFF864A0641BA4100646FE
:101D60000F4690465C434FF000094C4503D16FF09D
:101D70008500BDE8F0876A68DAF824309A4212D309
:101D8000AB6983B190783179884205D142463946B2
:101D90003046BDE8F04718475279012A03D1424640
:101DA00039463046984709F101092435DDE700BF7F
:101DB000D40300201C040020398EE3380C1B0020C3
:101DC0002DE9F8430E4D0F4C0F4B641BA410064633
:101DD0000F4690465C434FF000094C4502D16FF02E
:101DE00085000BE06B691BB909F101092435F4E7A3
:101DF00042463946304698470028F5D1BDE8F88379
:101E0000D40300201C040020398EE33807B5837802
:101E10008DF800300379427943EA0223ADF80230AD
:101E2000C378684603F003038DF8043001F062FFC5
:101E300010F1780F04D018B1002003B05DF804FB56
:101E40009DF8000001F0DCFF10F1780F01D00028B0
:101E5000F2D1024B012083F8B900EEE70C1B002001
:101E600002480822002107F059BC00BFC71B002010
:101E7000094808B50378C3F341130A3350F82330F7
:101E80003BB100F1080200F110019847C043C00FB8
:101E900008BD1846FCE700BF0C1B00202DE9F14FE0
:101EA000284B294CE41A294BA410042805460E4659
:101EB00003FB04F41CD1FFF7D3FFDFF8949099F8EB
:101EC000B930BBB100F002FD042D13D11D4F4FF00E
:101ED0000008444525D0D7F820B04FF0000A3A7FDB
:101EE0005FFA8AF39A4213D808F101082437F0E721
:101EF0000528E2D0134F4FF00008A04515D1144B30
:101F00001B6AE3B13146284601B0BDE8F04F1847DF
:101F10000BEBC3030AF1010A187901F09BFF0028BB
:101F2000DDDA002389F8B930E4E7FB681BB13246FB
:101F300029463846984708F101082437DDE701B003
:101F4000BDE8F08FD40300201C040020398EE33854
:101F50000C1B00202DE9F3479A4EB36905460F4646
:101F600090465BB9287800F01F03012B7AD0022B32
:101F700000F0E4803BB16FF015008DE09847002839
:101F8000F0D1002088E095F900206878002A2BDA4B
:101F90000628D8F8002009D008281FD00028EAD148
:101FA00001235070137002233B6075E069880A0AB0
:101FB000101F0128DFD9072ADDD8CCB2716A184674
:101FC0000B78002BD7D04D78954203D1844200F096
:101FD0001C8101301944F3E70B781CE196F8BA1024
:101FE000117001223A60CCE7052818D00928C2D127
:101FF0006C8844B14FF0FF08776A1846C1463C78B8
:102000009CB90028B7D0FFF72BFF6B8886F8BA3051
:10201000F369002BB5D06C4903209847B1E7A87845
:1020200001F056FE0028ACD0A5E77B78042B0CD03D
:10203000052B0DD0022B05D197F805806A88424503
:1020400008BF01203B781F44D9E797F80390F9E7D0
:102050006B884345F6D1B9F1000FF3D13846FFF74D
:10206000D5FEEFE796F8BA30002B84D0746AB5F845
:1020700004C0287923461A78002A3FF47CAF5978A7
:10208000022904D193F804E0864500F2C680134487
:10209000F1E710705070396002B0BDE8F0870C4471
:1020A000C9E00B287FF467AF00274FF0FF0AD04646
:1020B000B94606E06378042B0FD0052B22D0237895
:1020C0001C442378002BF5D1F36913B1494607204E
:1020D0009847002F7FF455AF4DE794F802A0AA88E7
:1020E00094F8038092455346E9D1698888451FFAE0
:1020F00088F2E4D1072B1ED83344A14683F8BB20D5
:102100000127DCE7AB885345D9D1AB7843450DD0E7
:10211000A778384600F0BCFB384601F09BFE10F172
:10212000780FEDD0B0FA80F77F09C8E72046FFF7B7
:102130006DFE0746C3E7A1460027C0E795F90020DA
:102140006B78002A19DA002B7FF415AF2C79204622
:10215000FFF7ACFD00283FF40EAF610604D096F8FF
:10216000BA30002B3FF407AFD8F80050204629467C
:1021700001F02AFE0020687015E7012B26D0032B02
:102180007FF4F9AE6B88002B7FF4F5AE2C798DF8D7
:1021900007402046FFF78AFD00283FF4ECAE6306B7
:1021A00004D096F8BA30002B3FF4E5AE204601F09B
:1021B000C3FDF369002B3FF4E4AE0DF107010820E5
:1021C0002BE700BF0C1B0020C61B00206B88002BD8
:1021D0007FF4D1AE2C798DF807402046FFF766FDDD
:1021E00000283FF4C8AE620604D096F8BA30002B3F
:1021F0003FF4C1AE204601F0C7FDF369002B3FF468
:10220000C0AE0DF10701092007E7022AC8F8001047
:102210007FF4E2AE4B883B60B3E695F90030687816
:10222000002BBFF63EAFD8F8002000283FF431AFB6
:102230000A287FF4A0AE217800293FF49CAE637891
:10224000042B7FF42CAFA3789C457FF428AF072B99
:1022500096BF9B19002393F8BB3013700123DAE774
:1022600013B5134C237DC3B9E268A168019201AB99
:10227000802007F058F80199A268E3680A445B1AC5
:10228000A260E3603BB92369E2889A4203DD9B06C2
:1022900001D10123237502B010BD00231A4619464F
:1022A0008020237502B0BDE8104001F0F9BD00BFE9
:1022B0000C1B002030B585B0002302460D4601936B
:1022C00000285FD100293CD108220B460DEB02010A
:1022D00007F066FA002804DA802001F02DFD05B031
:1022E00030BD2D4C9DF809309DF808206370BDF875
:1022F0000A306380BDF80C302270A38004F13801ED
:10230000BDF80E30E3801206C4E90355A1602575BF
:102310000AD4802B04D9802001F00EFD0020DCE7D8
:1023200013B1C4E90333DAE7FFF7A2FD0028D3D0E5
:10233000E28823699A42D4BFE260E360FFF790FF2E
:10234000CDE7154CD4E90215002D01AB04DC07F0F4
:1023500027FA0028C3DABFE72A4607F021FA002847
:10236000D9DB0199A268E3680A445B1AA260E360C2
:10237000002BB4D104F13803A360FFF779FD0028E6
:10238000DCD1A9E78028AAD1034BDA68002AD5D18D
:102390001B7D002BD2D1A2E70C1B0020054B064A67
:1023A0009A62064ADA62064A1A63064A58629A61D3
:1023B000002070470C1B0020551F0000F91C000076
:1023C000C11D00004D1D0000074B10B593F8B8402B
:1023D00024B900F0B3F918B1FFF7E0FF002010BDF9
:1023E0004FF0FF30FBE700BF0C1B00202DE9F74347
:1023F0000446384D38484FF0FF324FF0FF3304F0B9
:1024000035F995F8B860002E41D134482C62E86166
:1024100001F05CFE01F01EFC041E39DB00F07EFAC8
:10242000041E35DB40236846ADF802308DF80460A9
:102430008DF8006001F05EFC041E29DB80276846F1
:102440008DF8007001F056FC041E21DB2449304653
:1024500001F028FE041E1BDB2149384601F022FE54
:10246000041E15DB1F4F204C204BE41BA4105C43C3
:10247000B44214D1002001F0C3FC041E08DB80200C
:1024800001F0BEFC041E03DB012385F8B8300024F4
:10249000114804F063F9204603B0BDE8F083D7F893
:1024A00020904FF000083A7F5FFA88F39A4202D8F2
:1024B00001362437DCE709EBC30259F833101079F1
:1024C00001F0F0FD08F101080028ECD04FF0FF34D6
:1024D000DEE700BF0C1B0020980200209D1E0000BC
:1024E000B5220000D40300201C040020398EE338FC
:1024F00030B51E4B8BB005AA03F11005186859685A
:10250000144603C40833AB422246F7D11B7823702C
:102510001022002101A807F001F91222002114481D
:1025200007F0FCF8102101A807F063FA00281ADD73
:10253000083801AA0E490028A8BF1218002012F876
:10254000013B0AAC04EB131403F00F0328336B4474
:10255000013014F8144C13F8143C0C7008284B701C
:1025600001F10201EBD102480BB030BD55B30000C0
:10257000082B00202DE9F04F6B4A6C4B9B1A6C4ADC
:1025800087B09B1053430446019300254FF0011B75
:10259000A9462E46AA46207820B9664B02349C42B2
:1025A00017D0F2E76378052B05D8DFE803F0830442
:1025B0000383072BA24623781C44ECE7E378002B27
:1025C000F9D1A3789BB9584A0199994204D14FF0A7
:1025D000FF3007B0BDE8F08F51688C4202F1240251
:1025E0000AD1514A242606FB0326B36833B909F100
:1025F00001095FFA89F9DEE70133E5E7494620463C
:102600009847F4E7002EE2D000230121327F934265
:10261000DDD2326AA77802EBC3021079874201D07B
:102620000133F3E70127E07894F805C000F00300D8
:102630008DF81400207940EA0C20ADF8120094F9CE
:10264000020000285FFA87F828DA07F1100001FA83
:1026500000F010EA0B0F29D168F07F008DF8100010
:1026600004A8CDE9023207F083F8DDE90232012146
:10267000E0B99DF81030A37013F0800F1CBF08F173
:1026800010085FFA88F813710B4615BF01FA08F8B5
:10269000BB404BEA080B4BEA030B8CE701FA07F04F
:1026A00010EA0B0F02D18DF81080D9E70137102FF7
:1026B000B9D1B5E7032D1DD1FFF71AFF074668B161
:1026C00006F0FDFF804648B11B4806F0F8FF804544
:1026D00004D142463946A01C07F015F823786FF064
:1026E0000201E218091B04EB5303D14213D5013553
:1026F000EDB260E7002DF1D1BAF1000F3FF467AF02
:10270000A4EB0A038AF80230C3F307238AF80330E4
:102710008AF80490EBE74FF0000002F8010C13F880
:10272000010902F8020DE0E7D40300201C04002098
:10273000398EE338D303002055B3000008B50448B0
:10274000FFF718FF0028024818BF002008BD00BF8F
:10275000C402002010B5094B00211A461C7884429F
:1027600005D15C681CB1482000FB012010BD01317F
:10277000042903F14803F1D10020F7E7D01B002022
:102780002DE9F34150F8303C10F8346C1033044616
:1027900010D1036950F8282C99073CD502BB13F0DF
:1027A000040304D11A461946304606F0BCFD002346
:1027B00044F8303C54F8303C10330ED054F8205CD0
:1027C0005DB154F8247C54F81C8C07F037FC0028C9
:1027D0004CD02E48214607F0F7FC02B0BDE8F0814E
:1027E00050F82C1C01AB304606F09DFD10B16FF087
:1027F0001503DDE7019A54F82C3C134444F82C3CB3
:1028000054F8283C9B1A44F8283C54F8243C1344C0
:1028100044F8243CCEE750F82C1C01AB304601F0C4
:10282000B7FB0028E3D1019D54F82C3C2B4444F81D
:102830002C3C54F8283C5B1B44F8283C54F8243CBE
:102840002B4444F8243C002DB1D0304601F044FC28
:10285000B5FBF0F303FB1055002DA8D154F8283C2C
:10286000002BA4D0304601F0DBFBA3E744F8200C9A
:10287000A4F1180003F0DEFF54F8303C8C33ACD0E8
:10288000424639463046A847A7E700BFF805002072
:1028900010B54FF02003EFF3118483F31288BFF3D8
:1028A0006F8FFFF757FF50B14368103307D16FF0B8
:1028B0008B03436000F13401034807F085FC84F387
:1028C0001188BFF36F8F10BDF80500202DE9F0418E
:1028D000104CDFF8448004256FF08B074FF0200385
:1028E000EFF3118683F31288BFF36F8F63681033A1
:1028F00005D104F134014046676007F065FC86F3BA
:102900001188BFF36F8F013D04F14804E6D1BDE8A3
:10291000F08100BFD01B0020F805002070B50A4CE4
:102920000A4E00253146204607F045FC0122A4F15D
:1029300018001146013507F022FC042D04F148046B
:10294000F0D1002070BD00BF041C002081270000D2
:10295000044B93F838220020012A9CBF83F83802E8
:102960000120704710000020044B93F83822012A00
:1029700004BF002283F83822704700BF10000020F7
:10298000014B9970704700BFDF02002037B590F906
:1029900000200378002A04460ADB03F01F03012B02
:1029A00006D142780B2A15D1428822B1012A14D0CF
:1029B0006FF0850017E00D4A13700C4D01A92878BF
:1029C00000F006FA68B9019883686B6006F0E3FCD2
:1029D0006388EB606FF0150005E0044B02221A706B
:1029E000EBE76FF0040003B030BD00BF1000002023
:1029F00010B5074C002304F11000A360A4F83A328C
:102A000006F08EFC18B140F60A63A4F8383210BD07
:102A10001000002037B50F490F4807F0CCFB0F48D6
:102A20000F4D07F0DCFE0F490F48002207F05FFD55
:102A3000287801A900F0CCF9044638B901988368D8
:102A40006B6006F0A8FC204603B030BD6FF00404B4
:102A5000F9E700BFD92C0000141D0020041D002040
:102A6000100000206929000020040020012908B579
:102A700011D1094807F047FD084B93F83822012A85
:102A800009D1022283F83822054B06481860BDE8B8
:102A90000840FFF783BC08BD200400201000002080
:102AA000D4030020370300202DE9FF41154690F99B
:102AB00000204378002A0746884680F28C80032B4A
:102AC00015D0052B34D0022B48D1FFF741FF002849
:102AD00044D17B4C94F83832022B32D0092B32D0BF
:102AE00040F60A63A4F83832FFF782FF36E0744BF1
:102AF00093F8382293F83912062A04BF022283F889
:102B000038222A681170B3F83C2229684A70120AE8
:102B10008A702A680020D0702A6893F838321371BE
:102B20002B6858710623C8F8003004B0BDE8F08166
:102B3000634A2B6892F838221A7001230B60002038
:102B4000F3E7FFF755FFFA8822B1B4F83A127B8811
:102B5000994206D040F60A63A4F838326FF01500A7
:102B6000E3E7D4E901369E1B964228BF1646802E25
:102B700008D8AEB1207803A900F02AF920B140F2BC
:102B80000A23E9E78026F5E72A68A1680398334617
:102B900006F002FC0546039806F0FDFB002DEED181
:102BA000B4F83A22C8F80060A3680132A4F83A22C7
:102BB000626833449342A36009D1FB889E4206D2E7
:102BC00000200223C8F8000084F83832ADE709235A
:102BD00084F83832B3E7062BC0D801A252F823F0AC
:102BE000712C00001D2C00005D2B00005D2B0000EF
:102BF000132C00005D2B0000FD2B0000FFF7A8FE4A
:102C00000028ABD1FFF7F4FE2D4B0222A3F83822A7
:102C100095E7FFF79DFE0028F6D09FE7FFF798FEA7
:102C200000289BD1264C94F83832022B13D0052B68
:102C30007FF456AF2348042284F8382280F880308D
:102C4000FA882968A0F8822006F05DFD1E491F4819
:102C500007F0BAFA73E7FFF7CBFE1D4807F0C4FD93
:102C60002378022BE6D040F20A33A4F8383266E724
:102C7000134B93F8381219B1002283F838226DE70C
:102C8000012283F838224488B4F57A7F28BF4FF4B4
:102C90007A744FF4004540F2E7304FF47A72002323
:102CA000E5FB0401FDF72CFA02460B464FF0FF301E
:102CB0004FF0FF31CDE90001064804F039FC3EE752
:102CC0001000002084290020141D0020F805002099
:102CD000041D00202004002038B5184B93F88020F4
:102CE000022A01D0052A10D1B3F88250144C13499E
:102CF000B5FA85F35B092A4604F1100006F0D2FA12
:102D000020B140F20A33A4F8383238BD95B9062311
:102D100084F83832FFF76CFE284606F00AFD18B139
:102D200040F20A33A4F838320648BDE838400021A2
:102D300004F0AABC052384F83832E6E78429002091
:102D400010000020041D002070B507F0A5FB124EF6
:102D500005460C4607F09AFBA84271EB040300D32A
:102D600070BD96F83832043B012B05D9002140F2A2
:102D7000676004F0BBF9EDE7084B09480022012128
:102D800007F010FD0648BDE870404FF0FF324FF0ED
:102D9000FF33012104F01CBC10000020041D0020A2
:102DA000F01C0020084B30B51C68084B01461A681F
:102DB00000239C4201DC002030BD10461032057813
:102DC0008D42F9D00133F4E768AD000050020020D5
:102DD000084B1B6810B50C462BB1FFF7E3FF28B179
:102DE0002060002010BD6FF00C00FBE76FF00100C9
:102DF000F8E700BF5002002030B589B00C461546F8
:102E00000190FFF7CFFFB8B143680293836822684F
:102E1000C068CDE903350023CDE90623059306F00C
:102E20009AFA60B1074901AA06F07FFE079808B92F
:102E3000059B236009B030BD6FF01500FAE76FF015
:102E40001200F7E75B9300002DE9F7430D46DDE93B
:102E50000A8691461F46044620B96FF00D0003B064
:102E6000BDE8F0830029F8D0002AF6D00093084688
:102E70000023019306F023FBB7FBF0F303FB107074
:102E80000028EAD113496A46284606F04EFE019B07
:102E9000002BE2D006EB08029342DED3284606F070
:102EA0000EFBB8FBF0F303FB10800028D5D1C4E97A
:102EB0000097E5602061A060C4F8148016B9019EF7
:102EC000A6EB08060C9BE3614FF0FF33A66123627B
:102ED0000020C4E7CB940000014910220A6070472B
:102EE00010ED00E072B6404080F31188BFF36F8FA1
:102EF000BFF34F8F30BF62B6BFF36F8F704700BF15
:102F000072B6494081F3118820BF80F3118862B600
:102F1000704700BF43B2002B08DB012200F01F0006
:102F200002FA00F05B09024A42F82300704700BF32
:102F300000E100E043B2002B0DDB01225B0900F051
:102F40001F0002FA00F02033034A42F82300BFF3C7
:102F50004F8FBFF36F8F704700E100E0054B4209D0
:102F600000F01F0053F82220012303FA00F0104064
:102F7000704700BF00E100E043B2002BA8BF03F19F
:102F8000604301F10101B8BF064B4FEA4111ACBFEC
:102F900003F5614300F00F00C9B2B4BF195483F8C0
:102FA0000013704714ED00E030BFFFF7FDBF00BF16
:102FB0000F4A08B50F4B22F07F029A60BFF34F8F84
:102FC000BFF36F8FD3F8882022F47002C3F88820F3
:102FD000EFF3148323F0040383F31488BFF36F8F9C
:102FE00003F0C4F904F016F900F0BEF903F0C8F9D3
:102FF0000000000000ED00E0094A0A4993680968F2
:10300000D967094998674B6843F080534B600023A8
:1030100083F31188BFF36F8F9368D86F704700BF39
:1030200048290020B8AE000000ED00E012498A688F
:103030004FF030001044EFF3098C80E8F01F20209F
:1030400080F31288BFF36F8F0C4F4FF000668A69D0
:103050008A603E60906F0023936780F3118804B507
:10306000104600F0C3F9BDE8044002F1300090E8DA
:10307000F01F8CF3098870474829002004ED00E018
:103080001EF0040F0CBFEFF30880EFF30980816995
:1030900011F8021C0229FFD001B506F001FB01BDA9
:1030A00042F8203C009B42F81C3C0A49019B42F834
:1030B000183C029B42F8143C21F001014FF0807350
:1030C00042F8043C42F8081C0023203A026583675A
:1030D000704700BF1F8D0000094A0346906870B119
:1030E00013F1160F806E05D0A0F120029A4205D888
:1030F000834203D2814228BF0020704700207047DE
:103100004829002008B5094B98600D46144600F088
:103110006DF9204685F30988002163B681F3118893
:10312000BFF36F8F0022002305F0F9FD482900202E
:1031300001B5EFF30580A0F110004FEAC00004498B
:10314000014409C99847BDE8014002490847000009
:10315000B8A9000059310000044B99689869884269
:1031600003D003494FF080520A607047482900207D
:1031700004ED00E038B5194B14469A6A9A6A9A6AC7
:103180000546900719D5586B9A6A120615D519B1DC
:103190009A6A22F080029A629A6A9A6A9A6AD106B8
:1031A0000ED49B6A9A070BD400200C4A936A43F012
:1031B000FF0393620023237038BD6FF01500EBE727
:1031C000064B5B681B05EFD52946FFF785FF0028F6
:1031D000EAD080F309880220E7E700BF00ED00E0B5
:1031E0000D4B9A6A9A6A9A6A920508D59A6B9A6AFE
:1031F000120404D518B19A6A22F400429A62064B6E
:103200009A6A9A6AD20558BF9A6A9A6A002042F46A
:103210007F429A620870704700ED00E070B5484B3D
:103220005B688AB00D46C3F30803002686F3118855
:10323000BFF36F8F02F07F41B1F17F4F11D102F0E8
:103240000C0108290DD0110701D4054601260022E2
:10325000033B8DF80720032B6BD8DFE803F0045500
:10326000595D3546F3E7364BDC6A14F0020460D151
:10327000DA6A002A15DBDA6A520012D5AA6932F836
:10328000021C4DF6027291420AD093F828200AB32C
:103290000DF1070201212846FFF76CFF044600E00C
:1032A0002C689DF807309BB92022294602A806F019
:1032B0002AFA099B002E3ED0C3F3080222B96FEA16
:1032C00053236FEA4323099302A9204606F0E6F947
:1032D0000AB070BD93F829202AB10DF10701012031
:1032E000FFF77EFFDAE75A8D92B2002AD9D09A6AA8
:1032F0009A6A9A6A9A6A9A6A9A6A9A6A6FEA024219
:103300006FEA12429A62CCE70DF107020021C2E790
:103310000DF107010020E3E7094B9A6A9A6A9A6A5D
:103320009A6A9A6A9A6A9A6A6FEA02426FEA124243
:103330009A620024B5E723F4FF7323F00103C2E788
:1033400000ED00E0024A536943F0100353617047F7
:1033500000ED00E0EFF30880EFF3098101B572465C
:10336000FFF75CFF01BD00BF044800232021C21805
:103370000133302B82F80013F9D1704700E100E0EF
:1033800007F0A4FA202080F3118808484FF4026166
:10339000401880F30988EFF314800221084380F37A
:1033A0001488BFF36F8FFFF703FE0000E058002082
:1033B000064B9B68834207D1EFF3058323B1044A90
:1033C000536843F08053536003F0C0BE4829002087
:1033D00000ED00E0024B034A0348012100F06EB803
:1033E00000000420000000206CAD0000826E054B40
:1033F000203A1A60044A2021C3E90112184601212B
:1034000000F066B8241D002000000B15F0B51F4F1A
:1034100000268E4201DB1046F0BD44689CB353B1D8
:1034200004F1FF3C14EA0C0F18D11F2C16D90568C3
:103430001CEA050F12D1202C0568D0F808C0D2B2C2
:103440000FD9B4F1004F0ED8013CB4FA84F4C4F1A2
:103450001F046400072A4CEA040406D96FF0150221
:10346000D9E70824F6E73E24F4E725F01F051543C5
:1034700045F0100544F00104C7F89820C7F89C50A7
:103480000132C7F8A04001360C30C2E700ED00E081
:10349000044B0522C3F89420BFF34F8FBFF36F8F07
:1034A000704700BF00ED00E0BFF35F8F024B0022CA
:1034B000C3F89420704700BF00ED00E010B5034C46
:1034C00001232278FFF7A2FF207010BD1A2B0020E5
:1034D00008B5094A00231278FFF798FF10F1160F7C
:1034E00002D0064A072800DD08BDC2F89800C2F8DD
:1034F000A0300130F6E700BF1A2B002000ED00E0FD
:1035000014490868082810B521D8FFF7CDFF124CE0
:1035100049680022904201F10C0105D10F4B18704F
:10352000FFF7B6FF002010BDC4F8982051F80C3CFE
:1035300023F01F03134343F01003C4F89C3051F8E9
:10354000043C43F00103C4F8A0300132E2E74FF03D
:10355000FF30E8E778AD000000ED00E01A2B002016
:103560004FF02003EFF3118283F31288BFF36F8FC4
:1035700006490123C1F840354FF08041C1F8783544
:1035800082F31188BFF36F8F0020704700E0014085
:1035900020B1034B800143F001031847704700BF7F
:1035A00060AB000000F07F03082B42B204D010F0A3
:1035B000780F01D000207047002A00F00F0300F0C0
:1035C000080005DA58B9084800EB43104C30704742
:1035D00038B9054800EB431000F5B6707047034852
:1035E00070470348704700BF302300207C24002030
:1035F0009C2500200146014806F0B6BDAC02002023
:103600000149024806F0E0BD58230020580400207C
:1036100013B50B4801F004FD00240A4801F046FDF3
:103620004FF0FF334FF4806207490848009403F0DD
:103630004FFA0749074806F0BEFD204602B010BD0C
:1036400078B3000098AD0000402B00205804002003
:103650006D3900005823002002480022002303F0A7
:10366000B5B800BFAC02002010B5054CFFF7F4FF61
:1036700020B1011D204606F0B8FCF7E710BD00BFE1
:103680007C02002007B500230E48002201A902F0A9
:1036900005FF90B1FFF7E8FF0A480022002301A9C7
:1036A00002F0FCFE38B90198042340600374FFF770
:1036B000A1FFFFF7A5FF002001E00198406003B0E3
:1036C0005DF804FB7C020020817870B50646084650
:1036D000FFF768FF0B06F578044612D5002D43D19D
:1036E000FFF7D0FF034600283ED00122A5770274E1
:1036F000032202739C60FFF77DFFBDE87040FFF777
:103700007FBF4DB1012D2FD1FFF7BCFF034658B34A
:10371000657705740573EDE7FFF7B4FF20B3B27862
:10372000124B12F0800F02F0080111D041B1D3F812
:10373000A836E36001230374022303738460DAE78D
:1037400002F00F02142101FB0233D3F80836F0E730
:1037500011B1D3F8A837ECE702F00F02142101FBF6
:103760000233D3F80837E4E770BD00BF00700240B1
:10377000022810B511D8094B1C5CFFF783FF60B11C
:10378000002202740472FFF735FF054B93F82430D2
:103790001BB1BDE81040FFF733BF10BD75B300008B
:1037A0003023002010B50F49BFF35B8F01F12003D8
:1037B000002253E8000F012803D143E80024002C25
:1037C000F7D1BFF35B8F0BD1CC690C31204605F0EC
:1037D0008AFA783004D12046BDE8104005F05EBA80
:1037E00010BD00BF30230020F0B5064689B014227A
:1037F000002103A805F092FF3378013B052B21D867
:10380000DFE803F07A0314146A1603238DF81430EA
:103810000024FFF737FF0346A0B1047400F108024B
:10382000DDE9050182E8030018461DE00423EDE709
:10383000B1780846FFF7B6FE837A044623B1013B10
:10384000022B43D909B0F0BD0B06F57813D5002D36
:10385000F8D1FFF717FF03460028F3D00122A57720
:103860000274032202739C60FFF7C4FE09B0BDE836
:10387000F040FFF7C5BE55B1012DE3D1FFF702FFC0
:1038800003460028DED0657705740573EBE7FFF784
:10389000F9FE07460028D5D00123037402230373E1
:1038A000846004F10C01B07806F059FA134AE1681B
:1038B000B2F88C328B4206D95B1AA2F88C3202F035
:1038C0005FF93846D0E7A2F88C52FAE7304609B0E3
:1038D000BDE8F040FFF7F8BE01A802F02BF99DF813
:1038E0000530052B04D19DF8043013F0600FA9D0EA
:1038F000034B059301248CE702248AE73023002040
:103900009C24002038B5002464F07F00C0B2FFF78B
:1039100049FE013405F015FF082CF5D10F4D0024A8
:10392000E0B2FFF73FFE036903B90561013405F01A
:1039300008FF082C05F14005F2D1094C04F5A670EA
:1039400005F0FFFED4F87C3213B9064BC4F87C3284
:10395000054805F0F6FE002038BD00BF30210020EC
:1039600030230020301D00209C2500202DE9F0434D
:10397000A84CDFF8A48285B00746FFF76DFE10B9AA
:1039800005B0BDE8F08394F82530027C00F104090D
:103990003BB9002A00F086804946404606F025FBE8
:1039A000EBE7042AF8D8DFE812F07D0005000301F8
:1039B00019014301037B8568032BEDD8DFE803F091
:1039C000023D5A5F6E6908220021304605F0A6FECE
:1039D000924B9348D3F880243270D3F884247270C9
:1039E000D3F88824D3F88C1442EA01227280D3F8E9
:1039F0009024D3F8941442EA0122B280D3F8982498
:103A0000D3F89C3442EA03230822F3803146EA606B
:103A100005F079FE2B68687A0021984796F9003006
:103A2000002B06DBF38823B1A4F88C3202F0A8F84F
:103A3000B2E70023A4F88C32AEE76B7F002BABD04B
:103A40002B7F002BA8D000266E774FF0FF327548F1
:103A50002E774FF0FF3305F087FE6B6901936B689B
:103A6000CDE9023601A9687A01F088FE6D4805F0BB
:103A70007DFE91E72B680121687A98478CE7AB7A45
:103A80006BB9EB7F5BB967484FF0FF324FF0FF3304
:103A900005F06AFE02F0A4F8624805F067FE2B68A4
:103AA0000221E9E7027A042A3FF676AFDFE802F066
:103AB0005B032569750001F011FE054600287FF4BF
:103AC0006BAF01F04FFDBFF35B8F5749012351E806
:103AD000002F002A03D141E800300028F7D1BFF3BE
:103AE0005B8F7FF459AF41F8105C41F8085CE069E6
:103AF0006361143905F089F84EE7002565F07F0011
:103B0000C0B2FFF74FFD037A13B1407A02F05EFABC
:103B10000135082DF2D194F854311BB194F85501B8
:103B200002F054FA0025E8B2FFF73CFD037A13B126
:103B3000407A02F04BFA0135082DF4D194F8743232
:103B40001BB194F8750202F041FA012001F0A8FDC2
:103B5000012384F825302368002B3FF41DAF00219A
:103B60000220984718E7002584F8255002F0BAF99A
:103B7000FFF718FE2368002B3FF40EAF2946042000
:103B8000EFE7002B3FF408AF02F0C4F92368002BE5
:103B90003FF402AF00210520E3E72268002A3FF44A
:103BA000FBAE002B3FF4F8AE002106209047F3E671
:103BB00007F110054FF0FF334FF0FF32284605F0B4
:103BC000D3FDFFF79FFE284605F0D0FD57F8283CAF
:103BD000002B3FF4E1AE00210120C2E794F87432DB
:103BE0007BB1012584F8895284F88852FFF74AFD99
:103BF00038B10E4A057405738260FFF7FBFCFFF7CE
:103C0000FFFC57F8283C002B3FF4C6AE00210A20E9
:103C1000A7E700BF302300207C0200200070024094
:103C20003423002068230020502300209C250020FE
:103C300006F002F802F056F901F08AFCFFF714FDD5
:103C4000FFF760FE05F0F1FF014801F051FDA3E62A
:103C5000E937000038B51A4D95F824405CBB05F1F2
:103C6000380006F00AFA204600F040FB2246E861E0
:103C700001212720FFF780F9124801F039FD124B8E
:103C800098421AD105F0D1FFFFF73CFE044610B967
:103C9000012385F824300D4B1B680BB1FFF7B0FCF6
:103CA0004FF08043D3F83834DB0702D50020FFF70C
:103CB0005FFD204638BD0024FBE76FF00404F8E701
:103CC00030230020E93700000000AD0BAC020020DB
:103CD000074B93F824203AB193F82530002B0CBF02
:103CE0006FF01200002070476FF01200704700BFA5
:103CF000302300200F4B93F8243010B50146B3B1A8
:103D000004782046FFF74EFC10B96FF0150010BD87
:103D100044720B79837249884160230702D44B1E99
:103D20000B42F2D1204606F015F80020EFE76FF0C5
:103D30001200ECE730230020124B93F8242010B53A
:103D40000146CAB193F82530B3B1FFF72BFC044606
:103D5000A8B1837A012B12D007D9023B012B07D9D6
:103D60006369A3610020E06010BD01F041FFF7E747
:103D7000084601F0B1FEF3E76FF01200F4E76FF0D0
:103D80001500F1E73023002038B50E4B93F82420BE
:103D9000054682B193F825306BB1FFF703FC68B19B
:103DA00015F008040AD1284601F0B8FE284602F0B2
:103DB0005FF9204638BD6FF01200FBE76FF0150089
:103DC000F8E700BF3023002038B50C4B93F82420CF
:103DD00005460C4662B193F825304BB1FFF7E2FB84
:103DE00048B141B1284601F07FFE2070002038BD67
:103DF0006FF01200FBE76FF01500F8E730230020AA
:103E0000F8B5134F97F824300446BBB1FFF7CAFB4F
:103E10000546B0B1230705D4204601F07FFE2046B9
:103E200002F026F92E7A7EB997F8250001232B722D
:103E300018B1204602F0CAF83046F8BD6FF0120003
:103E4000FBE76FF01500F8E76FF07700F5E700BFCC
:103E50003023002038B5114B93F8242001469AB145
:103E600093F8253083B1FFF79DFB054678B1037ABF
:103E700083B10846002402F07DF82846AC7705F0AF
:103E800060FC2C72204638BD6FF01200FBE76FF02B
:103E90001500F8E76FF07700F5E700BF302300204A
:103EA0002DE9F043DFF8DC801C4698F8243085B01B
:103EB000074689461646002B5DD098F82530002B22
:103EC00059D003065AD5FFF76DFB0546002855D09B
:103ED000037A002B52D04FF0FF334FF0FF3208F13E
:103EE000380005F041FCAB7F4BB108F1380005F01C
:103EF0003DFC6FF00A04204605B0BDE8F08316B91A
:103F0000EB7F03B1EE77AB7ABBB95EB1B8F80A309C
:103F1000B34207D96A68B6FBF2F302FB13630BB92D
:103F20000123EB7701F06CFEB84206D001F058FE99
:103F3000154805F01BFC0024DDE70123AB774FF0AB
:103F4000000801A93846CDE90196CDF80C8001F0B2
:103F500015FC0E4B984207D085F81E800CB1C4F8B2
:103F600000806FF0040402E00CB12660444606486D
:103F700005F0FCFBBFE76FF01204BCE76FF015041F
:103F8000B9E700BF30230020682300200000AD0BFC
:103F90002DE9F0411D46204B174693F824200E468C
:103FA000002A33D093F8253083B3030631D401B906
:103FB0007FBBFFF7F7FA044658B3037A4BB34FF0D1
:103FC000FF3316484FF0FF3205F0CEFBE3689F4207
:103FD000B84628BF984646B93FB905B12B600F488F
:103FE00005F0C4FB0020BDE8F081A16942463046DF
:103FF00005F089FBA3694344A361E368A3EB0803CD
:10400000E360002DEBD0C5F80080E8E76FF0120008
:10401000E9E76FF01500E6E7302300206823002071
:1040200070B51E4D95F82420034682B395F82520DF
:104030006AB31B062ED4FFF7B5FA044650B3037AD1
:1040400043B34FF0FF334FF0FF3205F1380005F076
:104050008BFBE368B3B9012663692677A361637FAD
:1040600083B1FFF70FFB30B905F1380005F07EFB97
:104070006FF00B0070BD067484600673FFF7BAFA28
:10408000FFF7BEFA064805F071FB0020F2E76FF07B
:104090001200EFE76FF01500ECE700BF30230020BF
:1040A0006823002008B5084B93F824302BB1FFF7A4
:1040B00079FA28B10160002008BD6FF01200FBE71B
:1040C0006FF01500F8E700BF30230020014B1860A7
:1040D000704700BF3023002008B5074B93F8243009
:1040E00023B1FFF75FFA20B1406808BD6FF01200FE
:1040F000FBE76FF01500F8E730230020084B70B5A0
:10410000C31A0D4607499B100446594306484022EE
:1041100005F071FB2B4601462046BDE8704018476C
:10412000D0250020B76DDBB640A9000073B50C4C5C
:104130000C4A4023041B00930D460B460A49A41069
:1041400061430646094805F083FB011E05DA304647
:104150002B4602B0BDE87040184702B070BD00BFEA
:10416000D0250020BF980000B76DDBB640A9000045
:10417000002270B5012104461046FEF7FDFE002026
:10418000FEF7C8FE0F4800F02BFE0F4B984215D1EA
:1041900000F036FE26690D49304604F023FD002864
:1041A0000BDB246909490125356404F11C0004F086
:1041B00019FD002801DBE564002070BD6FF00400EC
:1041C000FBE700BF054200000000AD0BC8AD0000DA
:1041D00001460C2309484B4370B5C418D4E90E5668
:1041E00000224033A263184405F0F2FA2DB13246A2
:1041F0002B460348BDE87040184770BDD02500200D
:1042000040A9000010B1012804D07047034B1B6C7B
:104210005B0701D1FFF7DCBF704700BFD02500204E
:1042200008B54FF02003EFF3118183F31288BFF339
:104230006F8F124A136843F0020013F001031060FD
:104240000CD04FF08042D2F80C34D2F80C2413F08A
:10425000010303D00A4805F0BBFA012381F311885A
:10426000BFF36F8F23B1BDE808400020FFF7B0BF58
:10427000BDE80840012005F092BC00BF20260020C8
:10428000102600207FB500220123CDE9022304ABD4
:10429000CDE90433094ACDF800D06B46CDF804D0FF
:1042A00005F006FB002805DB4FF48042002368463A
:1042B00002F0E6FA07B05DF804FB00BFDD980000ED
:1042C000094BBFF35B8F53E8002F22F0020143E854
:1042D00000100028F7D1BFF35B8FD30702D4012071
:1042E00000F09CBD704700BF20260020024AC3B2E8
:1042F0001C2003FB00207047D02500202DE9F04151
:104300003949BFF35B8F0746012251E8003F41E87E
:1043100000200028F9D1BFF35B8F33B9334934480B
:104320004B60CB608A6004F070FC7B1E012B2FD8A1
:10433000012F07D14FF08043D3F81C3403F003035F
:10434000012B25D005F07AFE044618B9294B1B78BD
:10435000002B41D14FF02003EFF3118683F3128835
:10436000BFF36F8F0124DFF890804FF08045D5F8C0
:104370001834D5F81824D2030CD503F00303012B0D
:1043800001D0012F06D10CB386F31188BFF36F8FD4
:10439000BDE8F081ACB13046FEF7B2FDD5F8183576
:1043A000002BE4D1D5F80421002AE0D0C5F804316F
:1043B000D5F804310123C5F81835C8F88031AB6051
:1043C000D5E70021212002F091FEE7E74FF080437E
:1043D0000222C3F80423DBE74FF080430222C3F834
:1043E00008230646BFE700BF24260020C025002082
:1043F000EC250020232B002000E100E008B5094B4C
:104400001A786AB90121197006200521FEF7B4FD5A
:104410000620FEF77FFD044B4FF00042C3F8042353
:10442000002008BD1B2B0020006000402B4BF0B586
:1044300044682B481340834241D00DD8062B15D039
:1044400005D89BB1022B3CD06FF0150036E0B3F5D8
:10445000801FF9D1012309E02248834233D0B3F50C
:10446000A00F32D0B3F5800FEED10223D00654BF97
:10447000C2F34016032682F480759705C2F34020EC
:10448000C5F3002507D512F4006F67681FD001221D
:104490008A40C7F80825227A134C012A01F01F012F
:1044A00040EA450218BF4FF0A04442EA032301F559
:1044B000E07143EA860344F821300020F0BD072371
:1044C000D4E70423D2E70523D0E70323CEE7520540
:1044D00042BF01228A40C7F80C25DCE70600F00045
:1044E00006001000020040000003005000F01F0210
:1044F0004009084B012818BF4FF0A04303EB82038B
:10450000D3F8002722F4403242EA0142C3F80027E0
:10451000704700BF000300502DE9F84F0369D0F841
:1045200004A0DE68DFF87CB08846D3E905210A43A1
:1045300026EA0206DAF804201B69D2F810555D401D
:1045400026EA0505374601244FF0000917B9284629
:10455000BDE8F88F3C4221D09AF8083009F01F00DE
:10456000344240EA431014D14209012A00F01F03EB
:1045700014BF4FF0A0425A4603F5E07352F82330BF
:10458000C3F30143022B02BFD8F800302343C8F81D
:1045900000300021FFF7AAFF27EA040709F101090B
:1045A0006400D3E700030050F0B5002485B0CDE9E6
:1045B0000044CDE90244284ED6F87C516DB102A9E1
:1045C0002648FFF7A9FF03A900902548FFF7A4FF9D
:1045D0000190C6F87C41D6F87C3122491E4C00225D
:1045E00001269446D4F8043306FA02F0184216D095
:1045F0000B68A3B102F5A27304AF54F82330C1F8DD
:1046000000C0C3F3403007EB8000C3F3042350F82D
:10461000107C06FA03F33B4340F8103C0B68013270
:10462000082A01F10401DDD1009A22B10E4B0B4999
:10463000586805F0A7F9019A22B10C4B084958684F
:1046400005F0A0F92DB1054805F0ADF9044805F0D5
:10465000AAF905B0F0BD00BF0060004070A90000DD
:1046600088A9000000610040282600204426002080
:10467000F7B5144642680769127A01F01F05B4F5D0
:10468000A03F0E4645EA421510D16909012905F0FF
:104690001F02614902F5E07218BF4FF0A04151F8C6
:1046A0002220D00707D56FF085009AE0B4F5005FAF
:1046B000F96800F09880FA680121B14011437A69E5
:1046C000F9600121B140B4F5A03F0CBF0A438A4311
:1046D0007A61BA69B3F5C02F0CBF0A438A43BA6145
:1046E0003A69B3F5802F0CBF114322EA01014B4A0E
:1046F0003961D2F804330020DBB200F5A27152F820
:104700002110C1F305218D4272D123FA00F1C907AE
:104710006ED5830003F1804303F5C043D3F8101531
:1047200021F00101C3F8101501238340C2F80833BA
:10473000C0B200F0E3FB28460021FFF7D7FEF8687F
:10474000F04010F001004CD07869F04010F0010406
:1047500055D0BB69F340DB075FBF396921FA06F624
:1047600006F00106C6F102060DF1070054BFF6B2CD
:10477000032600F0E3FB2A4B98423DD19DF8072029
:10478000930003F1804303F5C0432D02D3F81015C5
:1047900021F44F3121F44071C3F81015D3F81015EE
:1047A00005F47C550D4345EA0646C3F810659300B1
:1047B00003F1804303F5C243002018609DF8071001
:1047C0001B688B0003F1804303F5C043D3F8102529
:1047D00042F00102C3F81025104A01238B40C2F8B1
:1047E000043303B0F0BD0122B24021EA020166E7C2
:1047F0000130082881D19EE76FF01200F1E7396996
:10480000F14001F00101C1F103012846C9B2FFF7EF
:104810006DFE2046E5E700BF000300500060004049
:104820000000AD0B024B0B6001231360704700BF0B
:10483000602600200048704728AE000010B5012215
:1048400011460648064C05F09AFC05F0DEF920609A
:1048500005F0D7F96060002010BD00BF6826002079
:10486000602600204FF08042D2F81015D2F81035A3
:1048700001F01E0123F01F030B4343F00103C2F8B4
:104880001035024B00221A70704700BF1C2B00200D
:104890004FF08053D3F83031082B22D14FF08042B3
:1048A000D2F8101511F001001CD0D2F8100501F05B
:1048B0001E0120F01F000843C2F81005D2F80801BD
:1048C00058B1D2F8103523F01F030B4343F0010316
:1048D000C2F810356FF08B007047034B01221A703D
:1048E00070470020704700BF1C2B00202DE9F843C3
:1048F0000E463046194617461C4605F0B1F888B3F7
:1049000046EA040515F003052CD1BCB11748DFF8C1
:1049100060904FF0FF324FF0FF3301F0B1FF24F011
:104920000304A54206EB05080BD1124AD2F8003465
:10493000DB07FBD500240D4801F07CFF2046BDE8D5
:10494000F883FFF7A5FF50B97959404600F05AFBAC
:1049500099F800300BB1FFF785FF0435E1E76FF000
:104960008B04E8E76FF01504E8E700BF6826002035
:104970001C2B002000E001402DE9F0410D461646B9
:1049800005F03FF931460746284605F069F878B347
:10499000B5FBF7F307FB135353BBB6FBF7F407FB69
:1049A00014642CBBBE421DD34FF0FF324FF0FF33D7
:1049B0001148DFF8488001F063FF05F022F907464F
:1049C000FFF766FF044680B9284600F0FBFA98F826
:1049D00000300BB1FFF746FFF61B3D44F0D106480F
:1049E00001F028FF2046BDE8F0816FF08B04F6E768
:1049F0006FF01504F6E700BF682600201C2B00208E
:104A0000044A1368C81A20F07F400344136002F080
:104A1000E1BC00BF8C2600202DE9F843860006F19A
:104A2000804600F1500406F58836A400A4B204F1D3
:104A300080444FF48037D6F84035DFF86C8021F0A1
:104A40007F4504F588348740D8F80495A3EB090323
:104A500023F07F4329F07F42012BC6F8402502D185
:104A6000132005F015FD09F10202AB1A23F07F4374
:104A7000B3F5000F88BF1546002323602368C8F8EC
:104A8000447325F07F43C6F84035D8F8043599457E
:104A900006D0EB1A023B23F07F43B3F5000F01D899
:104AA000BDE8F8832B46CFE70010014070B5154DE7
:104AB000154C00262B68002006B170BDD4F80423E5
:104AC000D203FAD5D4F84021002AF6D0C4F84061C8
:104AD000D4F840214FF48032C4F84823D4F840156C
:104AE000D4F80465721A22F07F42B2F5000F88BF35
:104AF000314601261BB16A6828609847DAE72B60C7
:104B0000DBE700BF802600200010014038B50F4CC5
:104B100000254FF48033C4F80855C4F804330C4B17
:104B20004FF40032C3F8802101212A461120FEF7FC
:104B300023FA1120FEF7EEF90123064AA3600220B2
:104B400023601360FFF7DAFB284638BD00100140F0
:104B500000E100E088260020134AB0F1FF3F14BFB7
:104B600003461346013B002B1CDD9342A8BF1346AE
:104B70000E4AD2F804050E4A1168401A10F4000FCC
:104B800020F07F4218BF002301321344094A0A482B
:104B9000106000205060044A934294BFC9188918DD
:104BA000FFF73ABF0023E3E7FFFF7F00001001405B
:104BB0008C26002080260020014A0000044BD3F8F8
:104BC0000405044B1B68C01A20F07F40704700BFEB
:104BD000001001408C2600204FF08053D3F8302184
:104BE000082A06D1D3F83431052B02D8024AD05C0A
:104BF00070470020704700BFA2B30000024AD2F8FD
:104C00000034002BFBD0704700E0014010B504F0E9
:104C1000BAFF40B14FF080430022C3F80C21C3F823
:104C20001021C3F8382504F0AEFF002846D04FF01D
:104C30008052604BD2F80414C3F82015D2F808143F
:104C4000C3F82415D2F80C14C3F82815D2F81014A0
:104C5000C3F82C15D2F81414C3F83015D2F8181470
:104C6000C3F83415D2F81C14C3F84015D2F8201438
:104C7000C3F84415D2F82414C3F84815D2F8281400
:104C8000C3F84C15D2F82C14C3F85015D2F83014D0
:104C9000C3F85415D2F83414C3F86015D2F8381498
:104CA000C3F86415D2F83C14C3F86815D2F8401460
:104CB000C3F86C15D2F84424C3F87025FFF78CFFB5
:104CC00018B13D4B3D4AC3F88C26FFF785FF18B15C
:104CD0003B4BFB22C3F81825FFF77EFF70B14FF066
:104CE00080414FF08053D1F8E42ED3F8583222F0AF
:104CF0000F0203F00F031343C1F8E43EFFF76CFF0C
:104D000020B1304B4FF40072C3F8402604F03BFF53
:104D100048B14FF08043D3F80024D20744BF6FF06E
:104D20000102C3F800244FF08053D3F83021082A41
:104D30000ED1D3F83431052B02D8234AD35C3BB1D2
:104D40004FF01023D3F808224FF08043C3F85825C2
:104D50004FF01023D3F80022002A03DBD3F80432EB
:104D6000002B22DA194901234FF01020C1F8043535
:104D70001224FFF743FFC0F80042FFF73FFFC0F8DF
:104D80000442FFF73BFF0023C1F80435FFF736FF6D
:104D9000BFF34F8F0E490F4BCA6802F4E062134312
:104DA000CB60BFF34F8F00BFFDE70B4B0B4A1A6080
:104DB00010BD00BF00C0004000500040488103000B
:104DC00000F00040009002409CB3000000E0014071
:104DD00000ED00E00400FA05540200200090D0032A
:104DE000044B1A7922B9012218609A800248704750
:104DF00002487047902600200000AD0B0C00AD0B60
:104E000008B50020FEF7AAF808B9FEF783F8024BB0
:104E100001221A7008BD00BF1D2B002038B510B14B
:104E2000012817D038BD4FF080440223C4F808335E
:104E3000C4F80401D4F804310123E36042F2107590
:104E4000D4F81834DB03EDD5012004F0A6FE013DB3
:104E5000F6D1E7E74FF080440023C4F80803C4F814
:104E60000031D4F80031606042F21075D4F80C348F
:104E7000D4F80C24D20303F0010305D523B101209B
:104E800004F08BFE013DF1D1014B00225A71C9E7BC
:104E9000902600204FF0804310B5D3F800216AB16E
:104EA0000022C3F80021D3F800210122C3F808230F
:104EB000114B587910B95A711B6898474FF08043CD
:104EC000D3F8042172B10022C3F80421D3F80421DD
:104ED000D3F81824D3F81814920704D10122C3F888
:104EE00018259A6010BD0222C3F80823024BBDE8C2
:104EF00010401B680120184790260020012303FA68
:104F000000F0C3B293B14FF02003EFF3118183F3AC
:104F10001288BFF36F8F064AD36D23EA0000D06575
:104F200081F31188BFF36F8F0248704702487047C2
:104F3000982600200000AD0B0400AD0B2DE9F041D8
:104F40000546DFF85CE01748DFF85C800024FF22AC
:104F50000126E3B24FF02001EFF3118C81F31288A8
:104F6000BFF36F8F22FA03F1C9070AD5DEF85C1090
:104F700006FA03F7394201BF3943CEF85C104046C8
:104F80002B708CF31188BFF36F8F404505D006FA64
:104F900003F39A4304F10104DBD1BDE8F08100BFC3
:104FA000982600200200AD0B0000AD0B044AD2F899
:104FB0000034DB07FBD50160BFF35F8F704700BF94
:104FC00000E001404FF080531A69B0FBF2F302FB9E
:104FD000130373B9084B0222C3F80425C3F808056C
:104FE000D3F80024D207FBD500220448C3F80425D7
:104FF00070470348704700BF00E001400000AD0B60
:105000000A00AD0B10B5054C0123C4F80435FFF7B9
:10501000CDFF0023C4F8043510BD00BF00E00140FF
:1050200010B5184C237853BB02789107C2F34003A4
:1050300011D54FF08053D3F8301108291DD1D3F882
:105040003431052B19D81049C95C012319B14FF02F
:105050008041C1F838364FF0804102F00102C1F8BA
:1050600080350020C1F87825FDF778FF08B9FDF7F5
:1050700051FF01230548237010BD0123EBE70448CD
:10508000FAE700BF1E2B0020A8B300000000AD0B04
:105090000C00AD0B4FF080434FF46072C3F808234F
:1050A000014B00221A6070470027002008B5FFF767
:1050B000F1FF03680BB1014A136008BD002700200F
:1050C0004FF0804310B5D3F80443620707D54FF47F
:1050D000847004F09EFD10B11E4B1B689847A30618
:1050E00008D54FF48A7004F094FD18B11A4B0020D3
:1050F0001B689847600608D54FF48C7004F089FD52
:1051000018B1154B01201B689847210608D54FF4AC
:105110008E7004F07EFD18B1104B00201B6898477C
:10512000E20508D54FF4907004F073FD18B10B4BF5
:1051300001201B689847A3050AD54FF4927004F02C
:1051400068FD28B1054BBDE810401B6802201847D8
:1051500010BD00BFF8260020FC26002000270020FC
:105160004FF08053D3F83021082A06D1D3F83431D8
:10517000052B04D8034AD05C7047002070470120FB
:10518000704700BFAEB30000054B10F0800FA3F1D5
:10519000900208BF134600F00F0003EB00107047A9
:1051A0007428002008B504F055FD18B1034B002207
:1051B000C3F81C2C024B00221A7008BD007002407C
:1051C000202B002007B5094A00231370084AADF8C8
:1051D000053013708DF8073001238DF80430054B2E
:1051E00001A81B68984703B05DF804FB1F2B002043
:1051F000222B002004290020214B13B5D3F80044B2
:10520000C3F80044E105D3F800340ED51D4B01224C
:105210001A700023ADF805308DF8073002238DF8A1
:105220000430194B01A81B689847A2050DD5154AF3
:1052300000231370ADF805308DF8073003238DF887
:105240000430114B01A81B689847630515D50D4A1A
:10525000137893B100231370094A0121C2F808158D
:105260009165926DADF805308DF8073004238DF807
:105270000430054B01A81B68984702B010BD00BF61
:10528000007002401F2B0020042900204FF0200353
:10529000EFF3118083F31288BFF36F8F0A4BD3F8BB
:1052A000001C032261B949F27531C3F8001CC3F830
:1052B000142DC3F8001C80F31188BFF36F8F704763
:1052C000C3F8142DF7E700BF00E006404FF02003BD
:1052D000EFF3118083F31288BFF36F8F0A4BD3F87B
:1052E000001C61B949F27532C3F8002CC3F8141DD3
:1052F000C3F8002C80F31188BFF36F8F7047002232
:10530000C3F8142DF6E700BF00E00640F8B54D687D
:105310000B4F954228BF15460C4606462A4609689B
:10532000384604F0F0F960682268401BC6E9007551
:105330002A4460600038226018BF0120F8BD00BF19
:1053400008290020F8B54C68944228BF1446064648
:105350000D468CB1094F09682246384604F0D3F94E
:1053600037606B6874601B1B6B602B68201E2344C6
:105370002B6018BF0120F8BD0460F2E70829002067
:1053800007B500238DF804300B4BD3F82025ADF87A
:105390000620D3F8C034094A002B13680CBF4FF421
:1053A00080714FF001210B431360054B01A81B686E
:1053B000984703B05DF804FB00700240E02700202E
:1053C00004290020064BBFF35B8F53E8002F0240F7
:1053D00043E800210029F8D1BFF35B8F704700BF7D
:1053E0007027002008B5FFF7DDFE084B93F89E20DC
:1053F000032A05D1BDE808406FF00100FFF7E2BFC6
:10540000D3F89030002BF5D008BD00BFE427002072
:1054100073B50D461F4901220E6802FA05F33343A6
:1054200010F0800F1C4E0B60044626D000F00F02D7
:105430001A4B33F8123003F1804303F51C331A681A
:1054400032B100221A6080281B6813D004F052FC8D
:105450003168E94011F001010AD106238DF80430CA
:105460008DF806408DF807100D4B01A81B68984772
:1054700002B070BDFFF7B6FFEAE73168E940CB073D
:10548000F6D406238DF804308DF806008DF8072039
:10549000EAE700BFE027002070270020BCAE000034
:1054A0000429002008B5054B1A78104604F018FCB2
:1054B000BDE8084001461046FFF7AABF222B002096
:1054C00007B5FFF76FFE0C4B93F88E20032A10D020
:1054D000D3F880306BB96FF08070FFF773FF06234D
:1054E0008DF804300823ADF80630044B01A81B6882
:1054F000984703B05DF804FBE4270020042900204E
:1055000007B5FFF74FFE104B93F81E21032A06D173
:105510006FF4807003B05DF804EBFFF753BFD3F86E
:1055200010316BB96FF48070FFF74CFF06238DF8D4
:1055300004308823ADF80630044B01A81B68984757
:1055400003B05DF804FB00BFE4270020042900201D
:10555000024A00231360024A137070470429002096
:10556000212B002008B5484B4FF40062C3F80024FB
:10557000D3F80034FFF7F4FD08B1FFF787FE04F01D
:1055800069FBC8B14FF02003EFF3118083F3128859
:10559000BFF36F8F3D4BD3F8001CC02200296AD1A6
:1055A00049F27531C3F8001CC3F8142CC3F8001C71
:1055B00080F31188BFF36F8F334B0122C3F80025AE
:1055C000D3F80025D3F800241205FBD54FF4006270
:1055D000C3F80024D3F8003404F03CFBC0B14FF012
:1055E0002003EFF3118083F31288BFF36F8F274BF3
:1055F000D3F8001C002941D149F27532C3F8002CC0
:10560000C3F8141CC3F8002C80F31188BFF36F8F0C
:10561000FFF7A6FD30B1FFF759FEFFF7A1FD08B176
:10562000FFF734FE04F016FB174B50B140F2E37263
:10563000C3F800284022C3F80428BFF36F8FBFF3DC
:105640004F8F00218022C3F81C25C3F83015104B62
:1056500040F2FF121A600F4B1960FFF7A3FD0E4BCB
:1056600019700E4B02221A70FFF77AFD50B1BDE897
:105670000840FFF72BBEC3F8142C99E70022C3F8AB
:10568000142CC1E708BD00BF0070024000E00640D6
:10569000E027002070270020222B0020212B002053
:1056A0000A4B002210B51A70094A0A4B0A4C00280E
:1056B00018BF1346C4F804332720FDF72BFC012341
:1056C000C4F80435D4F8043510BD00BF1F2B0020EA
:1056D0000714E0010714C00100700240034B187862
:1056E000012894BF00200120704700BF212B00201B
:1056F0002DE9F0411D4B1C78002C35D11C4A10605F
:1057000001221A70254640F2FF18274665F07F06F1
:1057100015F0080FF6B214BF41464021304604F0A0
:1057200019FB3046FFF730FD0135092D87730760FF
:105730008760EBD14021002540F2FF16204604F09F
:1057400009FB2046FFF720FD0134E4B2092C8573E4
:105750000560856002D10748BDE8F08114F0080FAC
:1057600014BF31464021E9E70348F5E7212B00202B
:10577000042900200000AD0B0500AD0B2DE9F84316
:1057800005464FF02003EFF3118883F31288BFF32F
:105790006F8F10F00F0403D1274B1B78834246D143
:1057A000264B274F1A683E68284604F099FAD243E0
:1057B00092B24FF00109324309FA00F912EA090FD7
:1057C00037D12846FFF7E0FC0C2254432A06034653
:1057D00029D51C4A0868144400F060408A68B0F17A
:1057E000005F02F0010219D1B2B9174A1A6007C965
:1057F00084E8070000229A609A735C60134B144897
:1058000046EA090680223E60C3F8042188F3118825
:10581000BFF36F8FBDE8F8830E4AE7E70AB90E4A77
:10582000E4E70E4AE2E70E4A14440E4ADEE70E4869
:10583000ECE70E48EAE700BF222B0020E02700201B
:105840007027002074270020959C000000E100E0F4
:105850000000AD0BB79C00000D5300004553000045
:1058600004270020679C00000A00AD0B0B00AD0B65
:1058700010F0080F074B06D0D3F8C00410F4803F97
:1058800018BF0020704700F00F0000F5947053F827
:1058900020007047007002402DE9F04F5B4D2B78DF
:1058A00085B0002B6AD15A4E5A4C31682368194092
:1058B00064D011F0012364D093FAA3F1002963D0DE
:1058C000B1FA81F10F2961D9A1F110085FFA88F8C6
:1058D0004046FFF759FC4FF0010B4FFA88FA0BFADC
:1058E00001F1BAF1000F81466FEA010B51DA03684A
:1058F0008289416802A8984708B9C9F8000004F0F5
:10590000A9F918B1444B8222C3F81C2C0123216849
:10591000039A2B70D9F8083001EA0B011344BAF14D
:10592000000F2160C9F8083008F0080002993A4BCE
:1059300008F00F085ADA002850D0C3F8A016C3F8B0
:10594000A426042303EB880303F1804303F51C33EF
:1059500001221A601B68314A314B2F4913EA2A038E
:1059600038BF134633F8183003F1804303F51C3376
:105970001A681AB9D1F80021002AF9D005B0BDE89B
:10598000F08F91FAA1F199E720219DE741F080087D
:105990009EE74046FFF76CFFB9F80C20D9F80410D9
:1059A000D9F800C00346074602A8E047029A002A39
:1059B000A2D0039A97429FD90227584689F80E70C1
:1059C000FFF700FD06238DF80430164B8DF8068096
:1059D0001B688DF8077001A8984766E7142000FB44
:1059E0000833C3F80016C3F80426AAE728B1C3F8A1
:1059F000A017C3F8A4272823A4E7142000FB08332A
:105A0000C3F80017C3F80427F5E700BF202B0020D8
:105A100070270020E027002000700240CEAE00007A
:105A2000BCAE00000429002038B5114BD3F86C44FB
:105A3000C3F86C4401251CB9BDE83840FFF72CBF02
:105A400094FAA4F171B1B1FA81F30F2B19460BDD71
:105A5000A1F11000C0B205FA01F324EA0304FFF734
:105A6000D7FCE8E72021F3E743F08000F3E700BF2D
:105A70000070024037B50446FFF794FB2046FFF75D
:105A800083FB837B032B0DD1204604F029F90123EE
:105A900003FA00F0C043FFF795FC03B0BDE83040C7
:105AA000FFF7FABE0568002DF7D1204604F018F97B
:105AB000012303FA00F0C043FFF784FC06238DF8AE
:105AC0000430044B8DF806401B688DF8075001A880
:105AD0009847E2E704290020024B40F48070C3F8A5
