:10000000A0570020553A0000F5A30000293A00004F
:10001000293A0000293A0000293A000000000000B7
:10002000000000000000000000000000713500002A
:10003000293A0000000000001D350000A5AB0000BB
:100040002136000021360000213600002136000054
:100050002136000021360000213600002136000044
:100060002136000021360000213600002136000034
:100070002136000021360000213600002136000024
:100080002136000021360000213600002136000014
:100090002136000021360000213600002136000004
:1000A00021360000213600002136000021360000F4
:1000B00021360000213600002136000021360000E4
:1000C00021360000213600002136000021360000D4
:1000D00021360000213600002136000021360000C4
:1000E00021360000213600002136000021360000B4
:1000F00021360000213600002136000021360000A4
:1001000053B94AB9002908BF00281CBF4FF0FF317E
:100110004FF0FF3000F074B9ADF1080C6DE904CE7A
:1001200000F006F8DDF804E0DDE9022304B07047D2
:100130002DE9F047089E0D4604468846002B4DD118
:100140008A42944668D9B2FA82F252B101FA02F3B5
:10015000C2F1200120FA01F10CFA02FC41EA030885
:1001600094404FEA1C45210CB8FBF5FE1FFA8CF7B2
:1001700005FB1E8341EA03430EFB07F199420BD9AD
:100180001CEB03030EF1FF3080F01E81994240F218
:100190001B81AEF1020E63445B1AA4B2B3FBF5F00F
:1001A00005FB103344EA034400FB07F7A7420AD9D2
:1001B0001CEB040400F1FF3380F00881A74240F2F9
:1001C000058164440238E41B40EA0E4000211EB160
:1001D000D4400023C6E90043BDE8F0878B4208D92C
:1001E000002E00F0EE800021C6E900050846BDE8BB
:1001F000F087B3FA83F100294AD1AB4202D382429D
:1002000000F2F980841A65EB030301209846002E62
:10021000E2D0C6E90048DFE702B9FFDEB2FA82F2B7
:10022000002A40F09180A1EB0C054FEA1C471FFA11
:100230008CFE0121B5FBF7F307FB1350250C45EAB3
:1002400000450EFB03F0A84208D91CEB050503F19D
:10025000FF3802D2A84200F2CB8043462D1AA4B246
:10026000B5FBF7F007FB105544EA05440EFB00FE12
:10027000A64508D91CEB040400F1FF3502D2A645BF
:1002800000F2BB802846A4EB0E0440EA03409EE740
:10029000C1F120078B4022FA07FC4CEA030C20FA3C
:1002A00007F405FA01F31C43FD404FEA1C4900FA2C
:1002B00001F3B5FBF9F8200C1FFA8CFE09FB185569
:1002C00040EA054508FB0EF0A84202FA01F20BD9FC
:1002D0001CEB050508F1FF3A80F08880A84240F247
:1002E0008580A8F1020865442D1AA4B2B5FBF9F087
:1002F00009FB105544EA054500FB0EFEAE4508D942
:100300001CEB050500F1FF346CD2AE456AD902380A
:10031000654440EA0840A0FB0294A5EB0E05A54207
:10032000C846A64656D353D05EB1B3EB080265EB80
:100330000E0505FA07F722FA01F3CD401F43C6E97F
:1003400000750021BDE8F087C2F1200320FA03F117
:100350000CFA02FC25FA03F395400D434FEA1C47C3
:100360001FFA8CFEB3FBF7F107FB11302B0C43EAAD
:10037000004301FB0EF0984204FA02F408D91CEB8A
:10038000030301F1FF382FD298422DD9023963447B
:100390001B1AADB2B3FBF7F007FB103345EA034578
:1003A00000FB0EF3AB4208D91CEB050500F1FF384A
:1003B00016D2AB4214D902386544ED1A40EA014125
:1003C00038E73146304607E78646E5E61846FAE65E
:1003D0004B45A9D2B9EB020864EB0C0E0138A3E738
:1003E0004046EAE7204694E74146D1E7D0467BE71E
:1003F000023B654432E7084609E76444023842E7B5
:10040000704700BF10B50F480F4C06F0FFFD20608D
:1004100030B9BDE810400B4A0C48452109F096BEA2
:1004200002698168136843F4005313600B6840F25B
:1004300001220D21984720680021BDE8104008F0F6
:10044000C3B800BFECBF0000D0060020F3BF00001F
:100450002DE9FF41584B594AC3F800265848C3F8C4
:1004600004264921C3F80826C3F80C26C3F8102631
:10047000C3F81426C3F81826C3F81C2609F066FE34
:10048000FFF7C0FF08F0B8F84E4800F0B3F828B9FD
:100490004C4A4D48452109F059FEFEE74B4806F00D
:1004A000B5FD054602698168136823F40063136093
:1004B0000B684FF488720B2198470B21284608F0EF
:1004C00072F8C0BB002140F2676007F037FD0AF008
:1004D000D8FF4FF47A76A0FB064006FB0100E40B40
:1004E00044EA404437460B21284608F05CF8804631
:1004F0000AF0C7FFA0FB073006FB0100DB0B43EA55
:100500004043A34207D1B8F1000F14D100212120AC
:1005100007F014FDE7E7B8F1000F0CD12C4B0121D7
:10052000186808F051F8404602F048F878B12948B8
:10053000452109F00BFE01A800F060FC264B1B686A
:10054000834211D02548452109F000FEFEE72448EA
:10055000492109F0FBFD4FF0FF304FF0FF3102F071
:1005600053FD20484921E4E7039A1F48492109F037
:10057000EDFD1E48492109F0E9FD69469DF8080096
:1005800000F044F8009B039C1C44019B1D890AF069
:100590000AFB66194FF02002EFF3118382F31288F1
:1005A000BFF36F8F635983F30888736898471048C7
:1005B000452109F0CBFDFEE7000001403546526EB3
:1005C00013C000002CC000003FC00000ECBF0000C2
:1005D000D00600205EC00000D8060020ADC000009C
:1005E00075C000008EC00000D0C00000FFC0000039
:1005F00024C1000010B5044C236813B906F006FDB1
:100600002060206810BD00BFD406002008B5024657
:1006100038B105480023452109F098FD6FF0150019
:1006200008BD0860FCE700BF47C100002DE9F04F9E
:10063000D9B0DDE96448DFF8C8A138A8DAF800606D
:1006400017461D4601F032F83CB1B8F1000F04DD49
:100650004246214638A809F0FAF87B89B7F80880A5
:100660009844FB684FF000099844C84549D838A918
:100670000CA809F012F9669B23B120220CA9184698
:1006800009F0E3FE002300932A464FF6FF73394634
:1006900006A807F0B2FF0446002840F0AB80DFF860
:1006A000649180464FF0FF370DF1120304AA05A9AB
:1006B00006A807F0EEFF041EC0F29C8040F08D807B
:1006C000BDF81230102B33D1BDF81080B8F1200FD7
:1006D00040F08E800599434638AA284609F0A5FDCA
:1006E0000446002840F08680424638A90CA808F04D
:1006F00047F80446444B1B6883427BD14FF0010806
:10070000D2E7DDF88CB1629AA8EB09039B4528BFBC
:100710009B465B464946284609F087FD044600286B
:1007200068D162995A4638A809F091F8D9449CE7F3
:10073000012B32D1BDF81030202B59D8059938AA99
:10074000284609F072FD0446002853D19DF810B0E8
:10075000BBF1200F03D94FF0FF342746A4E7D9F8A7
:1007600000302A4F0393039B9C42F4DA1CA800F04C
:100770009DFF7A6857F8081B12681CA809F067F8F3
:100780001CA914A809F089F85A4638A914A809F038
:100790004BFE0028E1D00134E5E7222B84D1002F65
:1007A00018DBD9F80030BB4214DDBDF81030802BC7
:1007B0001ED8059938AA284609F037FD0446C8B95D
:1007C000FFB2BDF81030009738AA20210CA800F025
:1007D0001FF806464FF0FF3766E7B8F1000F0DD05F
:1007E000094B1B68B34201D0DAF80060344601E0DF
:1007F0004FF0FF34204659B0BDE8F08F0124F9E7EF
:1008000000000020F8BB0000D8060020FCBB000060
:100810002DE9F04198B017461D469DF87820394BD8
:100820000E4653F83210039103EBC20380465B6817
:10083000186804AA0144302303A808F0B5F910B1E0
:100840004FF0FF305AE0DDE903431C4405AA08AB32
:10085000214603A808F0D0F90028F1D1069A072A0A
:10086000EED12949079809F0DFFD0028E8D1099A5F
:10087000082AE5D125490A9809F0D6FD0028DFD1DC
:1008800004AA214603A808F0A3F90028D8D1DDE97D
:10089000033213449C42D3D1412AD1D13D44302369
:1008A00005AA294604A8049708F07EF90028C7D1B4
:1008B000DDE9043213449D42C2D32A4604A908A8A4
:1008C00007F032FF0028BBD12A4604A910A807F080
:1008D0002BFF0028B4D1202EB2D1039C2378042B07
:1008E000AED100F0F7FD08AB009032464146601CE7
:1008F00008F042FE013818BF4FF0FF3018B0BDE8D5
:10090000F08100BFFCBB00006DC1000075C100009C
:100910002DE9F04186B00123DFF87080ADF800309A
:100920000D466F46002617F8010B01A902F0B6FB31
:100930000446D8B901988168102302AA103909F039
:1009400074FC044628B1019809F06EFC0EE0012603
:10095000E9E71022414602A809F066FD50B101986E
:1009600009F062FC002EF2D04FF0FF34204606B0B2
:10097000BDE8F08101980AF042FA0423A0F10801D1
:100980002A46019809F051FC0446DCE78CBF0000C0
:100990002DE9F041384B88B0064600200D461C6812
:1009A00007F021FE06A9C0B202F078FB002857D15B
:1009B000294607F018FE2C2407A9C0B204FB0564E1
:1009C00002F06CFB002836D04FF02C0808FB05F82D
:1009D00006EB0807396911F0100137D14FF4807325
:1009E0000193264B00932246CDE90311069B029109
:1009F0000846FFF71BFE0446214B56F808200698D0
:100A00009A420CD13A89FB68D1438B4207D81344F0
:100A10008268934203D21B4B1B68A3421DD045B38F
:100A20008268002109F050FC174A1848452109F056
:100A30008DFB012411E0079809F081FC0746079817
:100A400009F0F2FB631EE21C93420DD1002DF0D0A1
:100A50000699304607F088FF2C46069809F0E4FB1B
:100A6000204608B0BDE8F08113F8011FB942EBD071
:100A7000AAE7074AD9E700BF00000020442A002067
:100A80003DB8F396D80600207EC1000090C100005A
:100A900088C1000073B50D46044600212846CDE903
:100AA000001107F020FF30B3164E2368B34203D184
:100AB00001AA204607F0ABFEE36AB34204D16A46BE
:100AC0000121204607F0A3FEDDE90032934288BFF2
:100AD0000193019BAB60019A2946204600F034FB4C
:100AE000094B1A68002A03DD0848572109F02EFB3C
:100AF000002002B070BD05F10801FFF709FFAB68E7
:100B00000193E8E73DB8F3963C1B0020B8C1000014
:100B10002DE9F84FDFF870B01C4C1D4D884691460A
:100B20009A4600260B9B9E4201D300200FE00B9BB0
:100B3000154A9F1BB7F5806F28BF4FF480673B466F
:100B400006EB0A01404609F070FB10B10120BDE838
:100B5000F88F0A993B465A467118484609F081FBBE
:100B60000028F3D1C4F800563E44C4F80456C4F833
:100B70000856C4F80C56C4F81056C4F81456C4F8F5
:100B80001856C4F81C56CDE73C0700200000014071
:100B90003546526E2DE9F043904B85B004466022F5
:100BA0000F4600211E6809F05BFC8D4B636200213B
:100BB0008C4B2365084607F016FD04F12001C0B2F6
:100BC00002F06CFA0121002007F00DFD04F14C0148
:100BD000C0B202F063FA0546204607F059FE80468F
:100BE00068B900221146204607F0F9FD804608B397
:100BF0007D480022572109F0A9FA012392E07B48A1
:100C00004FF48072572109F0A1FA0123984584F826
:100C10005830E6D194F858308DF80730042B00F2A4
:100C20008480012B00F2888000F09F80FF2384F8ED
:100C300058309AE0204600F09DF90028DDD0684643
:100C400007F048FE6946204607F0E3FE18B1684801
:100C500042465721CFE7684607F045FE80F0010184
:100C60006A46C9B2204607F0BAFD02460028BFD145
:100C7000684607F038FE804660BB69462046FFF7AD
:100C800009FF9DF8073084F85830033B012B06D844
:100C9000404607F00CFF10B1FF2384F858309DF850
:100CA0000730023B022B0BD8002007F0EEFE38B1D4
:100CB000FF2384F858304F48452109F047FAFEE7F2
:100CC00094F85830FF2BF6D06A460021204607F0F2
:100CD00086FD92E79DF80790B9F1010F17D11046F4
:100CE00006F0F4F8831E022B80460DD849462046B4
:100CF000FFF74EFE404B1B68984205D001280CBF01
:100D00004FF001084FF0050884F8588082E7012170
:100D10002046FFF73DFE384B1B6898420CBF9DF8FC
:100D20000730052384F8583074E7052B7FF47EAF35
:100D3000002007F0BCFE13E069462046FFF7AAFE3C
:100D400094F85830DA1E012A05460CD8002007F026
:100D5000AEFE054600287FF469AF002007F095FE3F
:100D6000054610B162E7022BF7D094F85830FF2BFC
:100D700004D12048452109F0E9F9FEE7012B06D00E
:100D80006A460021204607F02AFD0546C0B9002129
:100D90002046FFF7FDFD0646DFF85C80D8F80030FE
:100DA00098420DD110220021684609F059FB236AB0
:100DB000D8F800605A783A715B68BB603C600025E7
:100DC000E06C09F031FA206A09F02EFA002D14BF08
:100DD0002846304605B0BDE8F08300BF0000002083
:100DE0003C0B00203C13002029C20000E7C100009A
:100DF00055C200007FC20000D806002008B5014699
:100E00000148FFF7C7FE08BDDC06002073B5164693
:100E10001C4633B3436A5D686379012B15D101BB6E
:100E20001F4B22681B689A4298BF0025002007F0DC
:100E3000DAFB01A9C0B202F031F9F0B10125019845
:100E400009F0F2F9284602B070BD022B09D12368DF
:100E5000012B08D9124A1268934202D8B1FA81F1E3
:100E600049090025E2E7FCD10029DFD00129F8D1AA
:100E70002179023918BF0121F3E72946019820237F
:100E8000324609F0D2F905460028D7D1002CD6D039
:100E9000356804482D1A18BF4FF0FF35CFE700BF63
:100EA000040000203DB8F3962DE9F04F074685B0C9
:100EB0000C4601460020164607F069FC051E52DB71
:100EC0003846E46D07F06CFC5FFA84F905F1FF38F1
:100ED00009FB08084FF0000A4FF0010B4FF0FF34F8
:100EE0009DB9BAF1010F03DD2148452109F02EF922
:100EF000631C06D0FF2C2ADC013440F2011334605D
:100F0000B380284605B0BDE8F08F6B1E00930DF14D
:100F10000F0201234146384609F087F9031E019369
:100F200023DB01220DF10F01384609F079FF019B07
:100F300040B15B4501D00AF1010A009DA8EB090808
:100F40009B46CDE7B4F1FF3F08BF2C46F5E70223EF
:100F5000A4F580747371631004F00104013301344B
:100F600033603471CDE70725CBE70125C9E700BF22
:100F70008BC20000816A426D8A4238B508D0531C8A
:100F80008B4205D01448572109F0E0F8002038BD05
:100F9000B1F5807F1CD911485721F5E7446A056DEA
:100FA00004EBC30405EBC30564686D68AC4202D072
:100FB0000B485721E8E701339A42EFD1914205D916
:100FC000436A03EBC2025368A342F1D10120DEE77A
:100FD00000231C46F0E700BFAEC20000E6C20000DE
:100FE00015C3000000B589B004A9012009F07BFFFA
:100FF0009DF81020012A41D0254B2649032A18BF0D
:101000000B469DF8132002929DF8122001929DF844
:101010001120214800924921204A09F097F806A999
:10102000022009F060FF9DF81820012A28D0184BF3
:101030001849032A18BF0B469DF81B2002929DF801
:101040001A2001929DF8192000921348144A492150
:1010500009F07CF89DF81030012B13D19DF8123067
:10106000032B0FD19DF81830012B0BD00D484921CF
:1010700009F06CF8022009B05DF804FB0A4BC0E7E8
:10108000094BD9E70948492109F060F80020F2E747
:1010900046C300004CC300005EC3000050C3000004
:1010A0009FC30000AFC3000041C30000CEC30000D7
:1010B00070B54B6814461E4A03F0FF23934286B076
:1010C00006460D462FD10B68012B2CD104A92046D2
:1010D00005F0ACFE9DF81020012A26D0154B1649CC
:1010E000032A18BF0B469DF8132002929DF8122088
:1010F00001929DF8112000921048114A492109F0EF
:1011000025F89DF81030032B0DD12146304607F00D
:101110002BFC204609F0DEFEA968204607F050FBB4
:10112000204605F075FE06B070BD064BDBE700BF3C
:101130000001000446C300004CC300005EC3000071
:101140009FC3000041C300002DE9F04F436A0C46E5
:101150005E6889B005460121002333449A4208465F
:1011600001F10101F9D8724B1860204607F0BBFB72
:10117000B8B1E86D07F006FBAB6A0022013B3244D0
:10118000904201D9013BFAE7694A12689A4208D3B2
:101190006848572108F0DAFF0123E37109B0BDE880
:1011A000F08F06A9012001F079FF07A9022001F0C4
:1011B00075FF079A21462846FFF77AFF6379012BCE
:1011C00008D15B4BDFF870B11F68594B1B68A7B99A
:1011D000012323604FF00203DFF85C816371012774
:1011E000534BDDF818901B689F424AD9484609F0D6
:1011F0001BF8079809F018F8D0E7226801339B1A0A
:101200009F423CD86B6ADDF81880196853F83700A4
:1012100003EBC703012A53F8083CA0EB0109A3EB39
:10122000010A12D1E268079B022A0AD041462846E9
:10123000039307F099FB22464146284607F0CAFB74
:10124000039B1946284607F08FFB32464946404625
:1012500007F088FB534642464146CDE900962846B2
:10126000FFF756FC2146284607F04AFB2368013366
:10127000236020B1DBF800300133CBF80030013FB0
:10128000A3E723689F4251D36A6ADDF81CA052F895
:1012900037100491FB0011680391083B296DC85871
:1012A0000968A0EB010B217901293DD1D158039B9D
:1012B0003246C91A4846059107F054FB059900913A
:1012C0005B464A46514601962846FFF721FC2146D7
:1012D000284607F015FB4FF00203237120B1D8F820
:1012E00000300133C8F8003032465946504607F006
:1012F00039FBDDE9032349469B1ACDE900B6524686
:101300002846FFF705FC2146284607F0F9FA23682E
:10131000013323604FF00103237138B1D8F8003056
:101320000133C8F8003001E00229DDD0013757E76A
:1013300004000020E5C300003C1B0020024B0A46CD
:101340001B680021184700BF08000020F0B50822E4
:1013500089B007F08FFDCB6A03930B6B04934B6B43
:1013600005938B6B0693CB6B079313466A460C462B
:101370000646002711461046CDE90177009707F091
:1013800086FC31460546304607F081FC216B03910F
:10139000616B0491A16B0591E16B0544CDE90617E2
:1013A0001046114607F073FC31460544304607F0FD
:1013B0006EFC0544206A0090606A0190A06A029069
:1013C000A06B0690E06B07903046CDE90477039759
:1013D00007F05DFC0544606A0090A06AD4F838C04C
:1013E0000190E06A0290CDF810C0606BD4F83CC068
:1013F0000390CDE905C0206A0790304607F047FC0E
:101400000544E06A0090206B0190606B0290206AB6
:101410000690A06A07903046CDE90477039707F05D
:101420005FFD236B0093636B0193A36B0293E36BEC
:101430000393636A0693E36A07932D1A08233046E1
:10144000CDE9047707F04CFD636B0093A36B019328
:10145000E36B0293236A0393636A0493A36ACDE95F
:101460000537236B07932D1A0823304607F038FD04
:10147000A36B0093E36BCDE90137636A0393A36A1F
:101480000493E36ACDE90537636B07932D1A0823AC
:10149000304607F025FD2D1A10D40D4C35B9082221
:1014A0003146204607F0F2FC01280FD008232246DF
:1014B0003146304607F014FD2D1AEFE7044A0823A1
:1014C0003146304607F0E3FB2D18F8D409B0F0BDE3
:1014D00008BC00000048704704BC00002DE9F04F34
:1014E0009DB0036802934368039383680493C368C1
:1014F0000593036906934369079383690893C36956
:101500000993DDE907CBDDE905E2DDE9024698460E
:10151000DFF890A1049B00930027CD590CAB2DBAA6
:10152000DD515AF8043B05EB03094FEAF22585EA41
:10153000B21585EA72654D442BEA020302EA0C09F2
:1015400083EA09032B44009DDDF800904344754075
:101550004FEA743888EAB408254006EA090985EAA2
:10156000090588EAB4580437A844402F03EB0E0558
:101570004344DDF800E0D84640F085804A490A91AE
:101580004FF0100A51460AF1010A0DF1700E0AF0EF
:101590000F070EEB870701F00F0957F8407C019702
:1015A0004FEAB74888EAF71801F10E0707F00F076E
:1015B0000EEB8707093157F8407C4FEAF74E8EEA69
:1015C000774ECDF82CE001F00F010DF1700E0EEB0F
:1015D00089090EEB810159F840EC51F8401C714427
:1015E000DDF804E088EADE08DDF82CE041448EEA0C
:1015F000972E0A9F714449F8401C57F804EB0A974C
:101600004FEAF52905EA020889EAB5192CEA050727
:1016100087EA080789EA75694F4477443944594491
:101620004FEA733784EA060B0BEA030B87EAB3072A
:1016300004EA060EDDF8008000968BEA0E0E87EABB
:10164000B3577744BAF1400F8844E346394421D177
:10165000029F0F44039907601944049B416023448F
:101660008360059B3344C360069B43440361079B2F
:101670002B444361089B13448361099B6344C3610A
:101680001DB0BDE8F08FE3460096944626462A46F4
:101690001C4642E7944626462A461C4645460B46CB
:1016A00070E700BFB4BC0000F4BC000010B50446F5
:1016B000C8B17022002108F04FF90B4B0B4A0C49BE
:1016C0000C48C4E900230C4BC4E902130B4BC4E9DA
:1016D00004030B4BA36103F17453A3F52303A3F697
:1016E0009243E361012010BD85AE67BB67E6096ADE
:1016F00072F36E3C7F520E513AF54FA58C68059BF4
:10170000ABD9831F0B6801330B60014B1B68184773
:101710000C000020014B1860704700BF0C00002037
:1017200007B50B46002102460191034801A900F0CC
:10173000E5F803B05DF804FB051700002DE9F84F4C
:10174000B0F8189019F00808044693460DD0012906
:101750000CBF49F0100949F02009A0F818908BF34C
:101760001188BFF36F8FBDE8F88F09F007090229D0
:1017700007D1204608F048F90028F0D00128238B33
:101780004ED16769218B002F15DA256821F00701FA
:10179000C4E9008841F0010121830026218B01F07A
:1017A000070ACA4502D0A368002B5AD10DB9002EF2
:1017B00071D0002356E001F007035A1F012A1ED8FA
:1017C00021F00701062B256889B2C4E900880AD1F7
:1017D0003DB1638B2A46126801339BB2002AFAD1CD
:1017E000638341F002012183204608F00DF906468B
:1017F0000028D3D0238B43F020032383CDE7042B91
:101800000CD121F0070189B22183204608F0FCF8B1
:1018100005460028C1D041F0200121830025BCE706
:10182000032809D1226923F00703166843F0060351
:10183000238300252F46B1E7042806D1226923F02F
:101840000703566843F00403F2E7052806D122692E
:1018500023F00703966843F00503E9E700252E46C9
:10186000E8E7012341F0080121838BF31188BFF3DE
:101870006F8FFBB985BB16B11F492046B0474FF0AB
:101880002003EFF3118B83F31288BFF36F8F238B49
:1018900023F008032383238BDA0625D523F01003D6
:1018A00023830121B4F8189009F0070900297FF477
:1018B0005EAF54E7A1680029DCD0D1F80090D1F8E0
:1018C00004B03B4652462046D847B9F1000FD1D06C
:1018D0004946D9F80090F2E729463B465246204651
:1018E0002D6808F0ADF8C5E713F020011EBF23F006
:1018F000200323830221D5E76D9A00002DE9F04FE4
:101900008FB01E46531E01908A4602934FF0000985
:10191000029B5878252803F1010421D118464FF085
:10192000000C4FF0FF3702306346CDF80CC03C4648
:101930000A2502780290392A00F1010058D81F2A9E
:1019400018D8002A00F0FE81019B514625209847B7
:10195000029B51461878019B984709F10209D7E785
:10196000002800F0EF81019B5146984709F10109D9
:101970000294CDE7A2F120011929E5D80FF2040E57
:101980005EF821F0ED190000491900004919000026
:10199000ED19000049190000711A000049190000F2
:1019A000491900004919000049190000B31A000044
:1019B000ED19000049190000C51A00007F1A000047
:1019C000491900008B1A0000A71A0000A71A00008E
:1019D000A71A0000A71A0000A71A0000A71A000003
:1019E000A71A0000A71A0000A71A00009446A0E753
:1019F000582A00F01781A2F163015FFA81FEBEF15F
:101A0000170FA1D817299FD80FF2040E5EF821F006
:101A1000831C0000EB1A000049190000491900005E
:101A200049190000CB1A0000EB1A00004919000008
:101A300049190000CB1A000049190000491900009B
:101A400049190000D11B0000491900004919000084
:101A5000651C000049190000EB1A0000491900003C
:101A600049190000D11B000049190000CB1A0000E1
:101A7000019B51462520984709F1010948E7039A3F
:101A800002F0FE020392002753E7002C0BDA002F2E
:101A90000BDA0399002900F04D8124EAE47405FB78
:101AA0000424303C45E7002FF7DB05FB0727303FD8
:101AB0003FE7002F56F8042B80F23E81002A80F287
:101AC0003D8154420222039233E7682A03D1682BF6
:101AD00006D148232DE76C2A02D16C2B00F030810F
:101AE000002B7FF431AF134623E77A2B06D1752AFA
:101AF00056F8045B61D14FF000080DE06C2BF6D076
:101B00004C2BF4D1073626F007031E46752AF6E85B
:101B1000020107D1D3E90058BCF1200F50D18B4B03
:101B2000013C09E005468846B8F1000FF4DA6D4241
:101B3000874B68EB4808013C00930DAB04934FF0D2
:101B4000000B284641460A220023CDF814B0FEF7C8
:101B5000D7FA049B303203F8012928460493414602
:101B600000230A22CDE90658FEF7CAFA069B0A2B83
:101B7000079B73F100030BF1FF3B05468846E0D25B
:101B8000059BC3F1010B38330DEB0305002FA5F1C5
:101B9000040504DA039B13F0010F18BF2746039BCB
:101BA000A7EB0B08B8F1000FD4BFA4EB0B04E41BA8
:101BB000980700F18380274673E04FEAE578B3E7A2
:101BC000BCF12B0F0ABF634B634B04F1FF34B3E747
:101BD000702A27D156F8041B0023002959D05F48EA
:101BE0000090023C02F06002A2F139080DF1340EBF
:101BF000002501F00F02092A88BF424430320EF856
:101C0000012910294FEA111242EA03724FEA131018
:101C100073F1000305F1FF3C20D2C5F1010B05F182
:101C20003803B1E76C2B03D156F8041B002308E0FE
:101C30004C2BF9D1073626F007031E465B6856F891
:101C4000081BBCF1230F06D1454D444812F0200F6C
:101C500008BF2846C4E740480090C3E765461146E0
:101C60000346C6E756F8045B284608F0CAFB002F77
:101C7000834602DBB842A8BFBB46374B0093002720
:101C80008DE756F8043B8DF820304FF0010B08AD7E
:101C9000F3E7344D4FF0050BEFE7019B5146202051
:101CA0009847013FF9D5631E591CACBF224600225C
:101CB000C4F10004B8BF002491441C44009FA9EB68
:101CC000070304E000935146019B9847009B03EBF8
:101CD000070917F8010B0028F4D14746013F19D531
:101CE00008F1FF330133B8BF4FF000085F46013FF2
:101CF00015D50BF1FF330133B8BF4FF0000BD844BB
:101D00002546013D11D5631E0133B8BF0024A04410
:101D1000C144FDE5019B514630209847DEE715F8A8
:101D2000010B019B51469847E1E7019B514620205A
:101D30009847E6E70122C6E61746FAE51446F8E5B5
:101D40004C23F6E548460FB0BDE8F08FD0CD00003B
:101D50006FC4000071C40000DBD3000076C4000033
:101D600073C4000079C4000008B504464FF0200297
:101D7000EFF3118382F31288BFF36F8F08F013FF24
:101D8000204601F083FF034807F017FE01F0F4FA44
:101D9000FCE700BF7FC400004306F0B519D00E4A2F
:101DA0000E4B0F499B1A9B104B4300249C4201D1C0
:101DB0000020F0BD156A177F0021043DCEB2B74266
:101DC00002D801342432F1E7013115F8316086423E
:101DD000F4D10120EDE700BF0804002050040020EA
:101DE000398EE338F0B5104B104C114D1B1B9B1076
:101DF0006B43104DD5F824C000259D4202D16FF0F1
:101E00008500F0BD676867450AD3266946B197F833
:101E100002E00779BE4503D13346BDE8F0401847DC
:101E200001352434E9E700BF5004002008040020F5
:101E3000398EE338401B00202DE9F047174D184C30
:101E4000184BDFF864A0641BA41006460F469046AA
:101E50005C434FF000094C4503D16FF08500BDE8AD
:101E6000F0876A68DAF824309A4212D3AB6983B1FA
:101E700090783179884205D1424639463046BDE8EE
:101E8000F04718475279012A03D142463946304675
:101E9000984709F101092435DDE700BF0804002057
:101EA00050040020398EE338401B00202DE9F84310
:101EB0000E4D0F4C0F4B641BA41006460F46904668
:101EC0005C434FF000094C4502D16FF085000BE0F8
:101ED0006B691BB909F101092435F4E7424639461B
:101EE000304698470028F5D1BDE8F8830804002063
:101EF00050040020398EE33807B583788DF8003020
:101F00004279037943EA0223ADF80230C378684688
:101F100003F003038DF8043002F026FB10F1780F74
:101F20009DF8002015D11348572108F00FF99DF8AE
:101F3000000002F0ABFB10F1780F14D19DF80020E7
:101F40000D48572108F002F90C4B012083F8B90025
:101F500006E00028EBD00A48452108F0F7F80020F9
:101F600003B05DF804FB0028EED09DF80020054882
:101F70004521F2E7A8C40000F9C40000401B00207E
:101F8000D0C400001EC5000002480822002108F04D
:101F900067BA00BFFB1B0020094808B50378C3F3EC
:101FA00041130A3350F823303BB100F1080200F12D
:101FB00010019847C043C00F08BD1846FCE700BF9A
:101FC000401B00202DE9F14F284B294CE41A294BE6
:101FD000A410042805460E4603FB04F41CD1FFF7A9
:101FE000D3FFDFF8949099F8B930BBB100F082FDCF
:101FF000042D13D11D4F4FF00008444525D0D7F8CC
:1020000020B04FF0000A3A7F5FFA8AF39A4213D861
:1020100008F101082437F0E70528E2D0134F4FF00C
:102020000008A04515D1144B1B6AE3B13146284680
:1020300001B0BDE8F04F18470BEBC3030AF1010AEA
:10204000187902F04DFB0028DDDA002389F8B93059
:10205000E4E7FB681BB1324629463846984708F149
:1020600001082437DDE701B0BDE8F08F0804002047
:1020700050040020398EE338401B00202DE9F04F3A
:10208000A44EB36985B005460F4690465BB92878E3
:1020900000F01F03012B7AD0022B00F0F1803BB13E
:1020A0006FF015008DE098470028F0D1002088E0FF
:1020B00095F900206878002A2BDA0628D8F8002045
:1020C00009D008281FD00028EAD1012350701370CE
:1020D00002233B6075E069880A0A101F0128DFD9D6
:1020E000072ADDD8CCB2716A18460B78002BD7D0FE
:1020F0004D78954203D1844200F03B810130194470
:10210000F3E70B783BE196F8BA10117001223A60C0
:10211000CCE7052818D00928C2D16C8844B14FF00B
:10212000FF08776A1846C1463C789CB90028B7D0AA
:10213000FFF72AFF6B8886F8BA30F369002BB5D019
:10214000754903209847B1E7A87802F0D7F900282D
:10215000ACD0A5E77B78042B0CD0052B0DD0022B3F
:1021600005D197F805806A88424508BF01203B7871
:102170001F44D9E797F80390F9E76B884345F6D1F8
:10218000B9F1000FF3D13846FFF7B6FEEFE796F846
:10219000BA30002B84D0746AB5F804C0287923467D
:1021A0001A78002A3FF47CAF5978022904D193F8B9
:1021B00004E0864500F2E5801344F1E710705070AA
:1021C000396005B0BDE8F08F0C44E8E00B287FF4DF
:1021D00067AF00224FF0FF09DFF840B14F4690464D
:1021E00006E06378042B11D0052B22D023781C4401
:1021F0002378002BF5D1F36923B1414607200192E2
:102200009847019A002A7FF451AF49E794F8029069
:10221000A988E77889454B46E8D168888742B9B2F2
:10222000E4D1072B2AD83344A04683F8BB100122FF
:10223000DCE7AB884B45D9D1AB78BB4219D094F8D9
:1022400002A0504600F038FC504602F049FA10F166
:10225000780F05D152465721584607F077FFE6E739
:102260000028E4D02E485246452107F06FFF002297
:10227000BCE72046FFF740FE0246B7E7A046F6E778
:1022800095F900206B78002A19DA002B7FF408AF4B
:102290002C792046FFF780FD00283FF401AF61064E
:1022A00004D096F8BA30002B3FF4FAAED8F80050BC
:1022B0002046294602F0CEF90020687008E7012B7D
:1022C00032D0032B7FF4ECAE6B88002B7FF4E8AEAA
:1022D0002C798DF80F402046FFF75EFD00283FF473
:1022E000DFAE630604D096F8BA30002B3FF4D8AEC8
:1022F0000C482246492107F029FF9DF80F0002F003
:102300005BF9F369002B3FF4D1AE0DF10F0108200A
:1023100018E700BF401B0020FA1B002044C5000046
:102320006AC50000ABC500006B88002B7FF4B8AE17
:102330002C798DF80F402046FFF72EFD00283FF442
:10234000AFAE620604D096F8BA30002B3FF4A8AEC8
:102350001D482246492107F0F9FE9DF80F0002F0C2
:1023600059F9F369002B3FF4A1AE0DF10F010920DB
:10237000E8E6022AC8F800107FF4C3AE4B883B6041
:1023800094E695F900306878002BBFF61FAFD8F8B7
:10239000002000283FF412AF0A287FF481AE217894
:1023A00000293FF47DAE6378042B7FF40DAFA37852
:1023B0009C457FF409AF072B96BF9B19002393F828
:1023C000BB3013700123DAE791C500002DE9F04717
:1023D000DFF838A005460F469046994604264B463E
:1023E00042463946284602F0A1F910F10B0F044687
:1023F00008D12A465721504607F0A8FE05F016FDE1
:10240000013EECD12046BDE8F08700BFC3C5000007
:1024100013B5134C237DC3B9E268A168019201ABE7
:102420008020FFF7D3FF0199A268E3680A445B1A92
:10243000A260E3603BB92369E2889A4203DD9B0610
:1024400001D10123237502B010BD00231A4619469D
:102450008020237502B0BDE8104002F067B900BFCC
:10246000401B00207FB500230D460193064600283F
:1024700068D1002940D108220B460DEB020108F07B
:102480002FF8002804DA802002F096F804B070BD1E
:10249000314C9DF809309DF808206370BDF80A3072
:1024A0006380BDF80C302270A38004F13801BDF8C0
:1024B0000E30E3801206C4E90355A16025750ED4E1
:1024C000802B08D92548452107F040FE802002F0E6
:1024D00073F82846D8E713B1C4E90333D6E7FFF70A
:1024E0005BFD0028CFD0E28823699A42D4BFE26026
:1024F000E360FFF78DFFC9E7174CD4E90212002A09
:1025000001AB05DC024607F0EBFF0028BEDABAE7B4
:1025100007F0E6FF002804DA802002F04DF830468C
:10252000B2E70199A268E3680A445B1AA260E3601B
:10253000002BABD104F13803A360FFF72DFD002879
:10254000D7D1A0E78028A1D1034BDA68002AD0D1E7
:102550001B7D002BCDD199E7401B0020EFC500006B
:10256000054B064A9A62064ADA62064A1A63064A26
:1025700058629A6100207047401B00207D200000B7
:10258000E51D0000AD1E0000391E0000094B10B50E
:1025900093F8B8405CB900F0D7F930B90648452146
:1025A00007F0D4FD4FF0FF3010BDFFF7D9FF00203A
:1025B000FAE700BF401B00200DC600002DE9F743DD
:1025C0000446384D38484FF0FF324FF0FF3304F0E7
:1025D0006BFF95F8B860002E41D134482C62E86159
:1025E00002F0DAF901F04CFF041E39DB00F0AAFA20
:1025F000041E35DB40236846ADF802308DF80460D8
:102600008DF8006001F0B0FF041E29DB80276846CA
:102610008DF8007001F0A8FF041E21DB244930462C
:1026200002F0A6F9041E1BDB2149384602F0A0F98E
:10263000041E15DB1F4F204C204BE41BA4105C43F1
:10264000B44214D1002002F021F8041E08DB8020DF
:1026500002F01CF8041E03DB012385F8B8300024C7
:10266000114804F099FF204603B0BDE8F083D7F885
:1026700020904FF000083A7F5FFA88F39A4202D820
:1026800001362437DCE709EBC30259F8331010791F
:1026900002F06EF908F101080028ECD04FF0FF3489
:1026A000DEE700BF401B0020CC020020C51F000059
:1026B000652400000804002050040020398EE3380F
:1026C00030B51E4B8BB005AA03F110051868596888
:1026D000144603C40833AB422246F7D11B7823705B
:1026E0001022002101A807F0BBFE1222002114488D
:1026F00007F0B6FE102101A808F01EF800281ADD28
:10270000083801AA0E490028A8BF1218002012F8A4
:10271000013B0AAC04EB131403F00F0328336B44A2
:10272000013014F8144C13F8143C0C7008284B704A
:1027300001F10201EBD102480BB030BD42C60000EE
:10274000442B00202DE9F04F754A764B9B1A764AB0
:1027500087B09B1053430446019300254FF0011BA3
:10276000A9462E46AA46207830B9704B02349C42C6
:10277000F3D107B0BDE8F08F6378052B05D8DFE80B
:1027800003F08E04038E072CA24623781C44EAE74C
:10279000E378002BF9D1A378A3B9614A0199994252
:1027A00005D163482246452107F0D0FC1BE0516863
:1027B0008C4202F124020AD1594A242606FB032640
:1027C000B36833B909F101095FFA89F9DDE701332B
:1027D000E4E7494620469847F4E7002E5CD1554887
:1027E000452107F0B3FC4FF0FF30C2E7326AA7780B
:1027F00002EBC3021079874206D00133327F934245
:10280000F4D34D484521ECE70127E07894F805C062
:1028100000F003008DF81400207940EA0C20ADF898
:10282000120094F9020000285FFA87F828DA07F10D
:10283000100001FA00F010EA0B0F29D168F07F00B8
:102840008DF8100004A8CDE9023201F069FEDDE93F
:1028500002320121E0B99DF81030A37013F0800F0F
:102860001CBF08F110085FFA88F813710B4615BFFA
:1028700001FA08F8BB404BEA080B4BEA030B84E76C
:1028800001FA07F010EA0B0F02D18DF81080D9E79A
:102890000137102FB9D1B0E700230121AEE7032D96
:1028A00022D1FFF70DFF074660B107F0AAFD804671
:1028B00040B1224807F0A5FD80450FD020484521B2
:1028C00007F044FC23786FF00201E218091B04EBC7
:1028D0005303D14210D50135EDB256E74246394691
:1028E000A01C07F0B2FDEDE7002DEBD1BAF1000F0F
:1028F0000BD11448452174E74FF0000002F8010C99
:1029000013F8010902F8020DE3E7A4EB0A038AF8C1
:102910000230C3F307238AF803308AF80490DAE719
:102920000804002050040020398EE33807040020FA
:102930002DC7000053C6000099C6000042C6000023
:10294000BBC600000BC7000008B50648FFF7FAFE3B
:1029500028B10548452107F0F9FB002008BD0148D2
:10296000FCE700BFF802002052C7000010B5094B79
:1029700000211A461C78844205D15C681CB14820AD
:1029800000FB012010BD0131042903F14803F1D1FE
:102990000020F7E7041C00202DE9F34150F8303CFB
:1029A00010F8345C1033044610D1036950F8282C19
:1029B000990742D502BB13F0040304D11A46194605
:1029C0002846FFF703FD002344F8303C54F8303C20
:1029D00010330ED054F8206C5EB154F8247C54F8B7
:1029E0001C8C08F01EFB002853D03148214608F00B
:1029F000E6FB02B0BDE8F08150F82C1C01AB284684
:102A0000FFF7E4FC024638B12B462A48452107F07F
:102A10009DFB6FF01503D7E7019A54F82C3C134443
:102A200044F82C3C54F8283C9B1A44F8283C54F8B1
:102A3000243C134444F8243CC8E750F82C1C01AB58
:102A4000284601F0F7FE02460028DDD1019E54F829
:102A50002C3C334444F82C3C54F8283C9B1B44F851
:102A6000283C54F8243C334444F8243C002EAAD09B
:102A7000284601F097FFB6FBF0F303FB1066002E2B
:102A8000A1D154F8283C002B9DD0284601F026FF08
:102A90009CE744F8200CA4F1180004F0F3FD54F86E
:102AA000303C8C33A5D0424639462846B047A0E793
:102AB0002806002085C7000010B54FF02003EFF373
:102AC000118483F31288BFF36F8FFFF74FFF50B16C
:102AD0004368103307D16FF08B03436000F134017A
:102AE000034808F06CFB84F31188BFF36F8F10BDAF
:102AF000280600202DE9F041104CDFF84480042521
:102B00006FF08B074FF02003EFF3118683F31288E9
:102B1000BFF36F8F6368103305D104F13401404671
:102B2000676008F04CFB86F31188BFF36F8F013D9F
:102B300004F14804E6D1BDE8F08100BF041C002088
:102B40002806002070B50A4C0A4E00253146204662
:102B500008F02CFB0122A4F118001146013508F001
:102B600003FB042D04F14804F0D1002070BD00BF28
:102B7000381C002099290000044B93F838220020CB
:102B8000012A9CBF83F83802012070471000002002
:102B9000044B93F83822012A04BF002283F838221C
:102BA000704700BF10000020014B9970704700BFB4
:102BB0001303002037B590F900200378002A04465B
:102BC0000EDB03F01F03012B0AD142780B2A19D127
:102BD000428842B1012A18D01048572107F0B6FAAE
:102BE0006FF0850017E00E4A13700D4D01A928788B
:102BF00000F054FA68B9019883686B6007F014FB21
:102C00006388EB606FF0150005E0054B02221A7037
:102C1000EBE76FF0040003B030BD00BFB4C70000A5
:102C20001000002010B5094C002304F11000A3602F
:102C3000A4F83A3207F0D5FA38B10548452107F033
:102C400085FA40F60A63A4F8383210BD100000205F
:102C5000D7C7000037B50F490F4808F0A7FA0F484B
:102C60000F4D08F0B7FD0F490F48002208F03AFC5D
:102C7000287801A900F012FA044638B9019883684F
:102C80006B6007F0D1FA204603B030BD6FF004044A
:102C9000F9E700BF692F0000481D0020381D002003
:102CA00010000020912B000050040020012908B5DD
:102CB00016D10C4808F022FC0B4B93F83822012A5D
:102CC0000ED1022283F83822084B09481860FFF71A
:102CD00047FC28B1BDE808400648452107F036BA50
:102CE00008BD00BF50040020100000200804002090
:102CF0006B030020F1C700002DE9FF41154690F954
:102D000000204378002A0746884680F29580032BEE
:102D100019D0052B38D0022B51D1FFF72DFF0028F9
:102D20004DD1874C94F83822022A36D0092A36D061
:102D30008448452107F00AFA40F60A63A4F83832BD
:102D4000FFF770FF3BE07E4B93F8382293F839127F
:102D5000062A04BF022283F838222A681170B3F8C9
:102D60003C2229684A70120A8A702A680020D070B2
:102D70002A6893F8383213712B6858710623C8F803
:102D8000003004B0BDE8F0816D4A2B6892F838221B
:102D90001A7001230B600020F3E7FFF743FFF98867
:102DA000B4F83A327A8809B193420BD00091664860
:102DB000452107F0CBF940F60A63A4F838326FF0EA
:102DC0001500DEE7D4E90163F61A8E4228BF0E46ED
:102DD000802E08D8AEB1207803A900F05FF920B1A9
:102DE00040F20A23E9E78026F5E72A68A1680398FC
:102DF000334607F01AFA0546039807F015FA002D36
:102E0000EED1B4F83A22C8F80060A3680132A4F801
:102E10003A22626833449342A36009D1FB889E4200
:102E200006D200200223C8F8000084F83832A8E750
:102E3000092384F83832AEE7062BC0D801A252F835
:102E400023F000BFEF2E0000812E0000BF2D0000F8
:102E5000BF2D0000772E0000BF2D0000612E000066
:102E6000FFF78AFE0028AAD1FFF7DCFE344B0222CE
:102E7000A3F838228FE7FFF77FFE0028F6D09EE701
:102E8000FFF77AFE00289AD12D4C94F83822022AB6
:102E900004D0052A24D02D4845214BE7FFF7C2FE78
:102EA0002B4808F09CFC2378022B08D040F20A3310
:102EB0002848A4F83832452107F048F96BE726483E
:102EC000042284F8382280F88030FA882968A0F833
:102ED000822007F0BAFA2149214808F070F95AE730
:102EE0001D48042384F8383280F88020EDE7144B25
:102EF00093F8381219B1002283F838225FE70122D3
:102F000083F838224488B4F57A7F28BF4FF47A7466
:102F10004FF4004540F2E7304FF47A720023E5FBAE
:102F20000401FDF7EDF802460B464FF0FF304FF07D
:102F3000FF31CDE900010B4805F022FA2BE700BF75
:102F40001000002052C8000024C8000097C80000EC
:102F5000381D002071C80000C0290020481D002035
:102F6000280600205004002038B5224B93F880201A
:102F7000022A01D0052A37D1B3F882501E4C1D49D0
:102F8000B5FA85F35B092A4604F1100007F0EBF867
:102F900098B11A48452107F0D9F840F20A33A4F84D
:102FA000383205BB002007F07CFA4FF48040002146
:102FB00004F0C4FF0020FEF7D7FE8DB9062384F885
:102FC0003832FFF72FFE284607F06BFA18B140F2AF
:102FD0000A33A4F838320021094805F07DFAE1E708
:102FE000052384F8383238BDBDE83840054845210E
:102FF00007F0ACB8C029002010000020B6C80000BF
:10300000381D0020CDC8000070B508F040FA144EFD
:1030100005460C4608F035FAA84271EB040300D3CC
:1030200070BD96F83832043B012B05D9002140F2DF
:10303000676004F083FFEDE70A4B0B480022012193
:1030400008F0ABFB012108484FF0FF324FF0FF338F
:1030500005F0E6F9BDE870400448492107F076B86C
:1030600010000020381D0020241D0020E7C80000AB
:10307000084B30B51C68084B01461A6800239C4277
:1030800001DC002030BD1046103205788D42F9D0A9
:103090000133F4E7F8BD000050020020084B1B6824
:1030A00010B50C462BB1FFF7E3FF28B120600020DC
:1030B00010BD6FF00C00FBE76FF00100F8E700BFF8
:1030C0005002002030B589B00C4615460190FFF73C
:1030D000CFFFB8B14368029383682268C068CDE926
:1030E00003350023CDE90623059307F07DF860B191
:1030F000074901AA07F0A6FB079808B9059B2360BA
:1031000009B030BD6FF01500FAE76FF01200F7E775
:10311000EDA1000042680B68934210B50C4606D939
:103120000548452107F012F80020606010BD4B688B
:1031300013444B600120F9E706C900002DE9F04374
:10314000054685B0C06801AA07F078FB044640B187
:1031500002461648452106F0F9FF204605B0BDE8B5
:10316000F083DDF804802B6A4345F6D0EE68DDF885
:103170000890B768FB685BB9BB684A464146304671
:103180009847FB6804466BB944B9019B2B62E4E79E
:1031900001463046984704460028EDD004482246B0
:1031A0004521D8E7012130469847EDE72BC90000BB
:1031B00051C900002DE9F0478468064674B1D0E992
:1031C0000437013C1F44E119FFF7B8FF041E08DA79
:1031D00038483B462246452106F0B8FF2046BDE868
:1031E000F087F06807F0B4F8B468B4FBF0F300FBC4
:1031F00013445CB1041BF06883681B699847356809
:10320000B36801792246E81807F02AF9B568D6F8BC
:103210000C80D6F800A02544D8F80890D9F80C30D6
:10322000A3B9D9F804402B46524639464046A04738
:10323000D9F80C300446A3B974B9F3695BBB3369A0
:10324000B268134433610023B360C7E700214046EE
:10325000984704460028E4D017483B4622464521BB
:10326000BAE7012140469847E6E7535CDB435354F5
:103270000131B36832688B42F7D8F06881680D6815
:103280003946A847054640B102460C48452106F09C
:103290005DFF2C46A2E72146EBE7F369B168306891
:1032A0003A46984705460028C9D0024645210448B9
:1032B000EDE700BF72C90000A5C90000CEC900003B
:1032C000E9C900002DE9F7430D46DDE90A8691467C
:1032D0001F46044620B96FF00D0003B0BDE8F0832F
:1032E0000029F8D0002AF6D0009308460023019365
:1032F00007F02EF8B7FBF0F303FB107020B118486D
:10330000452106F023FFE6E716496A46284607F0FE
:1033100099FA019B002BDED008EB0602934202D201
:1033200011484521EDE7284607F012F8B8FBF0F305
:1033300003FB10800028F3D1C4E90097E560206109
:10334000A060C4F8148016B9019EA6EB08060C9B79
:10335000E3614FF0FF33A66123620020BDE700BFA9
:1033600002CA0000153100003ECA000001491022C7
:103370000A60704710ED00E072B6404080F311889B
:10338000BFF36F8FBFF34F8F30BF62B6BFF36F8F46
:10339000704700BF72B6494081F3118820BF80F3A7
:1033A000118862B6704700BF37B505460C46C9B1F3
:1033B0008B680093D1E900230E48452106F0C6FE34
:1033C00063690093D4E903230B48452106F0BEFE50
:1033D000E2690A48452106F0B9FEA269084845217C
:1033E00006F0B4FE2146284603B0BDE8304003F0A5
:1033F00043BE00BF64CA000098CA0000CCCA0000E7
:10340000E0CA000043B2002B08DB012200F01F00DD
:1034100002FA00F05B09024A42F82300704700BF3D
:1034200000E100E043B2002B0DDB01225B0900F05C
:103430001F0002FA00F02033034A42F82300BFF3D2
:103440004F8FBFF36F8F704700E100E0054B4209DB
:1034500000F01F0053F82220012303FA00F010406F
:10346000704700BF00E100E043B2002BA8BF03F1AA
:10347000604301F10101B8BF064B4FEA4111ACBFF7
:1034800003F5614300F00F00C9B2B4BF195483F8CB
:103490000013704714ED00E030BFFFF7FDBF00BF21
:1034A0000F4A08B50F4B22F07F029A60BFF34F8F8F
:1034B000BFF36F8FD3F8882022F47002C3F88820FE
:1034C000EFF3148323F0040383F31488BFF36F8FA7
:1034D00003F064FE04F0C6FD00F0B0FA03F068FEED
:1034E0000000000000ED00E0094A0A4993680968FD
:1034F000D967094998674B6843F080534B600023B4
:1035000083F31188BFF36F8F9368D86F704700BF44
:1035100084290020B0BF000000ED00E012498A6855
:103520004FF030001044EFF3098C80E8F01F2020AA
:1035300080F31288BFF36F8F0C4F4FF000668A69DB
:103540008A603E60906F0023936780F3118804B512
:10355000104600F0B5FABDE8044002F1300090E8F2
:10356000F01F8CF3098870478429002004ED00E0E7
:103570001EF0040F0CBFEFF30880EFF309808169A0
:1035800011F8021C0229FFD001B506F02BFF01BD86
:1035900042F8203C009B42F81C3C0A49019B42F83F
:1035A000183C029B42F8143C21F001014FF080735B
:1035B00042F8043C42F8081C0023203A0265836765
:1035C000704700BFE19B0000094A0346906870B154
:1035D00013F1160F806E05D0A0F120029A4205D893
:1035E000834203D2814228BF0020704700207047E9
:1035F0008429002008B5094B98600D46144600F058
:103600005FFA204685F30988002163B681F31188AB
:10361000BFF36F8F0022002306F0E2FA8429002016
:1036200001B5EFF30580A0F110004FEAC000044996
:10363000014409C99847BDE8014002490847000014
:10364000D4B9000049360000044B99689869884253
:1036500003D003494FF080520A607047842900204C
:1036600004ED00E02DE9F0412E4C074688462E4837
:103670004521154606F06AFDA36ADE0603D52B48F0
:10368000452106F063FDA36A180703D528484521A4
:1036900006F05CFD234CA36A990721D46FF0150650
:1036A000204CA36ADB0703D52248452106F04EFDD6
:1036B000A36A980603D52048452106F047FD194B1B
:1036C0009A6AD10621D49A6A92071ED40020154A1C
:1036D000936A43F0FF03936200232B70BDE8F081EF
:1036E0001648452106F032FD666BA36A1A06D5D549
:1036F00013483246452106F029FDB8F1000FCFD01E
:10370000A36A23F08003A362CAE75B681B05DDD5CB
:1037100039463046FFF758FF0028D7D080F3098894
:103720000220D4E700ED00E013CB00002ECB000018
:1037300066CB0000B6CB0000DACB00007ECB0000E9
:103740009BCB000010B51D4C1D48452106F0FEFC2A
:10375000A36A9B0103D51B48452106F0F7FCA36A29
:10376000DC0103D51848452106F0F0FC134CA36A90
:10377000180303D51548452106F0E8FCA36A590350
:1037800003D51348452106F0E1FC0C4CA36A9A03CB
:1037900003D51048452106F0D9FCA36ADB0303D505
:1037A0000D48452106F0D2FC044A936A6FEA0343B0
:1037B0006FEA13439362002010BD00BF00ED00E0EC
:1037C0000ECC00002BCC000043CC000062CC0000EB
:1037D00085CC0000AFCC0000CECC000070B5234CEF
:1037E00006460D462248452106F0B0FCA36AD904DE
:1037F00003D52048452106F0A9FCA36A1A0503D584
:103800001D48452106F0A2FC184CA36A9B0510D563
:103810001A48452106F09AFCA26BA36A180408D541
:103820001748452106F092FC1EB1A36A23F4004319
:10383000A3620E4CA36A590503D51248452106F030
:1038400085FCA36ADA050BD50F48452106F07EFCFE
:10385000064A936A002043F47F439362287070BD48
:10386000A36A9B04F4D509484521EFE700ED00E089
:10387000FECC000019CD000066CB00002FCD00006B
:103880004DCD000067CD000087CD0000DACB0000F1
:103890002DE9F041554B5F688AB00D46C7F3080427
:1038A000002686F31188BFF36F8F02F07F43B3F1D8
:1038B0007F4F07D102F00C03082B05D14C4845215E
:1038C00006F044FC354603E0120701D40546012604
:1038D0004FF00008E31E8DF80780092B73D8DFE84E
:1038E00003F005676B6472727272726F3F4F4148EA
:1038F000452106F02BFCFC6A8DF8078014F00204C9
:1039000005D03D48452106F021FC002406E0FB6A75
:10391000002B1DDA3948452106F018FC9DF80730C8
:103920009BB92022294602A806F08FFD099B002E94
:1039300056D0C3F3080222B96FEA53236FEA432338
:10394000099302A92046FFF72FFD0AB0BDE8F081D8
:10395000FB6A5B00E2D52A48452106F0F7FBAB691C
:1039600033F8022C4DF602739A420AD097F82830A9
:1039700073B10DF1070201212846FFF773FE0446DB
:10398000CCE72A681F48452106F0E0FB2C68C5E714
:1039900097F829302BB10DF107010120FFF71EFF29
:1039A000EDE77B8D9BB2002BB8D0FFF7CBFEE6E7AF
:1039B0000DF107020021DFE70DF107010020EDE71F
:1039C000114845219FE71149114A124817F4F87F21
:1039D00008BF0A46A4F11003452106F0B7FB94E79F
:1039E00023F4FF7323F00103AAE700BF00ED00E01A
:1039F000D2CD000002CE00001ECE000044CE00005A
:103A000057CE00007BCE00009CCE0000A4CD00006D
:103A1000B9CD0000C5CE0000024A536943F010033F
:103A20005361704700ED00E0EFF30880EFF3098188
:103A300001B57246FFF72CFF01BD00BF044800230B
:103A40002021C2180133302B82F80013F9D17047BE
:103A500000E100E007F034FF202080F311880848DF
:103A60004FF40261401880F30988EFF314800221BB
:103A7000084380F31488BFF36F8FFFF711FD000038
:103A800020590020064B9B68834207D1EFF3058342
:103A900023B1044A536843F08053536004F07EBA64
:103AA0008429002000ED00E0024B034A0348012175
:103AB00000F07CB80000042000000020FCBD0000E5
:103AC000826E054B203A1A60044A2021C3E9011294
:103AD0001846012100F074B8581D002000000B1595
:103AE000F8B5244F154600228A420EDA4468002CAD
:103AF0003CD093B104F1FF3C14EA0C0F07D01E48F0
:103B0000452106F023FB6FF015052846F8BD1F2C54
:103B1000F5D906681CEA060FF1D1202C0668D0F80A
:103B200008C0EDB210D9B4F1004F0FD8013CB4FA7F
:103B300084F4C4F11F046400072D4CEA040407D97F
:103B40000E482A464521DCE70824F5E73E24F3E742
:103B500026F01F062E4346F0100644F00104C7F875
:103B60009850C7F89C600135C7F8A04001320C306E
:103B7000BAE700BF00ED00E0E1CE000009CF000091
:103B8000044B0522C3F89420BFF34F8FBFF36F8F10
:103B9000704700BF00ED00E0BFF35F8F024B0022D3
:103BA000C3F89420704700BF00ED00E010B5034C4F
:103BB00001232278FFF794FF207010BD562B0020C0
:103BC00008B5094A00231278FFF78AFF10F1160F93
:103BD00003D0064B0022072800DD08BDC3F898007B
:103BE000C3F8A0200130F6E7562B002000ED00E0DE
:103BF00014490868082810B521D8FFF7CDFF124CEA
:103C000049680022904201F10C0105D10F4B187058
:103C1000FFF7B6FF002010BDC4F8982051F80C3C07
:103C200023F01F03134343F01003C4F89C3051F8F2
:103C3000043C43F00103C4F8A0300132E2E74FF046
:103C4000FF30E8E708BE000000ED00E0562B002042
:103C5000014B1860704700BF540200204FF0200352
:103C6000EFF3118283F31288BFF36F8F06490123AC
:103C7000C1F840354FF08041C1F8783582F31188A2
:103C8000BFF36F8F0020704700E001404FF080438A
:103C9000C0B2C3F81C05BFF34F8F0549054BCA6876
:103CA00002F4E0621343CB60BFF34F8F00BFFDE728
:103CB00000ED00E00400FA0520B1034B800143F061
:103CC00001031847704700BFF0BB000038B50C482F
:103CD00003F09CF9054680B1094803F097F90446C2
:103CE00058B141F201621821284606F0C5FB41F6A1
:103CF00001221921204606F0BFFB002038BD00BF7D
:103D0000ECBF000000F07F03082B42B204D010F09B
:103D1000780F01D000207047002A00F00F0300F058
:103D2000080005DA58B9084800EB43104C307047DA
:103D300038B9054800EB431000F5B67070470348EA
:103D400070470348704700BF64230020B024002060
:103D5000D02500200146014807F0FBB9E002002011
:103D60000149024807F02BBA8C2300208804002068
:103D700013B50B4801F0E0FF00240A4802F022F8D6
:103D80004FF0FF334FF4806207490848009403F076
:103D9000C7FD0749074807F009FA204602B010BDE1
:103DA000ADD1000028BE0000802B00208804002038
:103DB0003D4100008C23002002480022002303F034
:103DC0002DBC00BFE002002010B5054CFFF7F4FF4A
:103DD00020B1011D204607F0FBF8F7E710BD00BF3A
:103DE000B002002007B500231348002201A903F008
:103DF00073FAD8B11148452106F0A8F9FFF7E4FF9E
:103E00000D480022002301A903F066FA28B10C48EE
:103E1000452106F09BF900200AE001980423406048
:103E20000374FFF797FFFFF79BFFF4E701984060EB
:103E300003B05DF804FB00BFB002002047CF0000D4
:103E40006ACF0000817870B506460846FFF75AFF32
:103E50000B06F47805461BD54CB1032C4BD00B4612
:103E600022462548BDE87040452106F06FB9FFF7AE
:103E7000B9FF034600283ED00122AC77027403222A
:103E800002739D60FFF766FFBDE87040FFF768BFF3
:103E90004CB1012CE3D1FFF7A5FF034658B36C7773
:103EA00004740473EDE7FFF79DFF20B3B278134B62
:103EB00012F0800F02F0080111D041B1D3F8A836FA
:103EC000EB6001230374022303738560DAE702F0D9
:103ED0000F02142101FB0233D3F80836F0E711B1C9
:103EE000D3F8A837ECE702F00F02142101FB0233EC
:103EF000D3F80837E4E770BD8BCF000000700240B4
:103F0000022810B5024611D80C4B1C5CFFF76AFF63
:103F100090B1002202740472FFF71CFF084B93F863
:103F200024304BB1BDE81040FFF71ABFBDE8104088
:103F30000448452106F00AB910BD00BFAAD100000F
:103F400064230020BCCF000010B50F49BFF35B8F86
:103F500001F12003002253E8000F012803D143E8B8
:103F60000024002CF7D1BFF35B8F0BD1CC690C314F
:103F7000204605F019FE783004D12046BDE81040F7
:103F800005F0EDBD10BD00BF6423002070B50646EE
:103F900088B01422002103A806F062FA3378013BAE
:103FA000052B21D8DFE803F08B0314147B160323C1
:103FB0008DF814300024FFF715FF0346A0B10474F8
:103FC00000F10802DDE9050182E80300184627E058
:103FD0000423EDE7B1780846FFF794FE837A05469F
:103FE00023B1013B022B54D908B070BD0B06F47805
:103FF0001DD554B1032CF7D032480B46224645213B
:1040000008B0BDE8704006F0A1B8FFF7EBFE03462C
:104010000028E9D00122AC770274032202739D606C
:10402000FFF798FE08B0BDE87040FFF799BE54B1A5
:10403000012CE1D1FFF7D6FE03460028D4D06C77DF
:1040400004740473EBE7FFF7CDFE04460028CBD0E1
:104050000123037402230373856005F10C01B0781A
:1040600006F08EFE024618B11748452106F06EF89C
:10407000164AE968B2F88C328B4206D95B1AA2F86C
:104080008C3202F03DFC2046CAE70023A2F88C32B5
:10409000F9E7304608B0BDE87040FFF7D3BE01A88D
:1040A00002F008FC9DF80530052B04D19DF8043082
:1040B00013F0600F98D0064B059301247BE7022490
:1040C00079E700BF8BCF0000DCCF00006423002025
:1040D000D024002038B5002464F07F00C0B2FFF780
:1040E00011FE013406F0E5F9082CF5D10F4D00243E
:1040F000E0B2FFF707FE036903B90561013406F07A
:10410000D8F9082C05F14005F2D1094C04F5A67048
:1041100006F0CFF9D4F87C3213B9064BC4F87C32E0
:10412000054806F0C6F9002038BD00BF6421002014
:1041300064230020641D0020D02500202DE9F043D9
:10414000A44CDFF8948285B00746FFF735FE06469B
:1041500010B905B0BDE8F08394F82530327C06F143
:1041600004093BB9002A00F098804946404606F011
:104170002FFFEAE7042A00F27381DFE812F08E00D5
:10418000050014013D015D0117F8043C2BB9B3682B
:1041900092485A7A452105F0D9FF337BB568032B45
:1041A000E3D8DFE803F0023D62676E690822002170
:1041B000304606F055F98A4A8A48D2F8803433707E
:1041C000D2F884347370D2F88834D2F88C1443EA6D
:1041D00001237380D2F89034D2F8941443EA012377
:1041E000B380D2F89834D2F89C2443EA0223082200
:1041F000F3803146EA6006F028F92B68687A0021DE
:10420000984796F90030002B06DBF38823B1A4F819
:104210008C3202F075FBA8E70023A4F88C32A4E7E7
:104220006B7F002BA1D02B7F002B9ED000264FF060
:10423000FF326D486E774FF0FF332E7706F04CF962
:104240006B6901936B68CDE9023601A9687A02F0C7
:1042500055F9664B9842024603D06548452105F062
:1042600075FF614806F03AF97FE72B680121687A0B
:1042700098477AE7AB7A6BB9EB7F5BB95A484FF056
:10428000FF324FF0FF3306F027F902F069FB564882
:1042900006F024F92B680221E9E7327A042A3FF676
:1042A00064AFDFE802F05B032569750002F0D6F821
:1042B000054600287FF459AF02F014F8BFF35B8F76
:1042C0004C49012351E8002F002A03D141E8003076
:1042D0000028F7D1BFF35B8F7FF447AF41F8105C44
:1042E00041F8085CE0696361143905F0EFFB3CE7D5
:1042F000002565F07F00C0B2FFF704FD037A13B11B
:10430000407A02F023FD0135082DF2D194F85431A2
:104310001BB194F8550102F019FD0025E8B2FFF732
:10432000F1FC037A13B1407A02F010FD0135082D3B
:10433000F4D194F874321BB194F8750202F006FDC2
:10434000012002F06DF8012384F825302368002B4A
:104350003FF40BAF00210220984706E7002584F8C0
:10436000255002F07FFCFFF7EFFD2368002B3FF4A0
:10437000FCAE29460420EFE7002B3FF4F6AE02F036
:1043800089FC2368002B3FF4F0AE00210520E3E711
:104390002268002A3FF4E9AE002B3FF4E6AE00218C
:1043A00006209047E1E607F110054FF0FF334FF08C
:1043B000FF32284606F090F8FFF78CFE284606F0FC
:1043C0008DF857F8283C002B3FF4CFAE0021012098
:1043D000C2E700BF64230020B002002001D000002B
:1043E00000700240682300209C2300200000AD0BD9
:1043F0002CD000008423002094F874325BB1012596
:1044000084F8895284F88852FFF7ECFC58B91748B1
:10441000452105F09BFE57F8283C002B3FF4A5AE44
:1044200000210A2098E7124A057405738260FFF79D
:1044300091FCFFF795FCEEE745210E4805F086FE5E
:1044400006F00BFC02F00EFC01F042FFFFF7BCFC93
:10445000FFF740FE06F0FAFB074802F009F884E691
:104460000648452105F072FE7FE600BF57D00000E8
:10447000D025002070D000008D3F00008CD00000BF
:1044800038B51A4D95F824405CBB05F1380006F0AC
:10449000E9FD204600F090FB2246E861012127203B
:1044A000FEF7E2FF124801F0E3FF124B98421AD1E7
:1044B00006F0CCFBFFF70EFE044610B9012385F889
:1044C00024300D4B1B680BB1FFF74AFC4FF08043C3
:1044D000D3F83834DB0702D50020FFF711FD204662
:1044E00038BD0024FBE76FF00404F8E764230020E4
:1044F0008D3F00000000AD0BE0020020074B93F859
:1045000024203AB193F82530002B0CBF6FF0120035
:10451000002070476FF01200704700BF6423002036
:1045200008B5034602781B7902F00F003BB928B1A9
:104530000A48452105F00AFE4FF0FF3008BD082863
:1045400002D907484521F5E7012B04D1130702D40E
:1045500004485721EEE70020F0E700BFA8D0000094
:10456000CCD00000F0D00000114B93F8243010B5EF
:104570000146D3B104782046FFF7C4FB68B144720A
:104580000B79837249884160230709D44B1E0B4283
:1045900006D00848452105F0D9FD6FF0150003E06D
:1045A000204606F0E8FB002010BD6FF01200FBE78C
:1045B000642300200BD10000144B93F8242010B585
:1045C000014602B393F82530EBB1FFF79BFB04469D
:1045D000B0B1837A012B0FD007D9023B012B07D949
:1045E0006369A3610020E06010BD02F0C1F9F7E744
:1045F000084602F031F9F3E70548452105F0A6FD2C
:104600006FF01500F0E76FF01200EDE76423002073
:1046100038D1000038B50E4B93F82420054682B1FE
:1046200093F825306BB1FFF76DFB68B115F0080406
:104630000AD1284602F032F9284602F0D9FB20467A
:1046400038BD6FF01200FBE76FF01500F8E700BF10
:104650006423002038B50C4B93F8242005460C4603
:1046600062B193F825304BB1FFF74CFB48B141B133
:10467000284602F0F9F82070002038BD6FF01200D3
:10468000FBE76FF01500F8E764230020F8B5134F3F
:1046900097F824300446BBB1FFF734FB0546B0B1B0
:1046A000230705D4204602F0F9F8204602F0A0FBCB
:1046B0002E7A7EB997F8250001232B7218B1204677
:1046C00002F044FB3046F8BD6FF01200FBE76FF0DC
:1046D0001500F8E76FF07700F5E700BF64230020CE
:1046E00038B5114B93F8242001469AB193F8253040
:1046F00083B1FFF707FB054678B1037A83B108461B
:10470000002402F0F7FA2846AC7705F0D2FE2C72AE
:10471000204638BD6FF01200FBE76FF01500F8E798
:104720006FF07700F5E700BF642300202DE9F04328
:10473000DFF8EC801C4698F8243085B0074689469F
:104740001646002B69D098F82530002B65D003065B
:104750000AD5FFF7D7FA054630B1037A3BB931489D
:104760003A46452105F0F2FC6FF015040FE04FF0DA
:10477000FF334FF0FF3208F1380005F0ADFEAB7F9C
:104780004BB108F1380005F0A9FE6FF00A0420468D
:1047900005B0BDE8F08316B9EB7F03B1EE77AB7AD5
:1047A000BBB95EB1B8F80A30B34207D96A68B6FB44
:1047B000F2F302FB13630BB90123EB7702F0E0F88D
:1047C000B84206D002F0CCF8174805F087FE002466
:1047D000DDE70123AB774FF0000801A93846CDE9AA
:1047E0000196CDF80C8001F089FE104B98420246EC
:1047F0000ED085F81E800CB1C4F800800C4845210D
:1048000005F0A4FC6FF00404074805F067FEBEE75E
:10481000002CF9D026604446F6E76FF01204B6E7A4
:10482000642300205FD100009C2300200000AD0B1A
:1048300083D100002DE9F0411D46254B174693F822
:10484000242080460E46002A3ED093F82530002BC7
:104850003AD010F0800F0DD101B95FB94046FFF793
:1048600051FA044630B1037A3BB91A484246452111
:1048700005F06CFC6FF0150013E04FF0FF331648A5
:104880004FF0FF3205F028FEE3689F42B84628BF8C
:10489000984646B93FB905B12B600F4805F01EFE9A
:1048A0000020BDE8F081A1694246304605F0CDFD0B
:1048B000A3694344A361E368A3EB0803E360002D0D
:1048C000EBD0C5F80080E8E76FF01200E9E700BF21
:1048D000642300205FD100009C23002070B5214D8F
:1048E00095F824300146002B38D095F82530ABB32D
:1048F00003060AD4FFF706FA044630B1037A3BB93F
:104900000A461948452105F021FC6FF0150018E012
:104910004FF0FF334FF0FF3205F1380005F0DCFDBA
:10492000E368B3B9012663692677A361637F83B126
:10493000FFF758FA30B905F1380005F0CFFD6FF0F8
:104940000B0070BD067484600673FFF703FAFFF76F
:1049500007FA064805F0C2FD0020F2E76FF01200EA
:10496000EFE700BF642300205FD100009C230020FC
:1049700008B5084B93F824302BB1FFF7C3F928B1E1
:104980000160002008BD6FF01200FBE76FF015001A
:10499000F8E700BF64230020014B1860704700BF98
:1049A0006423002008B5074B93F8243023B1FFF7A8
:1049B000A9F920B1406808BD6FF01200FBE76FF065
:1049C0001500F8E764230020084B70B5C31A0D46A4
:1049D00007499B10044659430648402205F0ABFDA9
:1049E0002B4601462046BDE87040184704260020AB
:1049F000B76DDBB644B9000073B50C4C0C4A4023CC
:104A0000041B00930D460B460A49A4106143064659
:104A1000094805F0BDFD011E05DA30462B4602B0FF
:104A2000BDE87040184702B070BD00BF04260020EA
:104A3000FFA50000B76DDBB644B90000002270B5D9
:104A4000012104461046FEF70FFD0020FEF7DAFCB8
:104A50000F4801F051F80F4B984215D101F05CF866
:104A600026690D49304605F01EF800280BDB246945
:104A700009490125356404F11C0005F014F80028EB
:104A800001DBE564002070BD6FF00400FBE700BFB0
:104A9000D14A00000000AD0B58BE000001460C23B7
:104AA00009484B4370B5C418D4E90E560022403370
:104AB000A263184405F02CFD2DB132462B46034865
:104AC000BDE87040184770BD0426002044B90000BE
:104AD00010B1012804D07047034B1B6C5B0701D158
:104AE000FFF7DCBF704700BF0426002008B54FF079
:104AF0002003EFF3118183F31288BFF36F8F124A03
:104B0000136843F0020013F0010310600CD04FF063
:104B10008042D2F80C34D2F80C2413F0010303D0F5
:104B20000A4805F0F5FC012381F31188BFF36F8F6C
:104B300023B1BDE808400020FFF7B0BFBDE8084042
:104B4000012006F03DB800BF542600204426002076
:104B50007FB500220123CDE9022304ABCDE9043364
:104B6000094ACDF800D06B46CDF804D005F040FDE1
:104B7000002805DB4FF480420023684602F0A8FDC0
:104B800007B05DF804FB00BF1DA60000094BBFF392
:104B90005B8F53E8002F22F0020143E80010002849
:104BA000F7D1BFF35B8FD30702D4012000F0C2BF5F
:104BB000704700BF54260020024AC3B21C2003FBEA
:104BC00000207047042600202DE9F0413949BFF349
:104BD0005B8F0746012251E8003F41E80020002892
:104BE000F9D1BFF35B8F33B9334934484B60CB60A5
:104BF0008A6004F06BFF7B1E012B2FD8012F07D199
:104C00004FF08043D3F81C3403F00303012B25D06D
:104C100006F007FA044618B9294B1B78002B41D13E
:104C20004FF02003EFF3118683F31288BFF36F8FE9
:104C30000124DFF890804FF08045D5F81834D5F87E
:104C40001824D2030CD503F00303012B01D0012F4C
:104C500006D10CB386F31188BFF36F8FBDE8F081E6
:104C6000ACB13046FEF796FBD5F81835002BE4D1F1
:104C7000D5F80421002AE0D0C5F80431D5F8043174
:104C80000123C5F81835C8F88031AB60D5E700219D
:104C9000212003F053F9E7E74FF080430222C3F8E5
:104CA0000423DBE74FF080430222C3F808230646C3
:104CB000BFE700BF58260020F42500202026002052
:104CC0007F2B002000E100E00A2838B5064D04469D
:104CD00003D128680D2105F0A4FC2868E1B205F095
:104CE000A0FC204638BD00BF5C26002008B5084B5C
:104CF0000848186006F059F938B10748FEF7A8FFD0
:104D00000548FCF707FD002008BD6FF01200FBE727
:104D10005C2600205CB90000C94C000008B5094BB6
:104D20001A786AB90121197006200521FEF79CFB4B
:104D30000620FEF767FB044B4FF00042C3F8042344
:104D4000002008BD572B0020006000402B4BF0B521
:104D500044682B481340834241D00DD8062B15D010
:104D600005D89BB1022B3CD06FF0150036E0B3F5AF
:104D7000801FF9D1012309E02248834233D0B3F5E3
:104D8000A00F32D0B3F5800FEED10223D00654BF6E
:104D9000C2F34016032682F480759705C2F34020C3
:104DA000C5F3002507D512F4006F67681FD00122F4
:104DB0008A40C7F80825227A134C012A01F01F0106
:104DC00040EA450218BF4FF0A04442EA032301F530
:104DD000E07143EA860344F821300020F0BD072348
:104DE000D4E70423D2E70523D0E70323CEE7520517
:104DF00042BF01228A40C7F80C25DCE70600F0001C
:104E000006001000020040000003005000F01F02E6
:104E10004009084B012818BF4FF0A04303EB820361
:104E2000D3F8002722F4403242EA0142C3F80027B7
:104E3000704700BF000300502DE9F84F0369D0F818
:104E400004A0DE68DFF87CB08846D3E905210A4378
:104E500026EA0206DAF804201B69D2F810555D40F4
:104E600026EA0505374601244FF0000917B9284600
:104E7000BDE8F88F3C4221D09AF8083009F01F00B5
:104E8000344240EA431014D14209012A00F01F03C2
:104E900014BF4FF0A0425A4603F5E07352F8233096
:104EA000C3F30143022B02BFD8F800302343C8F8F4
:104EB00000300021FFF7AAFF27EA040709F10109E2
:104EC0006400D3E700030050F0B5002485B0CDE9BD
:104ED0000044CDE90244284ED6F87C516DB102A9B8
:104EE0002648FFF7A9FF03A900902548FFF7A4FF74
:104EF0000190C6F87C41D6F87C3122491E4C002234
:104F000001269446D4F8043306FA02F0184216D06B
:104F10000B68A3B102F5A27304AF54F82330C1F8B3
:104F200000C0C3F3403007EB8000C3F3042350F804
:104F3000107C06FA03F33B4340F8103C0B68013247
:104F4000082A01F10401DDD1009A22B10E4B0B4970
:104F5000586805F0BAFB019A22B10C4B0849586811
:104F600005F0B3FB2DB1054805F0C0FB044805F082
:104F7000BDFB05B0F0BD00BF006000408CB9000073
:104F8000A4B9000000610040602600207C260020BB
:104F9000F7B5144642680769127A01F01F05B4F5A7
:104FA000A03F0E4645EA421510D16909012905F0D6
:104FB0001F02614902F5E07218BF4FF0A04151F89D
:104FC0002220D00707D56FF085009AE0B4F5005F86
:104FD000F96800F09880FA680121B14011437A69BC
:104FE000F9600121B140B4F5A03F0CBF0A438A43E8
:104FF0007A61BA69B3F5C02F0CBF0A438A43BA611C
:105000003A69B3F5802F0CBF114322EA01014B4AE4
:105010003961D2F804330020DBB200F5A27152F8F6
:105020002110C1F305218D4272D123FA00F1C90785
:105030006ED5830003F1804303F5C043D3F8101508
:1050400021F00101C3F8101501238340C2F8083391
:10505000C0B200F0DFFD28460021FFF7D7FEF86858
:10506000F04010F001004CD07869F04010F00104DD
:1050700055D0BB69F340DB075FBF396921FA06F6FB
:1050800006F00106C6F102060DF1070054BFF6B2A4
:10509000032600F0DFFD2A4B98423DD19DF8072002
:1050A000930003F1804303F5C0432D02D3F810159C
:1050B00021F44F3121F44071C3F81015D3F81015C5
:1050C00005F47C550D4345EA0646C3F81065930088
:1050D00003F1804303F5C243002018609DF80710D8
:1050E0001B688B0003F1804303F5C043D3F8102500
:1050F00042F00102C3F81025104A01238B40C2F888
:10510000043303B0F0BD0122B24021EA020166E798
:105110000130082881D19EE76FF01200F1E739696C
:10512000F14001F00101C1F103012846C9B2FFF7C6
:105130006DFE2046E5E700BF000300500060004020
:105140000000AD0B024B0B6001231360704700BFE2
:105150009826002000487047B8BE000070B50D4684
:105160002846194616461C4605F01DFB40B909485D
:1051700023462A46452104F0E9FF6FF0150070BD73
:1051800034B122462946304605F05FF90020F6E7A3
:105190002046F4E7D5D1000010B50122114606489B
:1051A000064C05F0E1FF05F041FD206005F03AFDF9
:1051B0006060002010BD00BFA026002098260020BF
:1051C0004FF08042D2F81015D2F8103501F01E01D0
:1051D00023F01F030B4343F00103C2F81035024BC9
:1051E00000221A70704700BF582B00204FF08053E8
:1051F000D3F83031082B22D14FF08042D2F810156D
:1052000011F001001CD0D2F8100501F01E0120F0B1
:105210001F000843C2F81005D2F8080158B1D2F8AF
:10522000103523F01F030B4343F00103C2F8103580
:105230006FF08B007047034B01221A7070470020FB
:10524000704700BF582B00202DE9F0410F4615464E
:1052500005F0E8FC29460646384605F0A4FAB846AB
:10526000B0B3B7FBF6F306FB137323B9B5FBF6F443
:1052700006FB145444B119482B463A46452104F024
:1052800065FF6FF015041DE0AE421BD84FF0FF32F2
:105290004FF0FF331248134F02F01AFA05F0C2FC28
:1052A0000646FFF7A3FF044678B9404600F016FD16
:1052B0003B780BB1FFF784FFAD1BB044F1D1084838
:1052C00002F0E0F92046BDE8F0816FF08B04F6E7CC
:1052D00005482B463A464521D1E700BFF7D10000EB
:1052E000A0260020582B0020D5D100002DE9F8433E
:1052F0000E463046194617461C4605F054FA50B97A
:10530000204823463246452104F020FF6FF0150463
:105310002046BDE8F88344EA060515F0030504D0ED
:105320001948234632464521EEE7002CF0D01748B5
:10533000DFF85C904FF0FF324FF0FF3302F0C8F916
:1053400024F00304AC4205EB060809D1114AD2F857
:105350000034DB07FBD500240C4802F093F9D7E7B3
:10536000FFF744FF50B97959404600F0D7FC99F84F
:1053700000300BB1FFF724FF0435E3E76FF08B0437
:10538000EAE700BFD5D100001BD20000A026002014
:10539000582B002000E00140036803F01F025B0966
:1053A000012B0260024818BF4FF0A040704700BFB9
:1053B00000030050F0B54B79012B2AD0032B25D1E7
:1053C00010268B79032B21D1CC792CB1012C1DD146
:1053D00043685B689B0719D00A7912B1022A15D17C
:1053E0000E220B684568B3F5164F2D6865D02DD891
:1053F000B3F5165F64D016D8B3F5966F62D00AD8AD
:10540000B3F5967F61D0B3F5167F61D06FF085005C
:1054100052E00026D5E7B3F5166F5CD0B3F5965F82
:10542000F4D1374B3CE0B3F5E14F57D007D8B3F593
:10543000615F55D0B3F5964FE8D1324B30E047F677
:105440001227BB42E2D14FF4000329E0B3F5613FDC
:1054500048D013D8B3F5963F47D009D84DF6C027AA
:10546000BB4244D0B3F5614FD0D14FF46B0317E08A
:10547000B3F5E13FCAD14FF0EB7311E0B3F5612F03
:1054800038D008D8204FBB4237D0B3F5E12FBDD17B
:105490004FF0E86304E01D4FBB42B7D14FF080539B
:1054A000C5F82435036903C9344322430433C5F8DE
:1054B0006C2583E803000020F0BD4FF41D03EFE7E7
:1054C000134BEDE74FF49E23EAE74FF4A033E7E7F1
:1054D0004FF41C33E4E74FF41D23E1E70D4BDFE706
:1054E0000D4BDDE74FF06C73DAE70C4BD8E74FF468
:1054F0006503D5E74FF07063D2E74FF08063CFE7E5
:1055000000B0130000A04E0090D0030040420F00F6
:105510000050270000C0750000F03A0000903A01EA
:10552000F8B5066905460F4605F07BFD10B9204B1E
:105530001B7883B94FF02003EFF3118483F31288B3
:10554000BFF36F8F686805F07FFA28BB84F311887A
:10555000BFF36F8FEEE76424686805F075FA70B9E1
:10556000012005F02BFB013CF6D10021212002F0A7
:10557000E5FCF0E784F31188BFF36F8FF5E74FF098
:105580002003EFF3118483F31288BFF36F8F6868F1
:1055900005F05AFA0028EDD03146012201F8147FB7
:1055A000686805F036FA84F31188BFF36F8FF8BD91
:1055B0007F2B0020F7B50746002201210220FDF7CE
:1055C00053FF0220FDF71EFF7D683E692C68002313
:1055D000C4F8003501A8AB6837600193FFF7DCFE23
:1055E000019A01239340C0F80835AB68019301A8E4
:1055F000FFF7D2FE019B03F5E073032240F823205E
:10560000E868421C02D0297E05F0F5F9D5E90223AD
:105610002869C4F80C25C4F81435431C02D0697EEF
:1056200005F0E9F96B69581C13D001A80193FFF745
:10563000B3FE019A01239340C0F808356B690193CA
:1056400001A8FFF7A9FE019B03F5E073032240F8D0
:105650002320D5E904323969C4F808253846C4F84E
:1056600010350431FFF7A6FE074678B96B681907B5
:1056700022D506F1160000F0FFFB244B984208D01B
:105680002348452104F062FD6FF00407384603B05B
:10569000F0BDB07DC30003F1804303F5F83304F19E
:1056A0000C0204F59071C3F81015C3F81425194ABB
:1056B00001238340C2F804350823C4F80035EB68A1
:1056C00001330CD00023C4F81031D4F8103106F1A6
:1056D0001503C4F834350123C4F8383523606B68EA
:1056E0001A075CBF4FF48072C4F80423DB0644BF82
:1056F0004FF48003C4F8043314360023C4F844651F
:10570000C4F848350123A360E360BFE70000AD0B98
:1057100048D2000000F00140044A1368C81A20F083
:105720007F400344136002F07DBD00BFC42600200B
:105730002DE9F843860006F1804600F1500406F595
:105740008836A400A4B204F180444FF48037D6F820
:105750004035DFF86C8021F07F4504F588348740C0
:10576000D8F80495A3EB090323F07F4329F07F4287
:10577000012BC6F8402502D1132005F084FE09F163
:105780000202AB1A23F07F43B3F5000F88BF154622
:10579000002323602368C8F8447325F07F43C6F8CC
:1057A0004035D8F80435994506D0EB1A023B23F072
:1057B0007F43B3F5000F01D8BDE8F8832B46CFE750
:1057C0000010014070B5154D154C00262B680020C7
:1057D00006B170BDD4F80423D203FAD5D4F8402121
:1057E000002AF6D0C4F84061D4F840214FF480324A
:1057F000C4F84823D4F84015D4F80465721A22F08E
:105800007F42B2F5000F88BF314601261BB16A689E
:1058100028609847DAE72B60DBE700BFB826002056
:105820000010014038B50F4C00254FF48033C4F808
:105830000855C4F804330C4B4FF40032C3F88021F0
:1058400001212A461120FDF70FFE1120FDF7DAFD98
:105850000123064AA360022023601360FFF7B4F916
:10586000284638BD0010014000E100E0C0260020BD
:10587000134AB0F1FF3F14BF03461346013B002B10
:105880001CDD9342A8BF13460E4AD2F804050E4A07
:105890001168401A10F4000F20F07F4218BF002357
:1058A00001321344094A0A48106000205060044A3B
:1058B000934294BFC9188918FFF73ABF0023E3E762
:1058C000FFFF7F0000100140C4260020B826002002
:1058D00019570000044BD3F80405044B1B68C01A89
:1058E00020F07F40704700BF00100140C426002018
:1058F0004FF08053D3F83021082A06D1D3F8343141
:10590000052B02D8024AD05C70470020704700BFC8
:1059100093D20000024AD2F80034002BFBD070472B
:1059200000E0014010B505F03FF940B14FF0804371
:105930000022C3F80C21C3F81021C3F8382505F064
:1059400033F9002846D04FF08052604BD2F804144F
:10595000C3F82015D2F80814C3F82415D2F80C1493
:10596000C3F82815D2F81014C3F82C15D2F8141463
:10597000C3F83015D2F81814C3F83415D2F81C1433
:10598000C3F84015D2F82014C3F84415D2F82414F3
:10599000C3F84815D2F82814C3F84C15D2F82C14C3
:1059A000C3F85015D2F83014C3F85415D2F8341493
:1059B000C3F86015D2F83814C3F86415D2F83C1453
:1059C000C3F86815D2F84014C3F86C15D2F8442413
:1059D000C3F87025FFF78CFF18B13D4B3D4AC3F863
:1059E0008C26FFF785FF18B13B4BFB22C3F8182527
:1059F000FFF77EFF70B14FF080414FF08053D1F838
:105A0000E42ED3F8583222F00F0203F00F031343B1
:105A1000C1F8E43EFFF76CFF20B1304B4FF4007249
:105A2000C3F8402605F0C0F848B14FF08043D3F8E2
:105A30000024D20744BF6FF00102C3F800244FF0E6
:105A40008053D3F83021082A0ED1D3F83431052BF6
:105A500002D8234AD35C3BB14FF01023D3F808227D
:105A60004FF08043C3F858254FF01023D3F800229D
:105A7000002A03DBD3F80432002B22DA1949012370
:105A80004FF01020C1F804351224FFF743FFC0F88F
:105A90000042FFF73FFFC0F80442FFF73BFF00233F
:105AA000C1F80435FFF736FFBFF34F8F0E490F4B98
:105AB000CA6802F4E0621343CB60BFF34F8F00BFAC
:105AC000FDE70B4B0B4A1A6010BD00BF00C0004041
:105AD000005000404881030000F000400090024068
